{
	"piggy_bank/piggy_bank.sol": {
		"Bank": {
			"abi": [
				{
					"inputs": [],
					"stateMutability": "payable",
					"type": "constructor"
				},
				{
					"anonymous": false,
					"inputs": [
						{
							"indexed": true,
							"internalType": "address",
							"name": "_ads",
							"type": "address"
						},
						{
							"indexed": false,
							"internalType": "uint256",
							"name": "amount",
							"type": "uint256"
						}
					],
					"name": "Deposit",
					"type": "event"
				},
				{
					"anonymous": false,
					"inputs": [
						{
							"indexed": false,
							"internalType": "address",
							"name": "token",
							"type": "address"
						},
						{
							"indexed": false,
							"internalType": "uint256",
							"name": "amount",
							"type": "uint256"
						}
					],
					"name": "WithdrawERC20",
					"type": "event"
				},
				{
					"anonymous": false,
					"inputs": [
						{
							"indexed": false,
							"internalType": "address",
							"name": "token",
							"type": "address"
						},
						{
							"indexed": false,
							"internalType": "uint256",
							"name": "tokenId",
							"type": "uint256"
						}
					],
					"name": "WithdrawERC721",
					"type": "event"
				},
				{
					"anonymous": false,
					"inputs": [
						{
							"indexed": false,
							"internalType": "uint256",
							"name": "amount",
							"type": "uint256"
						}
					],
					"name": "WithdrawETH",
					"type": "event"
				},
				{
					"inputs": [
						{
							"internalType": "address",
							"name": "token",
							"type": "address"
						}
					],
					"name": "getBalanceERC20",
					"outputs": [
						{
							"internalType": "uint256",
							"name": "",
							"type": "uint256"
						}
					],
					"stateMutability": "view",
					"type": "function"
				},
				{
					"inputs": [],
					"name": "getBalanceETH",
					"outputs": [
						{
							"internalType": "uint256",
							"name": "",
							"type": "uint256"
						}
					],
					"stateMutability": "view",
					"type": "function"
				},
				{
					"inputs": [
						{
							"internalType": "address",
							"name": "token",
							"type": "address"
						},
						{
							"internalType": "uint256",
							"name": "tokenId",
							"type": "uint256"
						}
					],
					"name": "isOwnerOfERC721",
					"outputs": [
						{
							"internalType": "bool",
							"name": "",
							"type": "bool"
						}
					],
					"stateMutability": "view",
					"type": "function"
				},
				{
					"inputs": [],
					"name": "owner",
					"outputs": [
						{
							"internalType": "address",
							"name": "",
							"type": "address"
						}
					],
					"stateMutability": "view",
					"type": "function"
				},
				{
					"inputs": [
						{
							"internalType": "address[]",
							"name": "erc20Tokens",
							"type": "address[]"
						},
						{
							"internalType": "address[]",
							"name": "erc721Tokens",
							"type": "address[]"
						},
						{
							"internalType": "uint256[]",
							"name": "erc721TokenIds",
							"type": "uint256[]"
						}
					],
					"name": "withdrawAllAssets",
					"outputs": [],
					"stateMutability": "nonpayable",
					"type": "function"
				},
				{
					"stateMutability": "payable",
					"type": "receive"
				}
			],
			"devdoc": {
				"kind": "dev",
				"methods": {},
				"version": 1
			},
			"evm": {
				"assembly": "    /* \"piggy_bank/piggy_bank.sol\":421:3235  contract Bank {... */\n  mstore(0x40, 0xa0)\n    /* \"piggy_bank/piggy_bank.sol\":1167:1177  msg.sender */\n  caller\n    /* \"piggy_bank/piggy_bank.sol\":1159:1177  owner = msg.sender */\n  0xffffffffffffffffffffffffffffffffffffffff\n  and\n  0x80\n  dup2\n  0xffffffffffffffffffffffffffffffffffffffff\n  and\n  dup2\n  mstore\n  pop\n  pop\n    /* \"piggy_bank/piggy_bank.sol\":1199:1204  false */\n  0x00\n    /* \"piggy_bank/piggy_bank.sol\":1188:1196  disabled */\n  dup1\n  0x00\n    /* \"piggy_bank/piggy_bank.sol\":1188:1204  disabled = false */\n  0x0100\n  exp\n  dup2\n  sload\n  dup2\n  0xff\n  mul\n  not\n  and\n  swap1\n  dup4\n  iszero\n  iszero\n  mul\n  or\n  swap1\n  sstore\n  pop\n    /* \"piggy_bank/piggy_bank.sol\":421:3235  contract Bank {... */\n  mload(0x80)\n  codecopy(0x00, dataOffset(sub_0), dataSize(sub_0))\n  0x00\n  assignImmutable(\"0x5bc0457d8881b800fd1bc0d6df907345b3bf287e43a5790ded3d08dbacf9c03a\")\n  return(0x00, dataSize(sub_0))\nstop\n\nsub_0: assembly {\n        /* \"piggy_bank/piggy_bank.sol\":421:3235  contract Bank {... */\n      mstore(0x40, 0x80)\n      jumpi(tag_1, lt(calldatasize, 0x04))\n      shr(0xe0, calldataload(0x00))\n      dup1\n      0x22dd48aa\n      eq\n      tag_3\n      jumpi\n      dup1\n      0x432aeed4\n      eq\n      tag_4\n      jumpi\n      dup1\n      0x8da5cb5b\n      eq\n      tag_5\n      jumpi\n      dup1\n      0xacd1f254\n      eq\n      tag_6\n      jumpi\n      dup1\n      0xff414b64\n      eq\n      tag_7\n      jumpi\n      jump(tag_2)\n    tag_1:\n      jumpi(tag_2, calldatasize)\n        /* \"piggy_bank/piggy_bank.sol\":921:929  disabled */\n      0x00\n      dup1\n      sload\n      swap1\n      0x0100\n      exp\n      swap1\n      div\n      0xff\n      and\n        /* \"piggy_bank/piggy_bank.sol\":920:929  !disabled */\n      iszero\n        /* \"piggy_bank/piggy_bank.sol\":912:954  require(!disabled, \"Contract is disabled\") */\n      tag_10\n      jumpi\n      mload(0x40)\n      0x08c379a000000000000000000000000000000000000000000000000000000000\n      dup2\n      mstore\n      0x04\n      add\n      tag_11\n      swap1\n      tag_12\n      jump\t// in\n    tag_11:\n      mload(0x40)\n      dup1\n      swap2\n      sub\n      swap1\n      revert\n    tag_10:\n        /* \"piggy_bank/piggy_bank.sol\":1067:1077  msg.sender */\n      caller\n        /* \"piggy_bank/piggy_bank.sol\":1059:1089  Deposit(msg.sender, msg.value) */\n      0xffffffffffffffffffffffffffffffffffffffff\n      and\n      0xe1fffcc4923d04b559f4d29a8bfc6cda04eb5b0d3c460751c2402c5c5cc9109c\n        /* \"piggy_bank/piggy_bank.sol\":1079:1088  msg.value */\n      callvalue\n        /* \"piggy_bank/piggy_bank.sol\":1059:1089  Deposit(msg.sender, msg.value) */\n      mload(0x40)\n      tag_14\n      swap2\n      swap1\n      tag_15\n      jump\t// in\n    tag_14:\n      mload(0x40)\n      dup1\n      swap2\n      sub\n      swap1\n      log2\n        /* \"piggy_bank/piggy_bank.sol\":421:3235  contract Bank {... */\n      stop\n    tag_2:\n      0x00\n      dup1\n      revert\n        /* \"piggy_bank/piggy_bank.sol\":1256:2630  function withdrawAllAssets(address[] calldata erc20Tokens, address[] calldata erc721Tokens, uint256[] calldata erc721TokenIds) external onlyOwner isEnabled {... */\n    tag_3:\n      callvalue\n      dup1\n      iszero\n      tag_16\n      jumpi\n      0x00\n      dup1\n      revert\n    tag_16:\n      pop\n      tag_17\n      0x04\n      dup1\n      calldatasize\n      sub\n      dup2\n      add\n      swap1\n      tag_18\n      swap2\n      swap1\n      tag_19\n      jump\t// in\n    tag_18:\n      tag_20\n      jump\t// in\n    tag_17:\n      stop\n        /* \"piggy_bank/piggy_bank.sol\":3038:3232  function isOwnerOfERC721(address token, uint256 tokenId) external view returns (bool) {... */\n    tag_4:\n      callvalue\n      dup1\n      iszero\n      tag_21\n      jumpi\n      0x00\n      dup1\n      revert\n    tag_21:\n      pop\n      tag_22\n      0x04\n      dup1\n      calldatasize\n      sub\n      dup2\n      add\n      swap1\n      tag_23\n      swap2\n      swap1\n      tag_24\n      jump\t// in\n    tag_23:\n      tag_25\n      jump\t// in\n    tag_22:\n      mload(0x40)\n      tag_26\n      swap2\n      swap1\n      tag_27\n      jump\t// in\n    tag_26:\n      mload(0x40)\n      dup1\n      swap2\n      sub\n      swap1\n      return\n        /* \"piggy_bank/piggy_bank.sol\":463:493  address public immutable owner */\n    tag_5:\n      callvalue\n      dup1\n      iszero\n      tag_28\n      jumpi\n      0x00\n      dup1\n      revert\n    tag_28:\n      pop\n      tag_29\n      tag_30\n      jump\t// in\n    tag_29:\n      mload(0x40)\n      tag_31\n      swap2\n      swap1\n      tag_32\n      jump\t// in\n    tag_31:\n      mload(0x40)\n      dup1\n      swap2\n      sub\n      swap1\n      return\n        /* \"piggy_bank/piggy_bank.sol\":2668:2772  function getBalanceETH() external view returns (uint256) {... */\n    tag_6:\n      callvalue\n      dup1\n      iszero\n      tag_33\n      jumpi\n      0x00\n      dup1\n      revert\n    tag_33:\n      pop\n      tag_34\n      tag_35\n      jump\t// in\n    tag_34:\n      mload(0x40)\n      tag_36\n      swap2\n      swap1\n      tag_15\n      jump\t// in\n    tag_36:\n      mload(0x40)\n      dup1\n      swap2\n      sub\n      swap1\n      return\n        /* \"piggy_bank/piggy_bank.sol\":2818:2985  function getBalanceERC20(address token) external view returns (uint256) {... */\n    tag_7:\n      callvalue\n      dup1\n      iszero\n      tag_37\n      jumpi\n      0x00\n      dup1\n      revert\n    tag_37:\n      pop\n      tag_38\n      0x04\n      dup1\n      calldatasize\n      sub\n      dup2\n      add\n      swap1\n      tag_39\n      swap2\n      swap1\n      tag_40\n      jump\t// in\n    tag_39:\n      tag_41\n      jump\t// in\n    tag_38:\n      mload(0x40)\n      tag_42\n      swap2\n      swap1\n      tag_15\n      jump\t// in\n    tag_42:\n      mload(0x40)\n      dup1\n      swap2\n      sub\n      swap1\n      return\n        /* \"piggy_bank/piggy_bank.sol\":1256:2630  function withdrawAllAssets(address[] calldata erc20Tokens, address[] calldata erc721Tokens, uint256[] calldata erc721TokenIds) external onlyOwner isEnabled {... */\n    tag_20:\n        /* \"piggy_bank/piggy_bank.sol\":833:838  owner */\n      immutable(\"0x5bc0457d8881b800fd1bc0d6df907345b3bf287e43a5790ded3d08dbacf9c03a\")\n        /* \"piggy_bank/piggy_bank.sol\":819:838  msg.sender == owner */\n      0xffffffffffffffffffffffffffffffffffffffff\n      and\n        /* \"piggy_bank/piggy_bank.sol\":819:829  msg.sender */\n      caller\n        /* \"piggy_bank/piggy_bank.sol\":819:838  msg.sender == owner */\n      0xffffffffffffffffffffffffffffffffffffffff\n      and\n      eq\n        /* \"piggy_bank/piggy_bank.sol\":811:852  require(msg.sender == owner, \"Not Owner\") */\n      tag_44\n      jumpi\n      mload(0x40)\n      0x08c379a000000000000000000000000000000000000000000000000000000000\n      dup2\n      mstore\n      0x04\n      add\n      tag_45\n      swap1\n      tag_46\n      jump\t// in\n    tag_45:\n      mload(0x40)\n      dup1\n      swap2\n      sub\n      swap1\n      revert\n    tag_44:\n        /* \"piggy_bank/piggy_bank.sol\":921:929  disabled */\n      0x00\n      dup1\n      sload\n      swap1\n      0x0100\n      exp\n      swap1\n      div\n      0xff\n      and\n        /* \"piggy_bank/piggy_bank.sol\":920:929  !disabled */\n      iszero\n        /* \"piggy_bank/piggy_bank.sol\":912:954  require(!disabled, \"Contract is disabled\") */\n      tag_48\n      jumpi\n      mload(0x40)\n      0x08c379a000000000000000000000000000000000000000000000000000000000\n      dup2\n      mstore\n      0x04\n      add\n      tag_49\n      swap1\n      tag_12\n      jump\t// in\n    tag_49:\n      mload(0x40)\n      dup1\n      swap2\n      sub\n      swap1\n      revert\n    tag_48:\n        /* \"piggy_bank/piggy_bank.sol\":1454:1468  erc721TokenIds */\n      dup2\n      dup2\n        /* \"piggy_bank/piggy_bank.sol\":1454:1475  erc721TokenIds.length */\n      swap1\n      pop\n        /* \"piggy_bank/piggy_bank.sol\":1431:1443  erc721Tokens */\n      dup5\n      dup5\n        /* \"piggy_bank/piggy_bank.sol\":1431:1450  erc721Tokens.length */\n      swap1\n      pop\n        /* \"piggy_bank/piggy_bank.sol\":1431:1475  erc721Tokens.length == erc721TokenIds.length */\n      eq\n        /* \"piggy_bank/piggy_bank.sol\":1423:1517  require(erc721Tokens.length == erc721TokenIds.length, \"ERC721 tokens and IDs length mismatch\") */\n      tag_51\n      jumpi\n      mload(0x40)\n      0x08c379a000000000000000000000000000000000000000000000000000000000\n      dup2\n      mstore\n      0x04\n      add\n      tag_52\n      swap1\n      tag_53\n      jump\t// in\n    tag_52:\n      mload(0x40)\n      dup1\n      swap2\n      sub\n      swap1\n      revert\n    tag_51:\n        /* \"piggy_bank/piggy_bank.sol\":1558:1576  uint256 ethBalance */\n      0x00\n        /* \"piggy_bank/piggy_bank.sol\":1579:1600  address(this).balance */\n      selfbalance\n        /* \"piggy_bank/piggy_bank.sol\":1558:1600  uint256 ethBalance = address(this).balance */\n      swap1\n      pop\n        /* \"piggy_bank/piggy_bank.sol\":1628:1629  0 */\n      0x00\n        /* \"piggy_bank/piggy_bank.sol\":1615:1625  ethBalance */\n      dup2\n        /* \"piggy_bank/piggy_bank.sol\":1615:1629  ethBalance > 0 */\n      gt\n        /* \"piggy_bank/piggy_bank.sol\":1611:1741  if (ethBalance > 0) {... */\n      iszero\n      tag_54\n      jumpi\n        /* \"piggy_bank/piggy_bank.sol\":1651:1674  WithdrawETH(ethBalance) */\n      0x94effa14ea3a1ef396fa2fd829336d1597f1d76b548c26bfa2332869706638af\n        /* \"piggy_bank/piggy_bank.sol\":1663:1673  ethBalance */\n      dup2\n        /* \"piggy_bank/piggy_bank.sol\":1651:1674  WithdrawETH(ethBalance) */\n      mload(0x40)\n      tag_55\n      swap2\n      swap1\n      tag_15\n      jump\t// in\n    tag_55:\n      mload(0x40)\n      dup1\n      swap2\n      sub\n      swap1\n      log1\n        /* \"piggy_bank/piggy_bank.sol\":1697:1707  msg.sender */\n      caller\n        /* \"piggy_bank/piggy_bank.sol\":1689:1717  payable(msg.sender).transfer */\n      0xffffffffffffffffffffffffffffffffffffffff\n      and\n        /* \"piggy_bank/piggy_bank.sol\":1689:1729  payable(msg.sender).transfer(ethBalance) */\n      0x08fc\n        /* \"piggy_bank/piggy_bank.sol\":1718:1728  ethBalance */\n      dup3\n        /* \"piggy_bank/piggy_bank.sol\":1689:1729  payable(msg.sender).transfer(ethBalance) */\n      swap1\n      dup2\n      iszero\n      mul\n      swap1\n      mload(0x40)\n      0x00\n      mload(0x40)\n      dup1\n      dup4\n      sub\n      dup2\n      dup6\n      dup9\n      dup9\n      call\n      swap4\n      pop\n      pop\n      pop\n      pop\n      iszero\n      dup1\n      iszero\n      tag_57\n      jumpi\n      returndatasize\n      0x00\n      dup1\n      returndatacopy\n      revert(0x00, returndatasize)\n    tag_57:\n      pop\n        /* \"piggy_bank/piggy_bank.sol\":1611:1741  if (ethBalance > 0) {... */\n    tag_54:\n        /* \"piggy_bank/piggy_bank.sol\":1788:1794  uint i */\n      0x00\n        /* \"piggy_bank/piggy_bank.sol\":1783:2147  for (uint i = 0; i < erc20Tokens.length; i++) {... */\n    tag_58:\n        /* \"piggy_bank/piggy_bank.sol\":1804:1815  erc20Tokens */\n      dup8\n      dup8\n        /* \"piggy_bank/piggy_bank.sol\":1804:1822  erc20Tokens.length */\n      swap1\n      pop\n        /* \"piggy_bank/piggy_bank.sol\":1800:1801  i */\n      dup2\n        /* \"piggy_bank/piggy_bank.sol\":1800:1822  i < erc20Tokens.length */\n      lt\n        /* \"piggy_bank/piggy_bank.sol\":1783:2147  for (uint i = 0; i < erc20Tokens.length; i++) {... */\n      iszero\n      tag_59\n      jumpi\n        /* \"piggy_bank/piggy_bank.sol\":1844:1856  IERC20 erc20 */\n      0x00\n        /* \"piggy_bank/piggy_bank.sol\":1866:1877  erc20Tokens */\n      dup9\n      dup9\n        /* \"piggy_bank/piggy_bank.sol\":1878:1879  i */\n      dup4\n        /* \"piggy_bank/piggy_bank.sol\":1866:1880  erc20Tokens[i] */\n      dup2\n      dup2\n      lt\n      tag_61\n      jumpi\n      tag_62\n      tag_63\n      jump\t// in\n    tag_62:\n    tag_61:\n      swap1\n      pop\n      0x20\n      mul\n      add\n      0x20\n      dup2\n      add\n      swap1\n      tag_64\n      swap2\n      swap1\n      tag_40\n      jump\t// in\n    tag_64:\n        /* \"piggy_bank/piggy_bank.sol\":1844:1881  IERC20 erc20 = IERC20(erc20Tokens[i]) */\n      swap1\n      pop\n        /* \"piggy_bank/piggy_bank.sol\":1896:1911  uint256 balance */\n      0x00\n        /* \"piggy_bank/piggy_bank.sol\":1914:1919  erc20 */\n      dup2\n        /* \"piggy_bank/piggy_bank.sol\":1914:1929  erc20.balanceOf */\n      0xffffffffffffffffffffffffffffffffffffffff\n      and\n      0x70a08231\n        /* \"piggy_bank/piggy_bank.sol\":1938:1942  this */\n      address\n        /* \"piggy_bank/piggy_bank.sol\":1914:1944  erc20.balanceOf(address(this)) */\n      mload(0x40)\n      dup3\n      0xffffffff\n      and\n      0xe0\n      shl\n      dup2\n      mstore\n      0x04\n      add\n      tag_65\n      swap2\n      swap1\n      tag_32\n      jump\t// in\n    tag_65:\n      0x20\n      mload(0x40)\n      dup1\n      dup4\n      sub\n      dup2\n      dup7\n      gas\n      staticcall\n      iszero\n      dup1\n      iszero\n      tag_67\n      jumpi\n      returndatasize\n      0x00\n      dup1\n      returndatacopy\n      revert(0x00, returndatasize)\n    tag_67:\n      pop\n      pop\n      pop\n      pop\n      mload(0x40)\n      returndatasize\n      not(0x1f)\n      0x1f\n      dup3\n      add\n      and\n      dup3\n      add\n      dup1\n      0x40\n      mstore\n      pop\n      dup2\n      add\n      swap1\n      tag_68\n      swap2\n      swap1\n      tag_69\n      jump\t// in\n    tag_68:\n        /* \"piggy_bank/piggy_bank.sol\":1896:1944  uint256 balance = erc20.balanceOf(address(this)) */\n      swap1\n      pop\n        /* \"piggy_bank/piggy_bank.sol\":1973:1974  0 */\n      0x00\n        /* \"piggy_bank/piggy_bank.sol\":1963:1970  balance */\n      dup2\n        /* \"piggy_bank/piggy_bank.sol\":1963:1974  balance > 0 */\n      gt\n        /* \"piggy_bank/piggy_bank.sol\":1959:2136  if (balance > 0) {... */\n      iszero\n      tag_70\n      jumpi\n        /* \"piggy_bank/piggy_bank.sol\":2003:2008  erc20 */\n      dup2\n        /* \"piggy_bank/piggy_bank.sol\":2003:2017  erc20.transfer */\n      0xffffffffffffffffffffffffffffffffffffffff\n      and\n      0xa9059cbb\n        /* \"piggy_bank/piggy_bank.sol\":2018:2028  msg.sender */\n      caller\n        /* \"piggy_bank/piggy_bank.sol\":2030:2037  balance */\n      dup4\n        /* \"piggy_bank/piggy_bank.sol\":2003:2038  erc20.transfer(msg.sender, balance) */\n      mload(0x40)\n      dup4\n      0xffffffff\n      and\n      0xe0\n      shl\n      dup2\n      mstore\n      0x04\n      add\n      tag_71\n      swap3\n      swap2\n      swap1\n      tag_72\n      jump\t// in\n    tag_71:\n      0x20\n      mload(0x40)\n      dup1\n      dup4\n      sub\n      dup2\n      0x00\n      dup8\n      gas\n      call\n      iszero\n      dup1\n      iszero\n      tag_74\n      jumpi\n      returndatasize\n      0x00\n      dup1\n      returndatacopy\n      revert(0x00, returndatasize)\n    tag_74:\n      pop\n      pop\n      pop\n      pop\n      mload(0x40)\n      returndatasize\n      not(0x1f)\n      0x1f\n      dup3\n      add\n      and\n      dup3\n      add\n      dup1\n      0x40\n      mstore\n      pop\n      dup2\n      add\n      swap1\n      tag_75\n      swap2\n      swap1\n      tag_76\n      jump\t// in\n    tag_75:\n        /* \"piggy_bank/piggy_bank.sol\":1995:2058  require(erc20.transfer(msg.sender, balance), \"Transfer failed\") */\n      tag_77\n      jumpi\n      mload(0x40)\n      0x08c379a000000000000000000000000000000000000000000000000000000000\n      dup2\n      mstore\n      0x04\n      add\n      tag_78\n      swap1\n      tag_79\n      jump\t// in\n    tag_78:\n      mload(0x40)\n      dup1\n      swap2\n      sub\n      swap1\n      revert\n    tag_77:\n        /* \"piggy_bank/piggy_bank.sol\":2082:2120  WithdrawERC20(erc20Tokens[i], balance) */\n      0xbe7426aee8a34d0263892b55ce65ce81d8f4c806eb4719e59015ea49feb92d22\n        /* \"piggy_bank/piggy_bank.sol\":2096:2107  erc20Tokens */\n      dup11\n      dup11\n        /* \"piggy_bank/piggy_bank.sol\":2108:2109  i */\n      dup6\n        /* \"piggy_bank/piggy_bank.sol\":2096:2110  erc20Tokens[i] */\n      dup2\n      dup2\n      lt\n      tag_80\n      jumpi\n      tag_81\n      tag_63\n      jump\t// in\n    tag_81:\n    tag_80:\n      swap1\n      pop\n      0x20\n      mul\n      add\n      0x20\n      dup2\n      add\n      swap1\n      tag_82\n      swap2\n      swap1\n      tag_40\n      jump\t// in\n    tag_82:\n        /* \"piggy_bank/piggy_bank.sol\":2112:2119  balance */\n      dup3\n        /* \"piggy_bank/piggy_bank.sol\":2082:2120  WithdrawERC20(erc20Tokens[i], balance) */\n      mload(0x40)\n      tag_83\n      swap3\n      swap2\n      swap1\n      tag_72\n      jump\t// in\n    tag_83:\n      mload(0x40)\n      dup1\n      swap2\n      sub\n      swap1\n      log1\n        /* \"piggy_bank/piggy_bank.sol\":1959:2136  if (balance > 0) {... */\n    tag_70:\n        /* \"piggy_bank/piggy_bank.sol\":1829:2147  {... */\n      pop\n      pop\n        /* \"piggy_bank/piggy_bank.sol\":1824:1827  i++ */\n      dup1\n      dup1\n      0x01\n      add\n      swap2\n      pop\n      pop\n        /* \"piggy_bank/piggy_bank.sol\":1783:2147  for (uint i = 0; i < erc20Tokens.length; i++) {... */\n      jump(tag_58)\n    tag_59:\n      pop\n        /* \"piggy_bank/piggy_bank.sol\":2195:2201  uint i */\n      0x00\n        /* \"piggy_bank/piggy_bank.sol\":2190:2551  for (uint i = 0; i < erc721Tokens.length; i++) {... */\n    tag_84:\n        /* \"piggy_bank/piggy_bank.sol\":2211:2223  erc721Tokens */\n      dup6\n      dup6\n        /* \"piggy_bank/piggy_bank.sol\":2211:2230  erc721Tokens.length */\n      swap1\n      pop\n        /* \"piggy_bank/piggy_bank.sol\":2207:2208  i */\n      dup2\n        /* \"piggy_bank/piggy_bank.sol\":2207:2230  i < erc721Tokens.length */\n      lt\n        /* \"piggy_bank/piggy_bank.sol\":2190:2551  for (uint i = 0; i < erc721Tokens.length; i++) {... */\n      iszero\n      tag_85\n      jumpi\n        /* \"piggy_bank/piggy_bank.sol\":2252:2266  IERC721 erc721 */\n      0x00\n        /* \"piggy_bank/piggy_bank.sol\":2277:2289  erc721Tokens */\n      dup7\n      dup7\n        /* \"piggy_bank/piggy_bank.sol\":2290:2291  i */\n      dup4\n        /* \"piggy_bank/piggy_bank.sol\":2277:2292  erc721Tokens[i] */\n      dup2\n      dup2\n      lt\n      tag_87\n      jumpi\n      tag_88\n      tag_63\n      jump\t// in\n    tag_88:\n    tag_87:\n      swap1\n      pop\n      0x20\n      mul\n      add\n      0x20\n      dup2\n      add\n      swap1\n      tag_89\n      swap2\n      swap1\n      tag_40\n      jump\t// in\n    tag_89:\n        /* \"piggy_bank/piggy_bank.sol\":2252:2293  IERC721 erc721 = IERC721(erc721Tokens[i]) */\n      swap1\n      pop\n        /* \"piggy_bank/piggy_bank.sol\":2361:2365  this */\n      address\n        /* \"piggy_bank/piggy_bank.sol\":2316:2366  erc721.ownerOf(erc721TokenIds[i]) == address(this) */\n      0xffffffffffffffffffffffffffffffffffffffff\n      and\n        /* \"piggy_bank/piggy_bank.sol\":2316:2322  erc721 */\n      dup2\n        /* \"piggy_bank/piggy_bank.sol\":2316:2330  erc721.ownerOf */\n      0xffffffffffffffffffffffffffffffffffffffff\n      and\n      0x6352211e\n        /* \"piggy_bank/piggy_bank.sol\":2331:2345  erc721TokenIds */\n      dup8\n      dup8\n        /* \"piggy_bank/piggy_bank.sol\":2346:2347  i */\n      dup7\n        /* \"piggy_bank/piggy_bank.sol\":2331:2348  erc721TokenIds[i] */\n      dup2\n      dup2\n      lt\n      tag_90\n      jumpi\n      tag_91\n      tag_63\n      jump\t// in\n    tag_91:\n    tag_90:\n      swap1\n      pop\n      0x20\n      mul\n      add\n      calldataload\n        /* \"piggy_bank/piggy_bank.sol\":2316:2349  erc721.ownerOf(erc721TokenIds[i]) */\n      mload(0x40)\n      dup3\n      0xffffffff\n      and\n      0xe0\n      shl\n      dup2\n      mstore\n      0x04\n      add\n      tag_92\n      swap2\n      swap1\n      tag_15\n      jump\t// in\n    tag_92:\n      0x20\n      mload(0x40)\n      dup1\n      dup4\n      sub\n      dup2\n      dup7\n      gas\n      staticcall\n      iszero\n      dup1\n      iszero\n      tag_94\n      jumpi\n      returndatasize\n      0x00\n      dup1\n      returndatacopy\n      revert(0x00, returndatasize)\n    tag_94:\n      pop\n      pop\n      pop\n      pop\n      mload(0x40)\n      returndatasize\n      not(0x1f)\n      0x1f\n      dup3\n      add\n      and\n      dup3\n      add\n      dup1\n      0x40\n      mstore\n      pop\n      dup2\n      add\n      swap1\n      tag_95\n      swap2\n      swap1\n      tag_96\n      jump\t// in\n    tag_95:\n        /* \"piggy_bank/piggy_bank.sol\":2316:2366  erc721.ownerOf(erc721TokenIds[i]) == address(this) */\n      0xffffffffffffffffffffffffffffffffffffffff\n      and\n      eq\n        /* \"piggy_bank/piggy_bank.sol\":2308:2389  require(erc721.ownerOf(erc721TokenIds[i]) == address(this), \"Not owner of token\") */\n      tag_97\n      jumpi\n      mload(0x40)\n      0x08c379a000000000000000000000000000000000000000000000000000000000\n      dup2\n      mstore\n      0x04\n      add\n      tag_98\n      swap1\n      tag_99\n      jump\t// in\n    tag_98:\n      mload(0x40)\n      dup1\n      swap2\n      sub\n      swap1\n      revert\n    tag_97:\n        /* \"piggy_bank/piggy_bank.sol\":2404:2410  erc721 */\n      dup1\n        /* \"piggy_bank/piggy_bank.sol\":2404:2423  erc721.transferFrom */\n      0xffffffffffffffffffffffffffffffffffffffff\n      and\n      0x23b872dd\n        /* \"piggy_bank/piggy_bank.sol\":2432:2436  this */\n      address\n        /* \"piggy_bank/piggy_bank.sol\":2439:2449  msg.sender */\n      caller\n        /* \"piggy_bank/piggy_bank.sol\":2451:2465  erc721TokenIds */\n      dup9\n      dup9\n        /* \"piggy_bank/piggy_bank.sol\":2466:2467  i */\n      dup8\n        /* \"piggy_bank/piggy_bank.sol\":2451:2468  erc721TokenIds[i] */\n      dup2\n      dup2\n      lt\n      tag_100\n      jumpi\n      tag_101\n      tag_63\n      jump\t// in\n    tag_101:\n    tag_100:\n      swap1\n      pop\n      0x20\n      mul\n      add\n      calldataload\n        /* \"piggy_bank/piggy_bank.sol\":2404:2469  erc721.transferFrom(address(this), msg.sender, erc721TokenIds[i]) */\n      mload(0x40)\n      dup5\n      0xffffffff\n      and\n      0xe0\n      shl\n      dup2\n      mstore\n      0x04\n      add\n      tag_102\n      swap4\n      swap3\n      swap2\n      swap1\n      tag_103\n      jump\t// in\n    tag_102:\n      0x00\n      mload(0x40)\n      dup1\n      dup4\n      sub\n      dup2\n      0x00\n      dup8\n      dup1\n      extcodesize\n      iszero\n      dup1\n      iszero\n      tag_104\n      jumpi\n      0x00\n      dup1\n      revert\n    tag_104:\n      pop\n      gas\n      call\n      iszero\n      dup1\n      iszero\n      tag_106\n      jumpi\n      returndatasize\n      0x00\n      dup1\n      returndatacopy\n      revert(0x00, returndatasize)\n    tag_106:\n      pop\n      pop\n      pop\n      pop\n        /* \"piggy_bank/piggy_bank.sol\":2489:2539  WithdrawERC721(erc721Tokens[i], erc721TokenIds[i]) */\n      0xcc7d0949892410da9ebd78d838ca9ba1601b557ad34c4a6cb4b492c5996bd8df\n        /* \"piggy_bank/piggy_bank.sol\":2504:2516  erc721Tokens */\n      dup8\n      dup8\n        /* \"piggy_bank/piggy_bank.sol\":2517:2518  i */\n      dup5\n        /* \"piggy_bank/piggy_bank.sol\":2504:2519  erc721Tokens[i] */\n      dup2\n      dup2\n      lt\n      tag_107\n      jumpi\n      tag_108\n      tag_63\n      jump\t// in\n    tag_108:\n    tag_107:\n      swap1\n      pop\n      0x20\n      mul\n      add\n      0x20\n      dup2\n      add\n      swap1\n      tag_109\n      swap2\n      swap1\n      tag_40\n      jump\t// in\n    tag_109:\n        /* \"piggy_bank/piggy_bank.sol\":2521:2535  erc721TokenIds */\n      dup7\n      dup7\n        /* \"piggy_bank/piggy_bank.sol\":2536:2537  i */\n      dup6\n        /* \"piggy_bank/piggy_bank.sol\":2521:2538  erc721TokenIds[i] */\n      dup2\n      dup2\n      lt\n      tag_110\n      jumpi\n      tag_111\n      tag_63\n      jump\t// in\n    tag_111:\n    tag_110:\n      swap1\n      pop\n      0x20\n      mul\n      add\n      calldataload\n        /* \"piggy_bank/piggy_bank.sol\":2489:2539  WithdrawERC721(erc721Tokens[i], erc721TokenIds[i]) */\n      mload(0x40)\n      tag_112\n      swap3\n      swap2\n      swap1\n      tag_72\n      jump\t// in\n    tag_112:\n      mload(0x40)\n      dup1\n      swap2\n      sub\n      swap1\n      log1\n        /* \"piggy_bank/piggy_bank.sol\":2237:2551  {... */\n      pop\n        /* \"piggy_bank/piggy_bank.sol\":2232:2235  i++ */\n      dup1\n      dup1\n      0x01\n      add\n      swap2\n      pop\n      pop\n        /* \"piggy_bank/piggy_bank.sol\":2190:2551  for (uint i = 0; i < erc721Tokens.length; i++) {... */\n      jump(tag_84)\n    tag_85:\n      pop\n        /* \"piggy_bank/piggy_bank.sol\":2574:2578  true */\n      0x01\n        /* \"piggy_bank/piggy_bank.sol\":2563:2571  disabled */\n      0x00\n      dup1\n        /* \"piggy_bank/piggy_bank.sol\":2563:2578  disabled = true */\n      0x0100\n      exp\n      dup2\n      sload\n      dup2\n      0xff\n      mul\n      not\n      and\n      swap1\n      dup4\n      iszero\n      iszero\n      mul\n      or\n      swap1\n      sstore\n      pop\n        /* \"piggy_bank/piggy_bank.sol\":2610:2620  msg.sender */\n      caller\n        /* \"piggy_bank/piggy_bank.sol\":2589:2622  selfdestruct(payable(msg.sender)) */\n      0xffffffffffffffffffffffffffffffffffffffff\n      and\n      selfdestruct\n        /* \"piggy_bank/piggy_bank.sol\":3038:3232  function isOwnerOfERC721(address token, uint256 tokenId) external view returns (bool) {... */\n    tag_25:\n        /* \"piggy_bank/piggy_bank.sol\":3118:3122  bool */\n      0x00\n        /* \"piggy_bank/piggy_bank.sol\":3135:3149  IERC721 erc721 */\n      dup1\n        /* \"piggy_bank/piggy_bank.sol\":3160:3165  token */\n      dup4\n        /* \"piggy_bank/piggy_bank.sol\":3135:3166  IERC721 erc721 = IERC721(token) */\n      swap1\n      pop\n        /* \"piggy_bank/piggy_bank.sol\":3219:3223  this */\n      address\n        /* \"piggy_bank/piggy_bank.sol\":3184:3224  erc721.ownerOf(tokenId) == address(this) */\n      0xffffffffffffffffffffffffffffffffffffffff\n      and\n        /* \"piggy_bank/piggy_bank.sol\":3184:3190  erc721 */\n      dup2\n        /* \"piggy_bank/piggy_bank.sol\":3184:3198  erc721.ownerOf */\n      0xffffffffffffffffffffffffffffffffffffffff\n      and\n      0x6352211e\n        /* \"piggy_bank/piggy_bank.sol\":3199:3206  tokenId */\n      dup6\n        /* \"piggy_bank/piggy_bank.sol\":3184:3207  erc721.ownerOf(tokenId) */\n      mload(0x40)\n      dup3\n      0xffffffff\n      and\n      0xe0\n      shl\n      dup2\n      mstore\n      0x04\n      add\n      tag_114\n      swap2\n      swap1\n      tag_15\n      jump\t// in\n    tag_114:\n      0x20\n      mload(0x40)\n      dup1\n      dup4\n      sub\n      dup2\n      dup7\n      gas\n      staticcall\n      iszero\n      dup1\n      iszero\n      tag_116\n      jumpi\n      returndatasize\n      0x00\n      dup1\n      returndatacopy\n      revert(0x00, returndatasize)\n    tag_116:\n      pop\n      pop\n      pop\n      pop\n      mload(0x40)\n      returndatasize\n      not(0x1f)\n      0x1f\n      dup3\n      add\n      and\n      dup3\n      add\n      dup1\n      0x40\n      mstore\n      pop\n      dup2\n      add\n      swap1\n      tag_117\n      swap2\n      swap1\n      tag_96\n      jump\t// in\n    tag_117:\n        /* \"piggy_bank/piggy_bank.sol\":3184:3224  erc721.ownerOf(tokenId) == address(this) */\n      0xffffffffffffffffffffffffffffffffffffffff\n      and\n      eq\n        /* \"piggy_bank/piggy_bank.sol\":3177:3224  return erc721.ownerOf(tokenId) == address(this) */\n      swap2\n      pop\n      pop\n        /* \"piggy_bank/piggy_bank.sol\":3038:3232  function isOwnerOfERC721(address token, uint256 tokenId) external view returns (bool) {... */\n      swap3\n      swap2\n      pop\n      pop\n      jump\t// out\n        /* \"piggy_bank/piggy_bank.sol\":463:493  address public immutable owner */\n    tag_30:\n      immutable(\"0x5bc0457d8881b800fd1bc0d6df907345b3bf287e43a5790ded3d08dbacf9c03a\")\n      dup2\n      jump\t// out\n        /* \"piggy_bank/piggy_bank.sol\":2668:2772  function getBalanceETH() external view returns (uint256) {... */\n    tag_35:\n        /* \"piggy_bank/piggy_bank.sol\":2716:2723  uint256 */\n      0x00\n        /* \"piggy_bank/piggy_bank.sol\":2743:2764  address(this).balance */\n      selfbalance\n        /* \"piggy_bank/piggy_bank.sol\":2736:2764  return address(this).balance */\n      swap1\n      pop\n        /* \"piggy_bank/piggy_bank.sol\":2668:2772  function getBalanceETH() external view returns (uint256) {... */\n      swap1\n      jump\t// out\n        /* \"piggy_bank/piggy_bank.sol\":2818:2985  function getBalanceERC20(address token) external view returns (uint256) {... */\n    tag_41:\n        /* \"piggy_bank/piggy_bank.sol\":2881:2888  uint256 */\n      0x00\n        /* \"piggy_bank/piggy_bank.sol\":2901:2913  IERC20 erc20 */\n      dup1\n        /* \"piggy_bank/piggy_bank.sol\":2923:2928  token */\n      dup3\n        /* \"piggy_bank/piggy_bank.sol\":2901:2929  IERC20 erc20 = IERC20(token) */\n      swap1\n      pop\n        /* \"piggy_bank/piggy_bank.sol\":2947:2952  erc20 */\n      dup1\n        /* \"piggy_bank/piggy_bank.sol\":2947:2962  erc20.balanceOf */\n      0xffffffffffffffffffffffffffffffffffffffff\n      and\n      0x70a08231\n        /* \"piggy_bank/piggy_bank.sol\":2971:2975  this */\n      address\n        /* \"piggy_bank/piggy_bank.sol\":2947:2977  erc20.balanceOf(address(this)) */\n      mload(0x40)\n      dup3\n      0xffffffff\n      and\n      0xe0\n      shl\n      dup2\n      mstore\n      0x04\n      add\n      tag_120\n      swap2\n      swap1\n      tag_32\n      jump\t// in\n    tag_120:\n      0x20\n      mload(0x40)\n      dup1\n      dup4\n      sub\n      dup2\n      dup7\n      gas\n      staticcall\n      iszero\n      dup1\n      iszero\n      tag_122\n      jumpi\n      returndatasize\n      0x00\n      dup1\n      returndatacopy\n      revert(0x00, returndatasize)\n    tag_122:\n      pop\n      pop\n      pop\n      pop\n      mload(0x40)\n      returndatasize\n      not(0x1f)\n      0x1f\n      dup3\n      add\n      and\n      dup3\n      add\n      dup1\n      0x40\n      mstore\n      pop\n      dup2\n      add\n      swap1\n      tag_123\n      swap2\n      swap1\n      tag_69\n      jump\t// in\n    tag_123:\n        /* \"piggy_bank/piggy_bank.sol\":2940:2977  return erc20.balanceOf(address(this)) */\n      swap2\n      pop\n      pop\n        /* \"piggy_bank/piggy_bank.sol\":2818:2985  function getBalanceERC20(address token) external view returns (uint256) {... */\n      swap2\n      swap1\n      pop\n      jump\t// out\n        /* \"#utility.yul\":7:176   */\n    tag_124:\n        /* \"#utility.yul\":91:102   */\n      0x00\n        /* \"#utility.yul\":125:131   */\n      dup3\n        /* \"#utility.yul\":120:123   */\n      dup3\n        /* \"#utility.yul\":113:132   */\n      mstore\n        /* \"#utility.yul\":165:169   */\n      0x20\n        /* \"#utility.yul\":160:163   */\n      dup3\n        /* \"#utility.yul\":156:170   */\n      add\n        /* \"#utility.yul\":141:170   */\n      swap1\n      pop\n        /* \"#utility.yul\":7:176   */\n      swap3\n      swap2\n      pop\n      pop\n      jump\t// out\n        /* \"#utility.yul\":182:352   */\n    tag_125:\n        /* \"#utility.yul\":322:344   */\n      0x436f6e74726163742069732064697361626c6564000000000000000000000000\n        /* \"#utility.yul\":318:319   */\n      0x00\n        /* \"#utility.yul\":310:316   */\n      dup3\n        /* \"#utility.yul\":306:320   */\n      add\n        /* \"#utility.yul\":299:345   */\n      mstore\n        /* \"#utility.yul\":182:352   */\n      pop\n      jump\t// out\n        /* \"#utility.yul\":358:724   */\n    tag_126:\n        /* \"#utility.yul\":500:503   */\n      0x00\n        /* \"#utility.yul\":521:588   */\n      tag_162\n        /* \"#utility.yul\":585:587   */\n      0x14\n        /* \"#utility.yul\":580:583   */\n      dup4\n        /* \"#utility.yul\":521:588   */\n      tag_124\n      jump\t// in\n    tag_162:\n        /* \"#utility.yul\":514:588   */\n      swap2\n      pop\n        /* \"#utility.yul\":597:690   */\n      tag_163\n        /* \"#utility.yul\":686:689   */\n      dup3\n        /* \"#utility.yul\":597:690   */\n      tag_125\n      jump\t// in\n    tag_163:\n        /* \"#utility.yul\":715:717   */\n      0x20\n        /* \"#utility.yul\":710:713   */\n      dup3\n        /* \"#utility.yul\":706:718   */\n      add\n        /* \"#utility.yul\":699:718   */\n      swap1\n      pop\n        /* \"#utility.yul\":358:724   */\n      swap2\n      swap1\n      pop\n      jump\t// out\n        /* \"#utility.yul\":730:1149   */\n    tag_12:\n        /* \"#utility.yul\":896:900   */\n      0x00\n        /* \"#utility.yul\":934:936   */\n      0x20\n        /* \"#utility.yul\":923:932   */\n      dup3\n        /* \"#utility.yul\":919:937   */\n      add\n        /* \"#utility.yul\":911:937   */\n      swap1\n      pop\n        /* \"#utility.yul\":983:992   */\n      dup2\n        /* \"#utility.yul\":977:981   */\n      dup2\n        /* \"#utility.yul\":973:993   */\n      sub\n        /* \"#utility.yul\":969:970   */\n      0x00\n        /* \"#utility.yul\":958:967   */\n      dup4\n        /* \"#utility.yul\":954:971   */\n      add\n        /* \"#utility.yul\":947:994   */\n      mstore\n        /* \"#utility.yul\":1011:1142   */\n      tag_165\n        /* \"#utility.yul\":1137:1141   */\n      dup2\n        /* \"#utility.yul\":1011:1142   */\n      tag_126\n      jump\t// in\n    tag_165:\n        /* \"#utility.yul\":1003:1142   */\n      swap1\n      pop\n        /* \"#utility.yul\":730:1149   */\n      swap2\n      swap1\n      pop\n      jump\t// out\n        /* \"#utility.yul\":1155:1232   */\n    tag_127:\n        /* \"#utility.yul\":1192:1199   */\n      0x00\n        /* \"#utility.yul\":1221:1226   */\n      dup2\n        /* \"#utility.yul\":1210:1226   */\n      swap1\n      pop\n        /* \"#utility.yul\":1155:1232   */\n      swap2\n      swap1\n      pop\n      jump\t// out\n        /* \"#utility.yul\":1238:1356   */\n    tag_128:\n        /* \"#utility.yul\":1325:1349   */\n      tag_168\n        /* \"#utility.yul\":1343:1348   */\n      dup2\n        /* \"#utility.yul\":1325:1349   */\n      tag_127\n      jump\t// in\n    tag_168:\n        /* \"#utility.yul\":1320:1323   */\n      dup3\n        /* \"#utility.yul\":1313:1350   */\n      mstore\n        /* \"#utility.yul\":1238:1356   */\n      pop\n      pop\n      jump\t// out\n        /* \"#utility.yul\":1362:1584   */\n    tag_15:\n        /* \"#utility.yul\":1455:1459   */\n      0x00\n        /* \"#utility.yul\":1493:1495   */\n      0x20\n        /* \"#utility.yul\":1482:1491   */\n      dup3\n        /* \"#utility.yul\":1478:1496   */\n      add\n        /* \"#utility.yul\":1470:1496   */\n      swap1\n      pop\n        /* \"#utility.yul\":1506:1577   */\n      tag_170\n        /* \"#utility.yul\":1574:1575   */\n      0x00\n        /* \"#utility.yul\":1563:1572   */\n      dup4\n        /* \"#utility.yul\":1559:1576   */\n      add\n        /* \"#utility.yul\":1550:1556   */\n      dup5\n        /* \"#utility.yul\":1506:1577   */\n      tag_128\n      jump\t// in\n    tag_170:\n        /* \"#utility.yul\":1362:1584   */\n      swap3\n      swap2\n      pop\n      pop\n      jump\t// out\n        /* \"#utility.yul\":1671:1788   */\n    tag_130:\n        /* \"#utility.yul\":1780:1781   */\n      0x00\n        /* \"#utility.yul\":1777:1778   */\n      dup1\n        /* \"#utility.yul\":1770:1782   */\n      revert\n        /* \"#utility.yul\":1794:1911   */\n    tag_131:\n        /* \"#utility.yul\":1903:1904   */\n      0x00\n        /* \"#utility.yul\":1900:1901   */\n      dup1\n        /* \"#utility.yul\":1893:1905   */\n      revert\n        /* \"#utility.yul\":1917:2034   */\n    tag_132:\n        /* \"#utility.yul\":2026:2027   */\n      0x00\n        /* \"#utility.yul\":2023:2024   */\n      dup1\n        /* \"#utility.yul\":2016:2028   */\n      revert\n        /* \"#utility.yul\":2040:2157   */\n    tag_133:\n        /* \"#utility.yul\":2149:2150   */\n      0x00\n        /* \"#utility.yul\":2146:2147   */\n      dup1\n        /* \"#utility.yul\":2139:2151   */\n      revert\n        /* \"#utility.yul\":2163:2280   */\n    tag_134:\n        /* \"#utility.yul\":2272:2273   */\n      0x00\n        /* \"#utility.yul\":2269:2270   */\n      dup1\n        /* \"#utility.yul\":2262:2274   */\n      revert\n        /* \"#utility.yul\":2303:2871   */\n    tag_135:\n        /* \"#utility.yul\":2376:2384   */\n      0x00\n        /* \"#utility.yul\":2386:2392   */\n      dup1\n        /* \"#utility.yul\":2436:2439   */\n      dup4\n        /* \"#utility.yul\":2429:2433   */\n      0x1f\n        /* \"#utility.yul\":2421:2427   */\n      dup5\n        /* \"#utility.yul\":2417:2434   */\n      add\n        /* \"#utility.yul\":2413:2440   */\n      slt\n        /* \"#utility.yul\":2403:2525   */\n      tag_178\n      jumpi\n        /* \"#utility.yul\":2444:2523   */\n      tag_179\n      tag_132\n      jump\t// in\n    tag_179:\n        /* \"#utility.yul\":2403:2525   */\n    tag_178:\n        /* \"#utility.yul\":2557:2563   */\n      dup3\n        /* \"#utility.yul\":2544:2564   */\n      calldataload\n        /* \"#utility.yul\":2534:2564   */\n      swap1\n      pop\n        /* \"#utility.yul\":2587:2605   */\n      0xffffffffffffffff\n        /* \"#utility.yul\":2579:2585   */\n      dup2\n        /* \"#utility.yul\":2576:2606   */\n      gt\n        /* \"#utility.yul\":2573:2690   */\n      iszero\n      tag_180\n      jumpi\n        /* \"#utility.yul\":2609:2688   */\n      tag_181\n      tag_133\n      jump\t// in\n    tag_181:\n        /* \"#utility.yul\":2573:2690   */\n    tag_180:\n        /* \"#utility.yul\":2723:2727   */\n      0x20\n        /* \"#utility.yul\":2715:2721   */\n      dup4\n        /* \"#utility.yul\":2711:2728   */\n      add\n        /* \"#utility.yul\":2699:2728   */\n      swap2\n      pop\n        /* \"#utility.yul\":2777:2780   */\n      dup4\n        /* \"#utility.yul\":2769:2773   */\n      0x20\n        /* \"#utility.yul\":2761:2767   */\n      dup3\n        /* \"#utility.yul\":2757:2774   */\n      mul\n        /* \"#utility.yul\":2747:2755   */\n      dup4\n        /* \"#utility.yul\":2743:2775   */\n      add\n        /* \"#utility.yul\":2740:2781   */\n      gt\n        /* \"#utility.yul\":2737:2865   */\n      iszero\n      tag_182\n      jumpi\n        /* \"#utility.yul\":2784:2863   */\n      tag_183\n      tag_134\n      jump\t// in\n    tag_183:\n        /* \"#utility.yul\":2737:2865   */\n    tag_182:\n        /* \"#utility.yul\":2303:2871   */\n      swap3\n      pop\n      swap3\n      swap1\n      pop\n      jump\t// out\n        /* \"#utility.yul\":2894:3462   */\n    tag_136:\n        /* \"#utility.yul\":2967:2975   */\n      0x00\n        /* \"#utility.yul\":2977:2983   */\n      dup1\n        /* \"#utility.yul\":3027:3030   */\n      dup4\n        /* \"#utility.yul\":3020:3024   */\n      0x1f\n        /* \"#utility.yul\":3012:3018   */\n      dup5\n        /* \"#utility.yul\":3008:3025   */\n      add\n        /* \"#utility.yul\":3004:3031   */\n      slt\n        /* \"#utility.yul\":2994:3116   */\n      tag_185\n      jumpi\n        /* \"#utility.yul\":3035:3114   */\n      tag_186\n      tag_132\n      jump\t// in\n    tag_186:\n        /* \"#utility.yul\":2994:3116   */\n    tag_185:\n        /* \"#utility.yul\":3148:3154   */\n      dup3\n        /* \"#utility.yul\":3135:3155   */\n      calldataload\n        /* \"#utility.yul\":3125:3155   */\n      swap1\n      pop\n        /* \"#utility.yul\":3178:3196   */\n      0xffffffffffffffff\n        /* \"#utility.yul\":3170:3176   */\n      dup2\n        /* \"#utility.yul\":3167:3197   */\n      gt\n        /* \"#utility.yul\":3164:3281   */\n      iszero\n      tag_187\n      jumpi\n        /* \"#utility.yul\":3200:3279   */\n      tag_188\n      tag_133\n      jump\t// in\n    tag_188:\n        /* \"#utility.yul\":3164:3281   */\n    tag_187:\n        /* \"#utility.yul\":3314:3318   */\n      0x20\n        /* \"#utility.yul\":3306:3312   */\n      dup4\n        /* \"#utility.yul\":3302:3319   */\n      add\n        /* \"#utility.yul\":3290:3319   */\n      swap2\n      pop\n        /* \"#utility.yul\":3368:3371   */\n      dup4\n        /* \"#utility.yul\":3360:3364   */\n      0x20\n        /* \"#utility.yul\":3352:3358   */\n      dup3\n        /* \"#utility.yul\":3348:3365   */\n      mul\n        /* \"#utility.yul\":3338:3346   */\n      dup4\n        /* \"#utility.yul\":3334:3366   */\n      add\n        /* \"#utility.yul\":3331:3372   */\n      gt\n        /* \"#utility.yul\":3328:3456   */\n      iszero\n      tag_189\n      jumpi\n        /* \"#utility.yul\":3375:3454   */\n      tag_190\n      tag_134\n      jump\t// in\n    tag_190:\n        /* \"#utility.yul\":3328:3456   */\n    tag_189:\n        /* \"#utility.yul\":2894:3462   */\n      swap3\n      pop\n      swap3\n      swap1\n      pop\n      jump\t// out\n        /* \"#utility.yul\":3468:4777   */\n    tag_19:\n        /* \"#utility.yul\":3626:3632   */\n      0x00\n        /* \"#utility.yul\":3634:3640   */\n      dup1\n        /* \"#utility.yul\":3642:3648   */\n      0x00\n        /* \"#utility.yul\":3650:3656   */\n      dup1\n        /* \"#utility.yul\":3658:3664   */\n      0x00\n        /* \"#utility.yul\":3666:3672   */\n      dup1\n        /* \"#utility.yul\":3715:3717   */\n      0x60\n        /* \"#utility.yul\":3703:3712   */\n      dup8\n        /* \"#utility.yul\":3694:3701   */\n      dup10\n        /* \"#utility.yul\":3690:3713   */\n      sub\n        /* \"#utility.yul\":3686:3718   */\n      slt\n        /* \"#utility.yul\":3683:3802   */\n      iszero\n      tag_192\n      jumpi\n        /* \"#utility.yul\":3721:3800   */\n      tag_193\n      tag_130\n      jump\t// in\n    tag_193:\n        /* \"#utility.yul\":3683:3802   */\n    tag_192:\n        /* \"#utility.yul\":3869:3870   */\n      0x00\n        /* \"#utility.yul\":3858:3867   */\n      dup8\n        /* \"#utility.yul\":3854:3871   */\n      add\n        /* \"#utility.yul\":3841:3872   */\n      calldataload\n        /* \"#utility.yul\":3899:3917   */\n      0xffffffffffffffff\n        /* \"#utility.yul\":3891:3897   */\n      dup2\n        /* \"#utility.yul\":3888:3918   */\n      gt\n        /* \"#utility.yul\":3885:4002   */\n      iszero\n      tag_194\n      jumpi\n        /* \"#utility.yul\":3921:4000   */\n      tag_195\n      tag_131\n      jump\t// in\n    tag_195:\n        /* \"#utility.yul\":3885:4002   */\n    tag_194:\n        /* \"#utility.yul\":4034:4114   */\n      tag_196\n        /* \"#utility.yul\":4106:4113   */\n      dup10\n        /* \"#utility.yul\":4097:4103   */\n      dup3\n        /* \"#utility.yul\":4086:4095   */\n      dup11\n        /* \"#utility.yul\":4082:4104   */\n      add\n        /* \"#utility.yul\":4034:4114   */\n      tag_135\n      jump\t// in\n    tag_196:\n        /* \"#utility.yul\":4016:4114   */\n      swap7\n      pop\n      swap7\n      pop\n        /* \"#utility.yul\":3812:4124   */\n      pop\n        /* \"#utility.yul\":4191:4193   */\n      0x20\n        /* \"#utility.yul\":4180:4189   */\n      dup8\n        /* \"#utility.yul\":4176:4194   */\n      add\n        /* \"#utility.yul\":4163:4195   */\n      calldataload\n        /* \"#utility.yul\":4222:4240   */\n      0xffffffffffffffff\n        /* \"#utility.yul\":4214:4220   */\n      dup2\n        /* \"#utility.yul\":4211:4241   */\n      gt\n        /* \"#utility.yul\":4208:4325   */\n      iszero\n      tag_197\n      jumpi\n        /* \"#utility.yul\":4244:4323   */\n      tag_198\n      tag_131\n      jump\t// in\n    tag_198:\n        /* \"#utility.yul\":4208:4325   */\n    tag_197:\n        /* \"#utility.yul\":4357:4437   */\n      tag_199\n        /* \"#utility.yul\":4429:4436   */\n      dup10\n        /* \"#utility.yul\":4420:4426   */\n      dup3\n        /* \"#utility.yul\":4409:4418   */\n      dup11\n        /* \"#utility.yul\":4405:4427   */\n      add\n        /* \"#utility.yul\":4357:4437   */\n      tag_135\n      jump\t// in\n    tag_199:\n        /* \"#utility.yul\":4339:4437   */\n      swap5\n      pop\n      swap5\n      pop\n        /* \"#utility.yul\":4134:4447   */\n      pop\n        /* \"#utility.yul\":4514:4516   */\n      0x40\n        /* \"#utility.yul\":4503:4512   */\n      dup8\n        /* \"#utility.yul\":4499:4517   */\n      add\n        /* \"#utility.yul\":4486:4518   */\n      calldataload\n        /* \"#utility.yul\":4545:4563   */\n      0xffffffffffffffff\n        /* \"#utility.yul\":4537:4543   */\n      dup2\n        /* \"#utility.yul\":4534:4564   */\n      gt\n        /* \"#utility.yul\":4531:4648   */\n      iszero\n      tag_200\n      jumpi\n        /* \"#utility.yul\":4567:4646   */\n      tag_201\n      tag_131\n      jump\t// in\n    tag_201:\n        /* \"#utility.yul\":4531:4648   */\n    tag_200:\n        /* \"#utility.yul\":4680:4760   */\n      tag_202\n        /* \"#utility.yul\":4752:4759   */\n      dup10\n        /* \"#utility.yul\":4743:4749   */\n      dup3\n        /* \"#utility.yul\":4732:4741   */\n      dup11\n        /* \"#utility.yul\":4728:4750   */\n      add\n        /* \"#utility.yul\":4680:4760   */\n      tag_136\n      jump\t// in\n    tag_202:\n        /* \"#utility.yul\":4662:4760   */\n      swap3\n      pop\n      swap3\n      pop\n        /* \"#utility.yul\":4457:4770   */\n      pop\n        /* \"#utility.yul\":3468:4777   */\n      swap3\n      swap6\n      pop\n      swap3\n      swap6\n      pop\n      swap3\n      swap6\n      jump\t// out\n        /* \"#utility.yul\":4783:4909   */\n    tag_137:\n        /* \"#utility.yul\":4820:4827   */\n      0x00\n        /* \"#utility.yul\":4860:4902   */\n      0xffffffffffffffffffffffffffffffffffffffff\n        /* \"#utility.yul\":4853:4858   */\n      dup3\n        /* \"#utility.yul\":4849:4903   */\n      and\n        /* \"#utility.yul\":4838:4903   */\n      swap1\n      pop\n        /* \"#utility.yul\":4783:4909   */\n      swap2\n      swap1\n      pop\n      jump\t// out\n        /* \"#utility.yul\":4915:5011   */\n    tag_138:\n        /* \"#utility.yul\":4952:4959   */\n      0x00\n        /* \"#utility.yul\":4981:5005   */\n      tag_205\n        /* \"#utility.yul\":4999:5004   */\n      dup3\n        /* \"#utility.yul\":4981:5005   */\n      tag_137\n      jump\t// in\n    tag_205:\n        /* \"#utility.yul\":4970:5005   */\n      swap1\n      pop\n        /* \"#utility.yul\":4915:5011   */\n      swap2\n      swap1\n      pop\n      jump\t// out\n        /* \"#utility.yul\":5017:5139   */\n    tag_139:\n        /* \"#utility.yul\":5090:5114   */\n      tag_207\n        /* \"#utility.yul\":5108:5113   */\n      dup2\n        /* \"#utility.yul\":5090:5114   */\n      tag_138\n      jump\t// in\n    tag_207:\n        /* \"#utility.yul\":5083:5088   */\n      dup2\n        /* \"#utility.yul\":5080:5115   */\n      eq\n        /* \"#utility.yul\":5070:5133   */\n      tag_208\n      jumpi\n        /* \"#utility.yul\":5129:5130   */\n      0x00\n        /* \"#utility.yul\":5126:5127   */\n      dup1\n        /* \"#utility.yul\":5119:5131   */\n      revert\n        /* \"#utility.yul\":5070:5133   */\n    tag_208:\n        /* \"#utility.yul\":5017:5139   */\n      pop\n      jump\t// out\n        /* \"#utility.yul\":5145:5284   */\n    tag_140:\n        /* \"#utility.yul\":5191:5196   */\n      0x00\n        /* \"#utility.yul\":5229:5235   */\n      dup2\n        /* \"#utility.yul\":5216:5236   */\n      calldataload\n        /* \"#utility.yul\":5207:5236   */\n      swap1\n      pop\n        /* \"#utility.yul\":5245:5278   */\n      tag_210\n        /* \"#utility.yul\":5272:5277   */\n      dup2\n        /* \"#utility.yul\":5245:5278   */\n      tag_139\n      jump\t// in\n    tag_210:\n        /* \"#utility.yul\":5145:5284   */\n      swap3\n      swap2\n      pop\n      pop\n      jump\t// out\n        /* \"#utility.yul\":5290:5412   */\n    tag_141:\n        /* \"#utility.yul\":5363:5387   */\n      tag_212\n        /* \"#utility.yul\":5381:5386   */\n      dup2\n        /* \"#utility.yul\":5363:5387   */\n      tag_127\n      jump\t// in\n    tag_212:\n        /* \"#utility.yul\":5356:5361   */\n      dup2\n        /* \"#utility.yul\":5353:5388   */\n      eq\n        /* \"#utility.yul\":5343:5406   */\n      tag_213\n      jumpi\n        /* \"#utility.yul\":5402:5403   */\n      0x00\n        /* \"#utility.yul\":5399:5400   */\n      dup1\n        /* \"#utility.yul\":5392:5404   */\n      revert\n        /* \"#utility.yul\":5343:5406   */\n    tag_213:\n        /* \"#utility.yul\":5290:5412   */\n      pop\n      jump\t// out\n        /* \"#utility.yul\":5418:5557   */\n    tag_142:\n        /* \"#utility.yul\":5464:5469   */\n      0x00\n        /* \"#utility.yul\":5502:5508   */\n      dup2\n        /* \"#utility.yul\":5489:5509   */\n      calldataload\n        /* \"#utility.yul\":5480:5509   */\n      swap1\n      pop\n        /* \"#utility.yul\":5518:5551   */\n      tag_215\n        /* \"#utility.yul\":5545:5550   */\n      dup2\n        /* \"#utility.yul\":5518:5551   */\n      tag_141\n      jump\t// in\n    tag_215:\n        /* \"#utility.yul\":5418:5557   */\n      swap3\n      swap2\n      pop\n      pop\n      jump\t// out\n        /* \"#utility.yul\":5563:6037   */\n    tag_24:\n        /* \"#utility.yul\":5631:5637   */\n      0x00\n        /* \"#utility.yul\":5639:5645   */\n      dup1\n        /* \"#utility.yul\":5688:5690   */\n      0x40\n        /* \"#utility.yul\":5676:5685   */\n      dup4\n        /* \"#utility.yul\":5667:5674   */\n      dup6\n        /* \"#utility.yul\":5663:5686   */\n      sub\n        /* \"#utility.yul\":5659:5691   */\n      slt\n        /* \"#utility.yul\":5656:5775   */\n      iszero\n      tag_217\n      jumpi\n        /* \"#utility.yul\":5694:5773   */\n      tag_218\n      tag_130\n      jump\t// in\n    tag_218:\n        /* \"#utility.yul\":5656:5775   */\n    tag_217:\n        /* \"#utility.yul\":5814:5815   */\n      0x00\n        /* \"#utility.yul\":5839:5892   */\n      tag_219\n        /* \"#utility.yul\":5884:5891   */\n      dup6\n        /* \"#utility.yul\":5875:5881   */\n      dup3\n        /* \"#utility.yul\":5864:5873   */\n      dup7\n        /* \"#utility.yul\":5860:5882   */\n      add\n        /* \"#utility.yul\":5839:5892   */\n      tag_140\n      jump\t// in\n    tag_219:\n        /* \"#utility.yul\":5829:5892   */\n      swap3\n      pop\n        /* \"#utility.yul\":5785:5902   */\n      pop\n        /* \"#utility.yul\":5941:5943   */\n      0x20\n        /* \"#utility.yul\":5967:6020   */\n      tag_220\n        /* \"#utility.yul\":6012:6019   */\n      dup6\n        /* \"#utility.yul\":6003:6009   */\n      dup3\n        /* \"#utility.yul\":5992:6001   */\n      dup7\n        /* \"#utility.yul\":5988:6010   */\n      add\n        /* \"#utility.yul\":5967:6020   */\n      tag_142\n      jump\t// in\n    tag_220:\n        /* \"#utility.yul\":5957:6020   */\n      swap2\n      pop\n        /* \"#utility.yul\":5912:6030   */\n      pop\n        /* \"#utility.yul\":5563:6037   */\n      swap3\n      pop\n      swap3\n      swap1\n      pop\n      jump\t// out\n        /* \"#utility.yul\":6043:6133   */\n    tag_143:\n        /* \"#utility.yul\":6077:6084   */\n      0x00\n        /* \"#utility.yul\":6120:6125   */\n      dup2\n        /* \"#utility.yul\":6113:6126   */\n      iszero\n        /* \"#utility.yul\":6106:6127   */\n      iszero\n        /* \"#utility.yul\":6095:6127   */\n      swap1\n      pop\n        /* \"#utility.yul\":6043:6133   */\n      swap2\n      swap1\n      pop\n      jump\t// out\n        /* \"#utility.yul\":6139:6248   */\n    tag_144:\n        /* \"#utility.yul\":6220:6241   */\n      tag_223\n        /* \"#utility.yul\":6235:6240   */\n      dup2\n        /* \"#utility.yul\":6220:6241   */\n      tag_143\n      jump\t// in\n    tag_223:\n        /* \"#utility.yul\":6215:6218   */\n      dup3\n        /* \"#utility.yul\":6208:6242   */\n      mstore\n        /* \"#utility.yul\":6139:6248   */\n      pop\n      pop\n      jump\t// out\n        /* \"#utility.yul\":6254:6464   */\n    tag_27:\n        /* \"#utility.yul\":6341:6345   */\n      0x00\n        /* \"#utility.yul\":6379:6381   */\n      0x20\n        /* \"#utility.yul\":6368:6377   */\n      dup3\n        /* \"#utility.yul\":6364:6382   */\n      add\n        /* \"#utility.yul\":6356:6382   */\n      swap1\n      pop\n        /* \"#utility.yul\":6392:6457   */\n      tag_225\n        /* \"#utility.yul\":6454:6455   */\n      0x00\n        /* \"#utility.yul\":6443:6452   */\n      dup4\n        /* \"#utility.yul\":6439:6456   */\n      add\n        /* \"#utility.yul\":6430:6436   */\n      dup5\n        /* \"#utility.yul\":6392:6457   */\n      tag_144\n      jump\t// in\n    tag_225:\n        /* \"#utility.yul\":6254:6464   */\n      swap3\n      swap2\n      pop\n      pop\n      jump\t// out\n        /* \"#utility.yul\":6470:6588   */\n    tag_145:\n        /* \"#utility.yul\":6557:6581   */\n      tag_227\n        /* \"#utility.yul\":6575:6580   */\n      dup2\n        /* \"#utility.yul\":6557:6581   */\n      tag_138\n      jump\t// in\n    tag_227:\n        /* \"#utility.yul\":6552:6555   */\n      dup3\n        /* \"#utility.yul\":6545:6582   */\n      mstore\n        /* \"#utility.yul\":6470:6588   */\n      pop\n      pop\n      jump\t// out\n        /* \"#utility.yul\":6594:6816   */\n    tag_32:\n        /* \"#utility.yul\":6687:6691   */\n      0x00\n        /* \"#utility.yul\":6725:6727   */\n      0x20\n        /* \"#utility.yul\":6714:6723   */\n      dup3\n        /* \"#utility.yul\":6710:6728   */\n      add\n        /* \"#utility.yul\":6702:6728   */\n      swap1\n      pop\n        /* \"#utility.yul\":6738:6809   */\n      tag_229\n        /* \"#utility.yul\":6806:6807   */\n      0x00\n        /* \"#utility.yul\":6795:6804   */\n      dup4\n        /* \"#utility.yul\":6791:6808   */\n      add\n        /* \"#utility.yul\":6782:6788   */\n      dup5\n        /* \"#utility.yul\":6738:6809   */\n      tag_145\n      jump\t// in\n    tag_229:\n        /* \"#utility.yul\":6594:6816   */\n      swap3\n      swap2\n      pop\n      pop\n      jump\t// out\n        /* \"#utility.yul\":6822:7151   */\n    tag_40:\n        /* \"#utility.yul\":6881:6887   */\n      0x00\n        /* \"#utility.yul\":6930:6932   */\n      0x20\n        /* \"#utility.yul\":6918:6927   */\n      dup3\n        /* \"#utility.yul\":6909:6916   */\n      dup5\n        /* \"#utility.yul\":6905:6928   */\n      sub\n        /* \"#utility.yul\":6901:6933   */\n      slt\n        /* \"#utility.yul\":6898:7017   */\n      iszero\n      tag_231\n      jumpi\n        /* \"#utility.yul\":6936:7015   */\n      tag_232\n      tag_130\n      jump\t// in\n    tag_232:\n        /* \"#utility.yul\":6898:7017   */\n    tag_231:\n        /* \"#utility.yul\":7056:7057   */\n      0x00\n        /* \"#utility.yul\":7081:7134   */\n      tag_233\n        /* \"#utility.yul\":7126:7133   */\n      dup5\n        /* \"#utility.yul\":7117:7123   */\n      dup3\n        /* \"#utility.yul\":7106:7115   */\n      dup6\n        /* \"#utility.yul\":7102:7124   */\n      add\n        /* \"#utility.yul\":7081:7134   */\n      tag_140\n      jump\t// in\n    tag_233:\n        /* \"#utility.yul\":7071:7134   */\n      swap2\n      pop\n        /* \"#utility.yul\":7027:7144   */\n      pop\n        /* \"#utility.yul\":6822:7151   */\n      swap3\n      swap2\n      pop\n      pop\n      jump\t// out\n        /* \"#utility.yul\":7157:7316   */\n    tag_146:\n        /* \"#utility.yul\":7297:7308   */\n      0x4e6f74204f776e65720000000000000000000000000000000000000000000000\n        /* \"#utility.yul\":7293:7294   */\n      0x00\n        /* \"#utility.yul\":7285:7291   */\n      dup3\n        /* \"#utility.yul\":7281:7295   */\n      add\n        /* \"#utility.yul\":7274:7309   */\n      mstore\n        /* \"#utility.yul\":7157:7316   */\n      pop\n      jump\t// out\n        /* \"#utility.yul\":7322:7687   */\n    tag_147:\n        /* \"#utility.yul\":7464:7467   */\n      0x00\n        /* \"#utility.yul\":7485:7551   */\n      tag_236\n        /* \"#utility.yul\":7549:7550   */\n      0x09\n        /* \"#utility.yul\":7544:7547   */\n      dup4\n        /* \"#utility.yul\":7485:7551   */\n      tag_124\n      jump\t// in\n    tag_236:\n        /* \"#utility.yul\":7478:7551   */\n      swap2\n      pop\n        /* \"#utility.yul\":7560:7653   */\n      tag_237\n        /* \"#utility.yul\":7649:7652   */\n      dup3\n        /* \"#utility.yul\":7560:7653   */\n      tag_146\n      jump\t// in\n    tag_237:\n        /* \"#utility.yul\":7678:7680   */\n      0x20\n        /* \"#utility.yul\":7673:7676   */\n      dup3\n        /* \"#utility.yul\":7669:7681   */\n      add\n        /* \"#utility.yul\":7662:7681   */\n      swap1\n      pop\n        /* \"#utility.yul\":7322:7687   */\n      swap2\n      swap1\n      pop\n      jump\t// out\n        /* \"#utility.yul\":7693:8112   */\n    tag_46:\n        /* \"#utility.yul\":7859:7863   */\n      0x00\n        /* \"#utility.yul\":7897:7899   */\n      0x20\n        /* \"#utility.yul\":7886:7895   */\n      dup3\n        /* \"#utility.yul\":7882:7900   */\n      add\n        /* \"#utility.yul\":7874:7900   */\n      swap1\n      pop\n        /* \"#utility.yul\":7946:7955   */\n      dup2\n        /* \"#utility.yul\":7940:7944   */\n      dup2\n        /* \"#utility.yul\":7936:7956   */\n      sub\n        /* \"#utility.yul\":7932:7933   */\n      0x00\n        /* \"#utility.yul\":7921:7930   */\n      dup4\n        /* \"#utility.yul\":7917:7934   */\n      add\n        /* \"#utility.yul\":7910:7957   */\n      mstore\n        /* \"#utility.yul\":7974:8105   */\n      tag_239\n        /* \"#utility.yul\":8100:8104   */\n      dup2\n        /* \"#utility.yul\":7974:8105   */\n      tag_147\n      jump\t// in\n    tag_239:\n        /* \"#utility.yul\":7966:8105   */\n      swap1\n      pop\n        /* \"#utility.yul\":7693:8112   */\n      swap2\n      swap1\n      pop\n      jump\t// out\n        /* \"#utility.yul\":8118:8342   */\n    tag_148:\n        /* \"#utility.yul\":8258:8292   */\n      0x45524337323120746f6b656e7320616e6420494473206c656e677468206d6973\n        /* \"#utility.yul\":8254:8255   */\n      0x00\n        /* \"#utility.yul\":8246:8252   */\n      dup3\n        /* \"#utility.yul\":8242:8256   */\n      add\n        /* \"#utility.yul\":8235:8293   */\n      mstore\n        /* \"#utility.yul\":8327:8334   */\n      0x6d61746368000000000000000000000000000000000000000000000000000000\n        /* \"#utility.yul\":8322:8324   */\n      0x20\n        /* \"#utility.yul\":8314:8320   */\n      dup3\n        /* \"#utility.yul\":8310:8325   */\n      add\n        /* \"#utility.yul\":8303:8335   */\n      mstore\n        /* \"#utility.yul\":8118:8342   */\n      pop\n      jump\t// out\n        /* \"#utility.yul\":8348:8714   */\n    tag_149:\n        /* \"#utility.yul\":8490:8493   */\n      0x00\n        /* \"#utility.yul\":8511:8578   */\n      tag_242\n        /* \"#utility.yul\":8575:8577   */\n      0x25\n        /* \"#utility.yul\":8570:8573   */\n      dup4\n        /* \"#utility.yul\":8511:8578   */\n      tag_124\n      jump\t// in\n    tag_242:\n        /* \"#utility.yul\":8504:8578   */\n      swap2\n      pop\n        /* \"#utility.yul\":8587:8680   */\n      tag_243\n        /* \"#utility.yul\":8676:8679   */\n      dup3\n        /* \"#utility.yul\":8587:8680   */\n      tag_148\n      jump\t// in\n    tag_243:\n        /* \"#utility.yul\":8705:8707   */\n      0x40\n        /* \"#utility.yul\":8700:8703   */\n      dup3\n        /* \"#utility.yul\":8696:8708   */\n      add\n        /* \"#utility.yul\":8689:8708   */\n      swap1\n      pop\n        /* \"#utility.yul\":8348:8714   */\n      swap2\n      swap1\n      pop\n      jump\t// out\n        /* \"#utility.yul\":8720:9139   */\n    tag_53:\n        /* \"#utility.yul\":8886:8890   */\n      0x00\n        /* \"#utility.yul\":8924:8926   */\n      0x20\n        /* \"#utility.yul\":8913:8922   */\n      dup3\n        /* \"#utility.yul\":8909:8927   */\n      add\n        /* \"#utility.yul\":8901:8927   */\n      swap1\n      pop\n        /* \"#utility.yul\":8973:8982   */\n      dup2\n        /* \"#utility.yul\":8967:8971   */\n      dup2\n        /* \"#utility.yul\":8963:8983   */\n      sub\n        /* \"#utility.yul\":8959:8960   */\n      0x00\n        /* \"#utility.yul\":8948:8957   */\n      dup4\n        /* \"#utility.yul\":8944:8961   */\n      add\n        /* \"#utility.yul\":8937:8984   */\n      mstore\n        /* \"#utility.yul\":9001:9132   */\n      tag_245\n        /* \"#utility.yul\":9127:9131   */\n      dup2\n        /* \"#utility.yul\":9001:9132   */\n      tag_149\n      jump\t// in\n    tag_245:\n        /* \"#utility.yul\":8993:9132   */\n      swap1\n      pop\n        /* \"#utility.yul\":8720:9139   */\n      swap2\n      swap1\n      pop\n      jump\t// out\n        /* \"#utility.yul\":9145:9325   */\n    tag_63:\n        /* \"#utility.yul\":9193:9270   */\n      0x4e487b7100000000000000000000000000000000000000000000000000000000\n        /* \"#utility.yul\":9190:9191   */\n      0x00\n        /* \"#utility.yul\":9183:9271   */\n      mstore\n        /* \"#utility.yul\":9290:9294   */\n      0x32\n        /* \"#utility.yul\":9287:9288   */\n      0x04\n        /* \"#utility.yul\":9280:9295   */\n      mstore\n        /* \"#utility.yul\":9314:9318   */\n      0x24\n        /* \"#utility.yul\":9311:9312   */\n      0x00\n        /* \"#utility.yul\":9304:9319   */\n      revert\n        /* \"#utility.yul\":9331:9474   */\n    tag_150:\n        /* \"#utility.yul\":9388:9393   */\n      0x00\n        /* \"#utility.yul\":9419:9425   */\n      dup2\n        /* \"#utility.yul\":9413:9426   */\n      mload\n        /* \"#utility.yul\":9404:9426   */\n      swap1\n      pop\n        /* \"#utility.yul\":9435:9468   */\n      tag_248\n        /* \"#utility.yul\":9462:9467   */\n      dup2\n        /* \"#utility.yul\":9435:9468   */\n      tag_141\n      jump\t// in\n    tag_248:\n        /* \"#utility.yul\":9331:9474   */\n      swap3\n      swap2\n      pop\n      pop\n      jump\t// out\n        /* \"#utility.yul\":9480:9831   */\n    tag_69:\n        /* \"#utility.yul\":9550:9556   */\n      0x00\n        /* \"#utility.yul\":9599:9601   */\n      0x20\n        /* \"#utility.yul\":9587:9596   */\n      dup3\n        /* \"#utility.yul\":9578:9585   */\n      dup5\n        /* \"#utility.yul\":9574:9597   */\n      sub\n        /* \"#utility.yul\":9570:9602   */\n      slt\n        /* \"#utility.yul\":9567:9686   */\n      iszero\n      tag_250\n      jumpi\n        /* \"#utility.yul\":9605:9684   */\n      tag_251\n      tag_130\n      jump\t// in\n    tag_251:\n        /* \"#utility.yul\":9567:9686   */\n    tag_250:\n        /* \"#utility.yul\":9725:9726   */\n      0x00\n        /* \"#utility.yul\":9750:9814   */\n      tag_252\n        /* \"#utility.yul\":9806:9813   */\n      dup5\n        /* \"#utility.yul\":9797:9803   */\n      dup3\n        /* \"#utility.yul\":9786:9795   */\n      dup6\n        /* \"#utility.yul\":9782:9804   */\n      add\n        /* \"#utility.yul\":9750:9814   */\n      tag_150\n      jump\t// in\n    tag_252:\n        /* \"#utility.yul\":9740:9814   */\n      swap2\n      pop\n        /* \"#utility.yul\":9696:9824   */\n      pop\n        /* \"#utility.yul\":9480:9831   */\n      swap3\n      swap2\n      pop\n      pop\n      jump\t// out\n        /* \"#utility.yul\":9837:10169   */\n    tag_72:\n        /* \"#utility.yul\":9958:9962   */\n      0x00\n        /* \"#utility.yul\":9996:9998   */\n      0x40\n        /* \"#utility.yul\":9985:9994   */\n      dup3\n        /* \"#utility.yul\":9981:9999   */\n      add\n        /* \"#utility.yul\":9973:9999   */\n      swap1\n      pop\n        /* \"#utility.yul\":10009:10080   */\n      tag_254\n        /* \"#utility.yul\":10077:10078   */\n      0x00\n        /* \"#utility.yul\":10066:10075   */\n      dup4\n        /* \"#utility.yul\":10062:10079   */\n      add\n        /* \"#utility.yul\":10053:10059   */\n      dup6\n        /* \"#utility.yul\":10009:10080   */\n      tag_145\n      jump\t// in\n    tag_254:\n        /* \"#utility.yul\":10090:10162   */\n      tag_255\n        /* \"#utility.yul\":10158:10160   */\n      0x20\n        /* \"#utility.yul\":10147:10156   */\n      dup4\n        /* \"#utility.yul\":10143:10161   */\n      add\n        /* \"#utility.yul\":10134:10140   */\n      dup5\n        /* \"#utility.yul\":10090:10162   */\n      tag_128\n      jump\t// in\n    tag_255:\n        /* \"#utility.yul\":9837:10169   */\n      swap4\n      swap3\n      pop\n      pop\n      pop\n      jump\t// out\n        /* \"#utility.yul\":10175:10291   */\n    tag_151:\n        /* \"#utility.yul\":10245:10266   */\n      tag_257\n        /* \"#utility.yul\":10260:10265   */\n      dup2\n        /* \"#utility.yul\":10245:10266   */\n      tag_143\n      jump\t// in\n    tag_257:\n        /* \"#utility.yul\":10238:10243   */\n      dup2\n        /* \"#utility.yul\":10235:10267   */\n      eq\n        /* \"#utility.yul\":10225:10285   */\n      tag_258\n      jumpi\n        /* \"#utility.yul\":10281:10282   */\n      0x00\n        /* \"#utility.yul\":10278:10279   */\n      dup1\n        /* \"#utility.yul\":10271:10283   */\n      revert\n        /* \"#utility.yul\":10225:10285   */\n    tag_258:\n        /* \"#utility.yul\":10175:10291   */\n      pop\n      jump\t// out\n        /* \"#utility.yul\":10297:10434   */\n    tag_152:\n        /* \"#utility.yul\":10351:10356   */\n      0x00\n        /* \"#utility.yul\":10382:10388   */\n      dup2\n        /* \"#utility.yul\":10376:10389   */\n      mload\n        /* \"#utility.yul\":10367:10389   */\n      swap1\n      pop\n        /* \"#utility.yul\":10398:10428   */\n      tag_260\n        /* \"#utility.yul\":10422:10427   */\n      dup2\n        /* \"#utility.yul\":10398:10428   */\n      tag_151\n      jump\t// in\n    tag_260:\n        /* \"#utility.yul\":10297:10434   */\n      swap3\n      swap2\n      pop\n      pop\n      jump\t// out\n        /* \"#utility.yul\":10440:10785   */\n    tag_76:\n        /* \"#utility.yul\":10507:10513   */\n      0x00\n        /* \"#utility.yul\":10556:10558   */\n      0x20\n        /* \"#utility.yul\":10544:10553   */\n      dup3\n        /* \"#utility.yul\":10535:10542   */\n      dup5\n        /* \"#utility.yul\":10531:10554   */\n      sub\n        /* \"#utility.yul\":10527:10559   */\n      slt\n        /* \"#utility.yul\":10524:10643   */\n      iszero\n      tag_262\n      jumpi\n        /* \"#utility.yul\":10562:10641   */\n      tag_263\n      tag_130\n      jump\t// in\n    tag_263:\n        /* \"#utility.yul\":10524:10643   */\n    tag_262:\n        /* \"#utility.yul\":10682:10683   */\n      0x00\n        /* \"#utility.yul\":10707:10768   */\n      tag_264\n        /* \"#utility.yul\":10760:10767   */\n      dup5\n        /* \"#utility.yul\":10751:10757   */\n      dup3\n        /* \"#utility.yul\":10740:10749   */\n      dup6\n        /* \"#utility.yul\":10736:10758   */\n      add\n        /* \"#utility.yul\":10707:10768   */\n      tag_152\n      jump\t// in\n    tag_264:\n        /* \"#utility.yul\":10697:10768   */\n      swap2\n      pop\n        /* \"#utility.yul\":10653:10778   */\n      pop\n        /* \"#utility.yul\":10440:10785   */\n      swap3\n      swap2\n      pop\n      pop\n      jump\t// out\n        /* \"#utility.yul\":10791:10956   */\n    tag_153:\n        /* \"#utility.yul\":10931:10948   */\n      0x5472616e73666572206661696c65640000000000000000000000000000000000\n        /* \"#utility.yul\":10927:10928   */\n      0x00\n        /* \"#utility.yul\":10919:10925   */\n      dup3\n        /* \"#utility.yul\":10915:10929   */\n      add\n        /* \"#utility.yul\":10908:10949   */\n      mstore\n        /* \"#utility.yul\":10791:10956   */\n      pop\n      jump\t// out\n        /* \"#utility.yul\":10962:11328   */\n    tag_154:\n        /* \"#utility.yul\":11104:11107   */\n      0x00\n        /* \"#utility.yul\":11125:11192   */\n      tag_267\n        /* \"#utility.yul\":11189:11191   */\n      0x0f\n        /* \"#utility.yul\":11184:11187   */\n      dup4\n        /* \"#utility.yul\":11125:11192   */\n      tag_124\n      jump\t// in\n    tag_267:\n        /* \"#utility.yul\":11118:11192   */\n      swap2\n      pop\n        /* \"#utility.yul\":11201:11294   */\n      tag_268\n        /* \"#utility.yul\":11290:11293   */\n      dup3\n        /* \"#utility.yul\":11201:11294   */\n      tag_153\n      jump\t// in\n    tag_268:\n        /* \"#utility.yul\":11319:11321   */\n      0x20\n        /* \"#utility.yul\":11314:11317   */\n      dup3\n        /* \"#utility.yul\":11310:11322   */\n      add\n        /* \"#utility.yul\":11303:11322   */\n      swap1\n      pop\n        /* \"#utility.yul\":10962:11328   */\n      swap2\n      swap1\n      pop\n      jump\t// out\n        /* \"#utility.yul\":11334:11753   */\n    tag_79:\n        /* \"#utility.yul\":11500:11504   */\n      0x00\n        /* \"#utility.yul\":11538:11540   */\n      0x20\n        /* \"#utility.yul\":11527:11536   */\n      dup3\n        /* \"#utility.yul\":11523:11541   */\n      add\n        /* \"#utility.yul\":11515:11541   */\n      swap1\n      pop\n        /* \"#utility.yul\":11587:11596   */\n      dup2\n        /* \"#utility.yul\":11581:11585   */\n      dup2\n        /* \"#utility.yul\":11577:11597   */\n      sub\n        /* \"#utility.yul\":11573:11574   */\n      0x00\n        /* \"#utility.yul\":11562:11571   */\n      dup4\n        /* \"#utility.yul\":11558:11575   */\n      add\n        /* \"#utility.yul\":11551:11598   */\n      mstore\n        /* \"#utility.yul\":11615:11746   */\n      tag_270\n        /* \"#utility.yul\":11741:11745   */\n      dup2\n        /* \"#utility.yul\":11615:11746   */\n      tag_154\n      jump\t// in\n    tag_270:\n        /* \"#utility.yul\":11607:11746   */\n      swap1\n      pop\n        /* \"#utility.yul\":11334:11753   */\n      swap2\n      swap1\n      pop\n      jump\t// out\n        /* \"#utility.yul\":11759:11902   */\n    tag_155:\n        /* \"#utility.yul\":11816:11821   */\n      0x00\n        /* \"#utility.yul\":11847:11853   */\n      dup2\n        /* \"#utility.yul\":11841:11854   */\n      mload\n        /* \"#utility.yul\":11832:11854   */\n      swap1\n      pop\n        /* \"#utility.yul\":11863:11896   */\n      tag_272\n        /* \"#utility.yul\":11890:11895   */\n      dup2\n        /* \"#utility.yul\":11863:11896   */\n      tag_139\n      jump\t// in\n    tag_272:\n        /* \"#utility.yul\":11759:11902   */\n      swap3\n      swap2\n      pop\n      pop\n      jump\t// out\n        /* \"#utility.yul\":11908:12259   */\n    tag_96:\n        /* \"#utility.yul\":11978:11984   */\n      0x00\n        /* \"#utility.yul\":12027:12029   */\n      0x20\n        /* \"#utility.yul\":12015:12024   */\n      dup3\n        /* \"#utility.yul\":12006:12013   */\n      dup5\n        /* \"#utility.yul\":12002:12025   */\n      sub\n        /* \"#utility.yul\":11998:12030   */\n      slt\n        /* \"#utility.yul\":11995:12114   */\n      iszero\n      tag_274\n      jumpi\n        /* \"#utility.yul\":12033:12112   */\n      tag_275\n      tag_130\n      jump\t// in\n    tag_275:\n        /* \"#utility.yul\":11995:12114   */\n    tag_274:\n        /* \"#utility.yul\":12153:12154   */\n      0x00\n        /* \"#utility.yul\":12178:12242   */\n      tag_276\n        /* \"#utility.yul\":12234:12241   */\n      dup5\n        /* \"#utility.yul\":12225:12231   */\n      dup3\n        /* \"#utility.yul\":12214:12223   */\n      dup6\n        /* \"#utility.yul\":12210:12232   */\n      add\n        /* \"#utility.yul\":12178:12242   */\n      tag_155\n      jump\t// in\n    tag_276:\n        /* \"#utility.yul\":12168:12242   */\n      swap2\n      pop\n        /* \"#utility.yul\":12124:12252   */\n      pop\n        /* \"#utility.yul\":11908:12259   */\n      swap3\n      swap2\n      pop\n      pop\n      jump\t// out\n        /* \"#utility.yul\":12265:12433   */\n    tag_156:\n        /* \"#utility.yul\":12405:12425   */\n      0x4e6f74206f776e6572206f6620746f6b656e0000000000000000000000000000\n        /* \"#utility.yul\":12401:12402   */\n      0x00\n        /* \"#utility.yul\":12393:12399   */\n      dup3\n        /* \"#utility.yul\":12389:12403   */\n      add\n        /* \"#utility.yul\":12382:12426   */\n      mstore\n        /* \"#utility.yul\":12265:12433   */\n      pop\n      jump\t// out\n        /* \"#utility.yul\":12439:12805   */\n    tag_157:\n        /* \"#utility.yul\":12581:12584   */\n      0x00\n        /* \"#utility.yul\":12602:12669   */\n      tag_279\n        /* \"#utility.yul\":12666:12668   */\n      0x12\n        /* \"#utility.yul\":12661:12664   */\n      dup4\n        /* \"#utility.yul\":12602:12669   */\n      tag_124\n      jump\t// in\n    tag_279:\n        /* \"#utility.yul\":12595:12669   */\n      swap2\n      pop\n        /* \"#utility.yul\":12678:12771   */\n      tag_280\n        /* \"#utility.yul\":12767:12770   */\n      dup3\n        /* \"#utility.yul\":12678:12771   */\n      tag_156\n      jump\t// in\n    tag_280:\n        /* \"#utility.yul\":12796:12798   */\n      0x20\n        /* \"#utility.yul\":12791:12794   */\n      dup3\n        /* \"#utility.yul\":12787:12799   */\n      add\n        /* \"#utility.yul\":12780:12799   */\n      swap1\n      pop\n        /* \"#utility.yul\":12439:12805   */\n      swap2\n      swap1\n      pop\n      jump\t// out\n        /* \"#utility.yul\":12811:13230   */\n    tag_99:\n        /* \"#utility.yul\":12977:12981   */\n      0x00\n        /* \"#utility.yul\":13015:13017   */\n      0x20\n        /* \"#utility.yul\":13004:13013   */\n      dup3\n        /* \"#utility.yul\":13000:13018   */\n      add\n        /* \"#utility.yul\":12992:13018   */\n      swap1\n      pop\n        /* \"#utility.yul\":13064:13073   */\n      dup2\n        /* \"#utility.yul\":13058:13062   */\n      dup2\n        /* \"#utility.yul\":13054:13074   */\n      sub\n        /* \"#utility.yul\":13050:13051   */\n      0x00\n        /* \"#utility.yul\":13039:13048   */\n      dup4\n        /* \"#utility.yul\":13035:13052   */\n      add\n        /* \"#utility.yul\":13028:13075   */\n      mstore\n        /* \"#utility.yul\":13092:13223   */\n      tag_282\n        /* \"#utility.yul\":13218:13222   */\n      dup2\n        /* \"#utility.yul\":13092:13223   */\n      tag_157\n      jump\t// in\n    tag_282:\n        /* \"#utility.yul\":13084:13223   */\n      swap1\n      pop\n        /* \"#utility.yul\":12811:13230   */\n      swap2\n      swap1\n      pop\n      jump\t// out\n        /* \"#utility.yul\":13236:13678   */\n    tag_103:\n        /* \"#utility.yul\":13385:13389   */\n      0x00\n        /* \"#utility.yul\":13423:13425   */\n      0x60\n        /* \"#utility.yul\":13412:13421   */\n      dup3\n        /* \"#utility.yul\":13408:13426   */\n      add\n        /* \"#utility.yul\":13400:13426   */\n      swap1\n      pop\n        /* \"#utility.yul\":13436:13507   */\n      tag_284\n        /* \"#utility.yul\":13504:13505   */\n      0x00\n        /* \"#utility.yul\":13493:13502   */\n      dup4\n        /* \"#utility.yul\":13489:13506   */\n      add\n        /* \"#utility.yul\":13480:13486   */\n      dup7\n        /* \"#utility.yul\":13436:13507   */\n      tag_145\n      jump\t// in\n    tag_284:\n        /* \"#utility.yul\":13517:13589   */\n      tag_285\n        /* \"#utility.yul\":13585:13587   */\n      0x20\n        /* \"#utility.yul\":13574:13583   */\n      dup4\n        /* \"#utility.yul\":13570:13588   */\n      add\n        /* \"#utility.yul\":13561:13567   */\n      dup6\n        /* \"#utility.yul\":13517:13589   */\n      tag_145\n      jump\t// in\n    tag_285:\n        /* \"#utility.yul\":13599:13671   */\n      tag_286\n        /* \"#utility.yul\":13667:13669   */\n      0x40\n        /* \"#utility.yul\":13656:13665   */\n      dup4\n        /* \"#utility.yul\":13652:13670   */\n      add\n        /* \"#utility.yul\":13643:13649   */\n      dup5\n        /* \"#utility.yul\":13599:13671   */\n      tag_128\n      jump\t// in\n    tag_286:\n        /* \"#utility.yul\":13236:13678   */\n      swap5\n      swap4\n      pop\n      pop\n      pop\n      pop\n      jump\t// out\n\n    auxdata: 0xa26469706673582212205a893093fb9eca57ab21f625c06a8b64e32c66a8ac29e655aab7d4f3f18e9d3964736f6c634300081a0033\n}\n",
				"bytecode": {
					"linkReferences": {},
					"object": "60a06040523373ffffffffffffffffffffffffffffffffffffffff1660808173ffffffffffffffffffffffffffffffffffffffff16815250505f805f6101000a81548160ff02191690831515021790555060805161100661006f5f395f81816101e901526108a101526110065ff3fe60806040526004361061004d575f3560e01c806322dd48aa146100f3578063432aeed41461011b5780638da5cb5b14610157578063acd1f25414610181578063ff414b64146101ab576100ef565b366100ef575f8054906101000a900460ff161561009f576040517f08c379a0000000000000000000000000000000000000000000000000000000008152600401610096906109a9565b60405180910390fd5b3373ffffffffffffffffffffffffffffffffffffffff167fe1fffcc4923d04b559f4d29a8bfc6cda04eb5b0d3c460751c2402c5c5cc9109c346040516100e591906109df565b60405180910390a2005b5f80fd5b3480156100fe575f80fd5b5061011960048036038101906101149190610ab6565b6101e7565b005b348015610126575f80fd5b50610141600480360381019061013c9190610bea565b6107eb565b60405161014e9190610c42565b60405180910390f35b348015610162575f80fd5b5061016b61089f565b6040516101789190610c6a565b60405180910390f35b34801561018c575f80fd5b506101956108c3565b6040516101a291906109df565b60405180910390f35b3480156101b6575f80fd5b506101d160048036038101906101cc9190610c83565b6108ca565b6040516101de91906109df565b60405180910390f35b7f000000000000000000000000000000000000000000000000000000000000000073ffffffffffffffffffffffffffffffffffffffff163373ffffffffffffffffffffffffffffffffffffffff1614610275576040517f08c379a000000000000000000000000000000000000000000000000000000000815260040161026c90610cf8565b60405180910390fd5b5f8054906101000a900460ff16156102c2576040517f08c379a00000000000000000000000000000000000000000000000000000000081526004016102b9906109a9565b60405180910390fd5b81819050848490501461030a576040517f08c379a000000000000000000000000000000000000000000000000000000000815260040161030190610d86565b60405180910390fd5b5f4790505f811115610392577f94effa14ea3a1ef396fa2fd829336d1597f1d76b548c26bfa2332869706638af8160405161034591906109df565b60405180910390a13373ffffffffffffffffffffffffffffffffffffffff166108fc8290811502906040515f60405180830381858888f19350505050158015610390573d5f803e3d5ffd5b505b5f5b87879050811015610577575f8888838181106103b3576103b2610da4565b5b90506020020160208101906103c89190610c83565b90505f8173ffffffffffffffffffffffffffffffffffffffff166370a08231306040518263ffffffff1660e01b81526004016104049190610c6a565b602060405180830381865afa15801561041f573d5f803e3d5ffd5b505050506040513d601f19601f820116820180604052508101906104439190610de5565b90505f811115610568578173ffffffffffffffffffffffffffffffffffffffff1663a9059cbb33836040518363ffffffff1660e01b8152600401610488929190610e10565b6020604051808303815f875af11580156104a4573d5f803e3d5ffd5b505050506040513d601f19601f820116820180604052508101906104c89190610e61565b610507576040517f08c379a00000000000000000000000000000000000000000000000000000000081526004016104fe90610ed6565b60405180910390fd5b7fbe7426aee8a34d0263892b55ce65ce81d8f4c806eb4719e59015ea49feb92d228a8a8581811061053b5761053a610da4565b5b90506020020160208101906105509190610c83565b8260405161055f929190610e10565b60405180910390a15b50508080600101915050610394565b505f5b858590508110156107b8575f86868381811061059957610598610da4565b5b90506020020160208101906105ae9190610c83565b90503073ffffffffffffffffffffffffffffffffffffffff168173ffffffffffffffffffffffffffffffffffffffff16636352211e8787868181106105f6576105f5610da4565b5b905060200201356040518263ffffffff1660e01b815260040161061991906109df565b602060405180830381865afa158015610634573d5f803e3d5ffd5b505050506040513d601f19601f820116820180604052508101906106589190610f08565b73ffffffffffffffffffffffffffffffffffffffff16146106ae576040517f08c379a00000000000000000000000000000000000000000000000000000000081526004016106a590610f7d565b60405180910390fd5b8073ffffffffffffffffffffffffffffffffffffffff166323b872dd30338888878181106106df576106de610da4565b5b905060200201356040518463ffffffff1660e01b815260040161070493929190610f9b565b5f604051808303815f87803b15801561071b575f80fd5b505af115801561072d573d5f803e3d5ffd5b505050507fcc7d0949892410da9ebd78d838ca9ba1601b557ad34c4a6cb4b492c5996bd8df87878481811061076557610764610da4565b5b905060200201602081019061077a9190610c83565b86868581811061078d5761078c610da4565b5b905060200201356040516107a2929190610e10565b60405180910390a150808060010191505061057a565b5060015f806101000a81548160ff0219169083151502179055503373ffffffffffffffffffffffffffffffffffffffff16ff5b5f808390503073ffffffffffffffffffffffffffffffffffffffff168173ffffffffffffffffffffffffffffffffffffffff16636352211e856040518263ffffffff1660e01b815260040161084091906109df565b602060405180830381865afa15801561085b573d5f803e3d5ffd5b505050506040513d601f19601f8201168201806040525081019061087f9190610f08565b73ffffffffffffffffffffffffffffffffffffffff161491505092915050565b7f000000000000000000000000000000000000000000000000000000000000000081565b5f47905090565b5f808290508073ffffffffffffffffffffffffffffffffffffffff166370a08231306040518263ffffffff1660e01b81526004016109089190610c6a565b602060405180830381865afa158015610923573d5f803e3d5ffd5b505050506040513d601f19601f820116820180604052508101906109479190610de5565b915050919050565b5f82825260208201905092915050565b7f436f6e74726163742069732064697361626c65640000000000000000000000005f82015250565b5f61099360148361094f565b915061099e8261095f565b602082019050919050565b5f6020820190508181035f8301526109c081610987565b9050919050565b5f819050919050565b6109d9816109c7565b82525050565b5f6020820190506109f25f8301846109d0565b92915050565b5f80fd5b5f80fd5b5f80fd5b5f80fd5b5f80fd5b5f8083601f840112610a2157610a20610a00565b5b8235905067ffffffffffffffff811115610a3e57610a3d610a04565b5b602083019150836020820283011115610a5a57610a59610a08565b5b9250929050565b5f8083601f840112610a7657610a75610a00565b5b8235905067ffffffffffffffff811115610a9357610a92610a04565b5b602083019150836020820283011115610aaf57610aae610a08565b5b9250929050565b5f805f805f8060608789031215610ad057610acf6109f8565b5b5f87013567ffffffffffffffff811115610aed57610aec6109fc565b5b610af989828a01610a0c565b9650965050602087013567ffffffffffffffff811115610b1c57610b1b6109fc565b5b610b2889828a01610a0c565b9450945050604087013567ffffffffffffffff811115610b4b57610b4a6109fc565b5b610b5789828a01610a61565b92509250509295509295509295565b5f73ffffffffffffffffffffffffffffffffffffffff82169050919050565b5f610b8f82610b66565b9050919050565b610b9f81610b85565b8114610ba9575f80fd5b50565b5f81359050610bba81610b96565b92915050565b610bc9816109c7565b8114610bd3575f80fd5b50565b5f81359050610be481610bc0565b92915050565b5f8060408385031215610c0057610bff6109f8565b5b5f610c0d85828601610bac565b9250506020610c1e85828601610bd6565b9150509250929050565b5f8115159050919050565b610c3c81610c28565b82525050565b5f602082019050610c555f830184610c33565b92915050565b610c6481610b85565b82525050565b5f602082019050610c7d5f830184610c5b565b92915050565b5f60208284031215610c9857610c976109f8565b5b5f610ca584828501610bac565b91505092915050565b7f4e6f74204f776e657200000000000000000000000000000000000000000000005f82015250565b5f610ce260098361094f565b9150610ced82610cae565b602082019050919050565b5f6020820190508181035f830152610d0f81610cd6565b9050919050565b7f45524337323120746f6b656e7320616e6420494473206c656e677468206d69735f8201527f6d61746368000000000000000000000000000000000000000000000000000000602082015250565b5f610d7060258361094f565b9150610d7b82610d16565b604082019050919050565b5f6020820190508181035f830152610d9d81610d64565b9050919050565b7f4e487b71000000000000000000000000000000000000000000000000000000005f52603260045260245ffd5b5f81519050610ddf81610bc0565b92915050565b5f60208284031215610dfa57610df96109f8565b5b5f610e0784828501610dd1565b91505092915050565b5f604082019050610e235f830185610c5b565b610e3060208301846109d0565b9392505050565b610e4081610c28565b8114610e4a575f80fd5b50565b5f81519050610e5b81610e37565b92915050565b5f60208284031215610e7657610e756109f8565b5b5f610e8384828501610e4d565b91505092915050565b7f5472616e73666572206661696c656400000000000000000000000000000000005f82015250565b5f610ec0600f8361094f565b9150610ecb82610e8c565b602082019050919050565b5f6020820190508181035f830152610eed81610eb4565b9050919050565b5f81519050610f0281610b96565b92915050565b5f60208284031215610f1d57610f1c6109f8565b5b5f610f2a84828501610ef4565b91505092915050565b7f4e6f74206f776e6572206f6620746f6b656e00000000000000000000000000005f82015250565b5f610f6760128361094f565b9150610f7282610f33565b602082019050919050565b5f6020820190508181035f830152610f9481610f5b565b9050919050565b5f606082019050610fae5f830186610c5b565b610fbb6020830185610c5b565b610fc860408301846109d0565b94935050505056fea26469706673582212205a893093fb9eca57ab21f625c06a8b64e32c66a8ac29e655aab7d4f3f18e9d3964736f6c634300081a0033",
					"opcodes": "PUSH1 0xA0 PUSH1 0x40 MSTORE CALLER PUSH20 0xFFFFFFFFFFFFFFFFFFFFFFFFFFFFFFFFFFFFFFFF AND PUSH1 0x80 DUP2 PUSH20 0xFFFFFFFFFFFFFFFFFFFFFFFFFFFFFFFFFFFFFFFF AND DUP2 MSTORE POP POP PUSH0 DUP1 PUSH0 PUSH2 0x100 EXP DUP2 SLOAD DUP2 PUSH1 0xFF MUL NOT AND SWAP1 DUP4 ISZERO ISZERO MUL OR SWAP1 SSTORE POP PUSH1 0x80 MLOAD PUSH2 0x1006 PUSH2 0x6F PUSH0 CODECOPY PUSH0 DUP2 DUP2 PUSH2 0x1E9 ADD MSTORE PUSH2 0x8A1 ADD MSTORE PUSH2 0x1006 PUSH0 RETURN INVALID PUSH1 0x80 PUSH1 0x40 MSTORE PUSH1 0x4 CALLDATASIZE LT PUSH2 0x4D JUMPI PUSH0 CALLDATALOAD PUSH1 0xE0 SHR DUP1 PUSH4 0x22DD48AA EQ PUSH2 0xF3 JUMPI DUP1 PUSH4 0x432AEED4 EQ PUSH2 0x11B JUMPI DUP1 PUSH4 0x8DA5CB5B EQ PUSH2 0x157 JUMPI DUP1 PUSH4 0xACD1F254 EQ PUSH2 0x181 JUMPI DUP1 PUSH4 0xFF414B64 EQ PUSH2 0x1AB JUMPI PUSH2 0xEF JUMP JUMPDEST CALLDATASIZE PUSH2 0xEF JUMPI PUSH0 DUP1 SLOAD SWAP1 PUSH2 0x100 EXP SWAP1 DIV PUSH1 0xFF AND ISZERO PUSH2 0x9F JUMPI PUSH1 0x40 MLOAD PUSH32 0x8C379A000000000000000000000000000000000000000000000000000000000 DUP2 MSTORE PUSH1 0x4 ADD PUSH2 0x96 SWAP1 PUSH2 0x9A9 JUMP JUMPDEST PUSH1 0x40 MLOAD DUP1 SWAP2 SUB SWAP1 REVERT JUMPDEST CALLER PUSH20 0xFFFFFFFFFFFFFFFFFFFFFFFFFFFFFFFFFFFFFFFF AND PUSH32 0xE1FFFCC4923D04B559F4D29A8BFC6CDA04EB5B0D3C460751C2402C5C5CC9109C CALLVALUE PUSH1 0x40 MLOAD PUSH2 0xE5 SWAP2 SWAP1 PUSH2 0x9DF JUMP JUMPDEST PUSH1 0x40 MLOAD DUP1 SWAP2 SUB SWAP1 LOG2 STOP JUMPDEST PUSH0 DUP1 REVERT JUMPDEST CALLVALUE DUP1 ISZERO PUSH2 0xFE JUMPI PUSH0 DUP1 REVERT JUMPDEST POP PUSH2 0x119 PUSH1 0x4 DUP1 CALLDATASIZE SUB DUP2 ADD SWAP1 PUSH2 0x114 SWAP2 SWAP1 PUSH2 0xAB6 JUMP JUMPDEST PUSH2 0x1E7 JUMP JUMPDEST STOP JUMPDEST CALLVALUE DUP1 ISZERO PUSH2 0x126 JUMPI PUSH0 DUP1 REVERT JUMPDEST POP PUSH2 0x141 PUSH1 0x4 DUP1 CALLDATASIZE SUB DUP2 ADD SWAP1 PUSH2 0x13C SWAP2 SWAP1 PUSH2 0xBEA JUMP JUMPDEST PUSH2 0x7EB JUMP JUMPDEST PUSH1 0x40 MLOAD PUSH2 0x14E SWAP2 SWAP1 PUSH2 0xC42 JUMP JUMPDEST PUSH1 0x40 MLOAD DUP1 SWAP2 SUB SWAP1 RETURN JUMPDEST CALLVALUE DUP1 ISZERO PUSH2 0x162 JUMPI PUSH0 DUP1 REVERT JUMPDEST POP PUSH2 0x16B PUSH2 0x89F JUMP JUMPDEST PUSH1 0x40 MLOAD PUSH2 0x178 SWAP2 SWAP1 PUSH2 0xC6A JUMP JUMPDEST PUSH1 0x40 MLOAD DUP1 SWAP2 SUB SWAP1 RETURN JUMPDEST CALLVALUE DUP1 ISZERO PUSH2 0x18C JUMPI PUSH0 DUP1 REVERT JUMPDEST POP PUSH2 0x195 PUSH2 0x8C3 JUMP JUMPDEST PUSH1 0x40 MLOAD PUSH2 0x1A2 SWAP2 SWAP1 PUSH2 0x9DF JUMP JUMPDEST PUSH1 0x40 MLOAD DUP1 SWAP2 SUB SWAP1 RETURN JUMPDEST CALLVALUE DUP1 ISZERO PUSH2 0x1B6 JUMPI PUSH0 DUP1 REVERT JUMPDEST POP PUSH2 0x1D1 PUSH1 0x4 DUP1 CALLDATASIZE SUB DUP2 ADD SWAP1 PUSH2 0x1CC SWAP2 SWAP1 PUSH2 0xC83 JUMP JUMPDEST PUSH2 0x8CA JUMP JUMPDEST PUSH1 0x40 MLOAD PUSH2 0x1DE SWAP2 SWAP1 PUSH2 0x9DF JUMP JUMPDEST PUSH1 0x40 MLOAD DUP1 SWAP2 SUB SWAP1 RETURN JUMPDEST PUSH32 0x0 PUSH20 0xFFFFFFFFFFFFFFFFFFFFFFFFFFFFFFFFFFFFFFFF AND CALLER PUSH20 0xFFFFFFFFFFFFFFFFFFFFFFFFFFFFFFFFFFFFFFFF AND EQ PUSH2 0x275 JUMPI PUSH1 0x40 MLOAD PUSH32 0x8C379A000000000000000000000000000000000000000000000000000000000 DUP2 MSTORE PUSH1 0x4 ADD PUSH2 0x26C SWAP1 PUSH2 0xCF8 JUMP JUMPDEST PUSH1 0x40 MLOAD DUP1 SWAP2 SUB SWAP1 REVERT JUMPDEST PUSH0 DUP1 SLOAD SWAP1 PUSH2 0x100 EXP SWAP1 DIV PUSH1 0xFF AND ISZERO PUSH2 0x2C2 JUMPI PUSH1 0x40 MLOAD PUSH32 0x8C379A000000000000000000000000000000000000000000000000000000000 DUP2 MSTORE PUSH1 0x4 ADD PUSH2 0x2B9 SWAP1 PUSH2 0x9A9 JUMP JUMPDEST PUSH1 0x40 MLOAD DUP1 SWAP2 SUB SWAP1 REVERT JUMPDEST DUP2 DUP2 SWAP1 POP DUP5 DUP5 SWAP1 POP EQ PUSH2 0x30A JUMPI PUSH1 0x40 MLOAD PUSH32 0x8C379A000000000000000000000000000000000000000000000000000000000 DUP2 MSTORE PUSH1 0x4 ADD PUSH2 0x301 SWAP1 PUSH2 0xD86 JUMP JUMPDEST PUSH1 0x40 MLOAD DUP1 SWAP2 SUB SWAP1 REVERT JUMPDEST PUSH0 SELFBALANCE SWAP1 POP PUSH0 DUP2 GT ISZERO PUSH2 0x392 JUMPI PUSH32 0x94EFFA14EA3A1EF396FA2FD829336D1597F1D76B548C26BFA2332869706638AF DUP2 PUSH1 0x40 MLOAD PUSH2 0x345 SWAP2 SWAP1 PUSH2 0x9DF JUMP JUMPDEST PUSH1 0x40 MLOAD DUP1 SWAP2 SUB SWAP1 LOG1 CALLER PUSH20 0xFFFFFFFFFFFFFFFFFFFFFFFFFFFFFFFFFFFFFFFF AND PUSH2 0x8FC DUP3 SWAP1 DUP2 ISZERO MUL SWAP1 PUSH1 0x40 MLOAD PUSH0 PUSH1 0x40 MLOAD DUP1 DUP4 SUB DUP2 DUP6 DUP9 DUP9 CALL SWAP4 POP POP POP POP ISZERO DUP1 ISZERO PUSH2 0x390 JUMPI RETURNDATASIZE PUSH0 DUP1 RETURNDATACOPY RETURNDATASIZE PUSH0 REVERT JUMPDEST POP JUMPDEST PUSH0 JUMPDEST DUP8 DUP8 SWAP1 POP DUP2 LT ISZERO PUSH2 0x577 JUMPI PUSH0 DUP9 DUP9 DUP4 DUP2 DUP2 LT PUSH2 0x3B3 JUMPI PUSH2 0x3B2 PUSH2 0xDA4 JUMP JUMPDEST JUMPDEST SWAP1 POP PUSH1 0x20 MUL ADD PUSH1 0x20 DUP2 ADD SWAP1 PUSH2 0x3C8 SWAP2 SWAP1 PUSH2 0xC83 JUMP JUMPDEST SWAP1 POP PUSH0 DUP2 PUSH20 0xFFFFFFFFFFFFFFFFFFFFFFFFFFFFFFFFFFFFFFFF AND PUSH4 0x70A08231 ADDRESS PUSH1 0x40 MLOAD DUP3 PUSH4 0xFFFFFFFF AND PUSH1 0xE0 SHL DUP2 MSTORE PUSH1 0x4 ADD PUSH2 0x404 SWAP2 SWAP1 PUSH2 0xC6A JUMP JUMPDEST PUSH1 0x20 PUSH1 0x40 MLOAD DUP1 DUP4 SUB DUP2 DUP7 GAS STATICCALL ISZERO DUP1 ISZERO PUSH2 0x41F JUMPI RETURNDATASIZE PUSH0 DUP1 RETURNDATACOPY RETURNDATASIZE PUSH0 REVERT JUMPDEST POP POP POP POP PUSH1 0x40 MLOAD RETURNDATASIZE PUSH1 0x1F NOT PUSH1 0x1F DUP3 ADD AND DUP3 ADD DUP1 PUSH1 0x40 MSTORE POP DUP2 ADD SWAP1 PUSH2 0x443 SWAP2 SWAP1 PUSH2 0xDE5 JUMP JUMPDEST SWAP1 POP PUSH0 DUP2 GT ISZERO PUSH2 0x568 JUMPI DUP2 PUSH20 0xFFFFFFFFFFFFFFFFFFFFFFFFFFFFFFFFFFFFFFFF AND PUSH4 0xA9059CBB CALLER DUP4 PUSH1 0x40 MLOAD DUP4 PUSH4 0xFFFFFFFF AND PUSH1 0xE0 SHL DUP2 MSTORE PUSH1 0x4 ADD PUSH2 0x488 SWAP3 SWAP2 SWAP1 PUSH2 0xE10 JUMP JUMPDEST PUSH1 0x20 PUSH1 0x40 MLOAD DUP1 DUP4 SUB DUP2 PUSH0 DUP8 GAS CALL ISZERO DUP1 ISZERO PUSH2 0x4A4 JUMPI RETURNDATASIZE PUSH0 DUP1 RETURNDATACOPY RETURNDATASIZE PUSH0 REVERT JUMPDEST POP POP POP POP PUSH1 0x40 MLOAD RETURNDATASIZE PUSH1 0x1F NOT PUSH1 0x1F DUP3 ADD AND DUP3 ADD DUP1 PUSH1 0x40 MSTORE POP DUP2 ADD SWAP1 PUSH2 0x4C8 SWAP2 SWAP1 PUSH2 0xE61 JUMP JUMPDEST PUSH2 0x507 JUMPI PUSH1 0x40 MLOAD PUSH32 0x8C379A000000000000000000000000000000000000000000000000000000000 DUP2 MSTORE PUSH1 0x4 ADD PUSH2 0x4FE SWAP1 PUSH2 0xED6 JUMP JUMPDEST PUSH1 0x40 MLOAD DUP1 SWAP2 SUB SWAP1 REVERT JUMPDEST PUSH32 0xBE7426AEE8A34D0263892B55CE65CE81D8F4C806EB4719E59015EA49FEB92D22 DUP11 DUP11 DUP6 DUP2 DUP2 LT PUSH2 0x53B JUMPI PUSH2 0x53A PUSH2 0xDA4 JUMP JUMPDEST JUMPDEST SWAP1 POP PUSH1 0x20 MUL ADD PUSH1 0x20 DUP2 ADD SWAP1 PUSH2 0x550 SWAP2 SWAP1 PUSH2 0xC83 JUMP JUMPDEST DUP3 PUSH1 0x40 MLOAD PUSH2 0x55F SWAP3 SWAP2 SWAP1 PUSH2 0xE10 JUMP JUMPDEST PUSH1 0x40 MLOAD DUP1 SWAP2 SUB SWAP1 LOG1 JUMPDEST POP POP DUP1 DUP1 PUSH1 0x1 ADD SWAP2 POP POP PUSH2 0x394 JUMP JUMPDEST POP PUSH0 JUMPDEST DUP6 DUP6 SWAP1 POP DUP2 LT ISZERO PUSH2 0x7B8 JUMPI PUSH0 DUP7 DUP7 DUP4 DUP2 DUP2 LT PUSH2 0x599 JUMPI PUSH2 0x598 PUSH2 0xDA4 JUMP JUMPDEST JUMPDEST SWAP1 POP PUSH1 0x20 MUL ADD PUSH1 0x20 DUP2 ADD SWAP1 PUSH2 0x5AE SWAP2 SWAP1 PUSH2 0xC83 JUMP JUMPDEST SWAP1 POP ADDRESS PUSH20 0xFFFFFFFFFFFFFFFFFFFFFFFFFFFFFFFFFFFFFFFF AND DUP2 PUSH20 0xFFFFFFFFFFFFFFFFFFFFFFFFFFFFFFFFFFFFFFFF AND PUSH4 0x6352211E DUP8 DUP8 DUP7 DUP2 DUP2 LT PUSH2 0x5F6 JUMPI PUSH2 0x5F5 PUSH2 0xDA4 JUMP JUMPDEST JUMPDEST SWAP1 POP PUSH1 0x20 MUL ADD CALLDATALOAD PUSH1 0x40 MLOAD DUP3 PUSH4 0xFFFFFFFF AND PUSH1 0xE0 SHL DUP2 MSTORE PUSH1 0x4 ADD PUSH2 0x619 SWAP2 SWAP1 PUSH2 0x9DF JUMP JUMPDEST PUSH1 0x20 PUSH1 0x40 MLOAD DUP1 DUP4 SUB DUP2 DUP7 GAS STATICCALL ISZERO DUP1 ISZERO PUSH2 0x634 JUMPI RETURNDATASIZE PUSH0 DUP1 RETURNDATACOPY RETURNDATASIZE PUSH0 REVERT JUMPDEST POP POP POP POP PUSH1 0x40 MLOAD RETURNDATASIZE PUSH1 0x1F NOT PUSH1 0x1F DUP3 ADD AND DUP3 ADD DUP1 PUSH1 0x40 MSTORE POP DUP2 ADD SWAP1 PUSH2 0x658 SWAP2 SWAP1 PUSH2 0xF08 JUMP JUMPDEST PUSH20 0xFFFFFFFFFFFFFFFFFFFFFFFFFFFFFFFFFFFFFFFF AND EQ PUSH2 0x6AE JUMPI PUSH1 0x40 MLOAD PUSH32 0x8C379A000000000000000000000000000000000000000000000000000000000 DUP2 MSTORE PUSH1 0x4 ADD PUSH2 0x6A5 SWAP1 PUSH2 0xF7D JUMP JUMPDEST PUSH1 0x40 MLOAD DUP1 SWAP2 SUB SWAP1 REVERT JUMPDEST DUP1 PUSH20 0xFFFFFFFFFFFFFFFFFFFFFFFFFFFFFFFFFFFFFFFF AND PUSH4 0x23B872DD ADDRESS CALLER DUP9 DUP9 DUP8 DUP2 DUP2 LT PUSH2 0x6DF JUMPI PUSH2 0x6DE PUSH2 0xDA4 JUMP JUMPDEST JUMPDEST SWAP1 POP PUSH1 0x20 MUL ADD CALLDATALOAD PUSH1 0x40 MLOAD DUP5 PUSH4 0xFFFFFFFF AND PUSH1 0xE0 SHL DUP2 MSTORE PUSH1 0x4 ADD PUSH2 0x704 SWAP4 SWAP3 SWAP2 SWAP1 PUSH2 0xF9B JUMP JUMPDEST PUSH0 PUSH1 0x40 MLOAD DUP1 DUP4 SUB DUP2 PUSH0 DUP8 DUP1 EXTCODESIZE ISZERO DUP1 ISZERO PUSH2 0x71B JUMPI PUSH0 DUP1 REVERT JUMPDEST POP GAS CALL ISZERO DUP1 ISZERO PUSH2 0x72D JUMPI RETURNDATASIZE PUSH0 DUP1 RETURNDATACOPY RETURNDATASIZE PUSH0 REVERT JUMPDEST POP POP POP POP PUSH32 0xCC7D0949892410DA9EBD78D838CA9BA1601B557AD34C4A6CB4B492C5996BD8DF DUP8 DUP8 DUP5 DUP2 DUP2 LT PUSH2 0x765 JUMPI PUSH2 0x764 PUSH2 0xDA4 JUMP JUMPDEST JUMPDEST SWAP1 POP PUSH1 0x20 MUL ADD PUSH1 0x20 DUP2 ADD SWAP1 PUSH2 0x77A SWAP2 SWAP1 PUSH2 0xC83 JUMP JUMPDEST DUP7 DUP7 DUP6 DUP2 DUP2 LT PUSH2 0x78D JUMPI PUSH2 0x78C PUSH2 0xDA4 JUMP JUMPDEST JUMPDEST SWAP1 POP PUSH1 0x20 MUL ADD CALLDATALOAD PUSH1 0x40 MLOAD PUSH2 0x7A2 SWAP3 SWAP2 SWAP1 PUSH2 0xE10 JUMP JUMPDEST PUSH1 0x40 MLOAD DUP1 SWAP2 SUB SWAP1 LOG1 POP DUP1 DUP1 PUSH1 0x1 ADD SWAP2 POP POP PUSH2 0x57A JUMP JUMPDEST POP PUSH1 0x1 PUSH0 DUP1 PUSH2 0x100 EXP DUP2 SLOAD DUP2 PUSH1 0xFF MUL NOT AND SWAP1 DUP4 ISZERO ISZERO MUL OR SWAP1 SSTORE POP CALLER PUSH20 0xFFFFFFFFFFFFFFFFFFFFFFFFFFFFFFFFFFFFFFFF AND SELFDESTRUCT JUMPDEST PUSH0 DUP1 DUP4 SWAP1 POP ADDRESS PUSH20 0xFFFFFFFFFFFFFFFFFFFFFFFFFFFFFFFFFFFFFFFF AND DUP2 PUSH20 0xFFFFFFFFFFFFFFFFFFFFFFFFFFFFFFFFFFFFFFFF AND PUSH4 0x6352211E DUP6 PUSH1 0x40 MLOAD DUP3 PUSH4 0xFFFFFFFF AND PUSH1 0xE0 SHL DUP2 MSTORE PUSH1 0x4 ADD PUSH2 0x840 SWAP2 SWAP1 PUSH2 0x9DF JUMP JUMPDEST PUSH1 0x20 PUSH1 0x40 MLOAD DUP1 DUP4 SUB DUP2 DUP7 GAS STATICCALL ISZERO DUP1 ISZERO PUSH2 0x85B JUMPI RETURNDATASIZE PUSH0 DUP1 RETURNDATACOPY RETURNDATASIZE PUSH0 REVERT JUMPDEST POP POP POP POP PUSH1 0x40 MLOAD RETURNDATASIZE PUSH1 0x1F NOT PUSH1 0x1F DUP3 ADD AND DUP3 ADD DUP1 PUSH1 0x40 MSTORE POP DUP2 ADD SWAP1 PUSH2 0x87F SWAP2 SWAP1 PUSH2 0xF08 JUMP JUMPDEST PUSH20 0xFFFFFFFFFFFFFFFFFFFFFFFFFFFFFFFFFFFFFFFF AND EQ SWAP2 POP POP SWAP3 SWAP2 POP POP JUMP JUMPDEST PUSH32 0x0 DUP2 JUMP JUMPDEST PUSH0 SELFBALANCE SWAP1 POP SWAP1 JUMP JUMPDEST PUSH0 DUP1 DUP3 SWAP1 POP DUP1 PUSH20 0xFFFFFFFFFFFFFFFFFFFFFFFFFFFFFFFFFFFFFFFF AND PUSH4 0x70A08231 ADDRESS PUSH1 0x40 MLOAD DUP3 PUSH4 0xFFFFFFFF AND PUSH1 0xE0 SHL DUP2 MSTORE PUSH1 0x4 ADD PUSH2 0x908 SWAP2 SWAP1 PUSH2 0xC6A JUMP JUMPDEST PUSH1 0x20 PUSH1 0x40 MLOAD DUP1 DUP4 SUB DUP2 DUP7 GAS STATICCALL ISZERO DUP1 ISZERO PUSH2 0x923 JUMPI RETURNDATASIZE PUSH0 DUP1 RETURNDATACOPY RETURNDATASIZE PUSH0 REVERT JUMPDEST POP POP POP POP PUSH1 0x40 MLOAD RETURNDATASIZE PUSH1 0x1F NOT PUSH1 0x1F DUP3 ADD AND DUP3 ADD DUP1 PUSH1 0x40 MSTORE POP DUP2 ADD SWAP1 PUSH2 0x947 SWAP2 SWAP1 PUSH2 0xDE5 JUMP JUMPDEST SWAP2 POP POP SWAP2 SWAP1 POP JUMP JUMPDEST PUSH0 DUP3 DUP3 MSTORE PUSH1 0x20 DUP3 ADD SWAP1 POP SWAP3 SWAP2 POP POP JUMP JUMPDEST PUSH32 0x436F6E74726163742069732064697361626C6564000000000000000000000000 PUSH0 DUP3 ADD MSTORE POP JUMP JUMPDEST PUSH0 PUSH2 0x993 PUSH1 0x14 DUP4 PUSH2 0x94F JUMP JUMPDEST SWAP2 POP PUSH2 0x99E DUP3 PUSH2 0x95F JUMP JUMPDEST PUSH1 0x20 DUP3 ADD SWAP1 POP SWAP2 SWAP1 POP JUMP JUMPDEST PUSH0 PUSH1 0x20 DUP3 ADD SWAP1 POP DUP2 DUP2 SUB PUSH0 DUP4 ADD MSTORE PUSH2 0x9C0 DUP2 PUSH2 0x987 JUMP JUMPDEST SWAP1 POP SWAP2 SWAP1 POP JUMP JUMPDEST PUSH0 DUP2 SWAP1 POP SWAP2 SWAP1 POP JUMP JUMPDEST PUSH2 0x9D9 DUP2 PUSH2 0x9C7 JUMP JUMPDEST DUP3 MSTORE POP POP JUMP JUMPDEST PUSH0 PUSH1 0x20 DUP3 ADD SWAP1 POP PUSH2 0x9F2 PUSH0 DUP4 ADD DUP5 PUSH2 0x9D0 JUMP JUMPDEST SWAP3 SWAP2 POP POP JUMP JUMPDEST PUSH0 DUP1 REVERT JUMPDEST PUSH0 DUP1 REVERT JUMPDEST PUSH0 DUP1 REVERT JUMPDEST PUSH0 DUP1 REVERT JUMPDEST PUSH0 DUP1 REVERT JUMPDEST PUSH0 DUP1 DUP4 PUSH1 0x1F DUP5 ADD SLT PUSH2 0xA21 JUMPI PUSH2 0xA20 PUSH2 0xA00 JUMP JUMPDEST JUMPDEST DUP3 CALLDATALOAD SWAP1 POP PUSH8 0xFFFFFFFFFFFFFFFF DUP2 GT ISZERO PUSH2 0xA3E JUMPI PUSH2 0xA3D PUSH2 0xA04 JUMP JUMPDEST JUMPDEST PUSH1 0x20 DUP4 ADD SWAP2 POP DUP4 PUSH1 0x20 DUP3 MUL DUP4 ADD GT ISZERO PUSH2 0xA5A JUMPI PUSH2 0xA59 PUSH2 0xA08 JUMP JUMPDEST JUMPDEST SWAP3 POP SWAP3 SWAP1 POP JUMP JUMPDEST PUSH0 DUP1 DUP4 PUSH1 0x1F DUP5 ADD SLT PUSH2 0xA76 JUMPI PUSH2 0xA75 PUSH2 0xA00 JUMP JUMPDEST JUMPDEST DUP3 CALLDATALOAD SWAP1 POP PUSH8 0xFFFFFFFFFFFFFFFF DUP2 GT ISZERO PUSH2 0xA93 JUMPI PUSH2 0xA92 PUSH2 0xA04 JUMP JUMPDEST JUMPDEST PUSH1 0x20 DUP4 ADD SWAP2 POP DUP4 PUSH1 0x20 DUP3 MUL DUP4 ADD GT ISZERO PUSH2 0xAAF JUMPI PUSH2 0xAAE PUSH2 0xA08 JUMP JUMPDEST JUMPDEST SWAP3 POP SWAP3 SWAP1 POP JUMP JUMPDEST PUSH0 DUP1 PUSH0 DUP1 PUSH0 DUP1 PUSH1 0x60 DUP8 DUP10 SUB SLT ISZERO PUSH2 0xAD0 JUMPI PUSH2 0xACF PUSH2 0x9F8 JUMP JUMPDEST JUMPDEST PUSH0 DUP8 ADD CALLDATALOAD PUSH8 0xFFFFFFFFFFFFFFFF DUP2 GT ISZERO PUSH2 0xAED JUMPI PUSH2 0xAEC PUSH2 0x9FC JUMP JUMPDEST JUMPDEST PUSH2 0xAF9 DUP10 DUP3 DUP11 ADD PUSH2 0xA0C JUMP JUMPDEST SWAP7 POP SWAP7 POP POP PUSH1 0x20 DUP8 ADD CALLDATALOAD PUSH8 0xFFFFFFFFFFFFFFFF DUP2 GT ISZERO PUSH2 0xB1C JUMPI PUSH2 0xB1B PUSH2 0x9FC JUMP JUMPDEST JUMPDEST PUSH2 0xB28 DUP10 DUP3 DUP11 ADD PUSH2 0xA0C JUMP JUMPDEST SWAP5 POP SWAP5 POP POP PUSH1 0x40 DUP8 ADD CALLDATALOAD PUSH8 0xFFFFFFFFFFFFFFFF DUP2 GT ISZERO PUSH2 0xB4B JUMPI PUSH2 0xB4A PUSH2 0x9FC JUMP JUMPDEST JUMPDEST PUSH2 0xB57 DUP10 DUP3 DUP11 ADD PUSH2 0xA61 JUMP JUMPDEST SWAP3 POP SWAP3 POP POP SWAP3 SWAP6 POP SWAP3 SWAP6 POP SWAP3 SWAP6 JUMP JUMPDEST PUSH0 PUSH20 0xFFFFFFFFFFFFFFFFFFFFFFFFFFFFFFFFFFFFFFFF DUP3 AND SWAP1 POP SWAP2 SWAP1 POP JUMP JUMPDEST PUSH0 PUSH2 0xB8F DUP3 PUSH2 0xB66 JUMP JUMPDEST SWAP1 POP SWAP2 SWAP1 POP JUMP JUMPDEST PUSH2 0xB9F DUP2 PUSH2 0xB85 JUMP JUMPDEST DUP2 EQ PUSH2 0xBA9 JUMPI PUSH0 DUP1 REVERT JUMPDEST POP JUMP JUMPDEST PUSH0 DUP2 CALLDATALOAD SWAP1 POP PUSH2 0xBBA DUP2 PUSH2 0xB96 JUMP JUMPDEST SWAP3 SWAP2 POP POP JUMP JUMPDEST PUSH2 0xBC9 DUP2 PUSH2 0x9C7 JUMP JUMPDEST DUP2 EQ PUSH2 0xBD3 JUMPI PUSH0 DUP1 REVERT JUMPDEST POP JUMP JUMPDEST PUSH0 DUP2 CALLDATALOAD SWAP1 POP PUSH2 0xBE4 DUP2 PUSH2 0xBC0 JUMP JUMPDEST SWAP3 SWAP2 POP POP JUMP JUMPDEST PUSH0 DUP1 PUSH1 0x40 DUP4 DUP6 SUB SLT ISZERO PUSH2 0xC00 JUMPI PUSH2 0xBFF PUSH2 0x9F8 JUMP JUMPDEST JUMPDEST PUSH0 PUSH2 0xC0D DUP6 DUP3 DUP7 ADD PUSH2 0xBAC JUMP JUMPDEST SWAP3 POP POP PUSH1 0x20 PUSH2 0xC1E DUP6 DUP3 DUP7 ADD PUSH2 0xBD6 JUMP JUMPDEST SWAP2 POP POP SWAP3 POP SWAP3 SWAP1 POP JUMP JUMPDEST PUSH0 DUP2 ISZERO ISZERO SWAP1 POP SWAP2 SWAP1 POP JUMP JUMPDEST PUSH2 0xC3C DUP2 PUSH2 0xC28 JUMP JUMPDEST DUP3 MSTORE POP POP JUMP JUMPDEST PUSH0 PUSH1 0x20 DUP3 ADD SWAP1 POP PUSH2 0xC55 PUSH0 DUP4 ADD DUP5 PUSH2 0xC33 JUMP JUMPDEST SWAP3 SWAP2 POP POP JUMP JUMPDEST PUSH2 0xC64 DUP2 PUSH2 0xB85 JUMP JUMPDEST DUP3 MSTORE POP POP JUMP JUMPDEST PUSH0 PUSH1 0x20 DUP3 ADD SWAP1 POP PUSH2 0xC7D PUSH0 DUP4 ADD DUP5 PUSH2 0xC5B JUMP JUMPDEST SWAP3 SWAP2 POP POP JUMP JUMPDEST PUSH0 PUSH1 0x20 DUP3 DUP5 SUB SLT ISZERO PUSH2 0xC98 JUMPI PUSH2 0xC97 PUSH2 0x9F8 JUMP JUMPDEST JUMPDEST PUSH0 PUSH2 0xCA5 DUP5 DUP3 DUP6 ADD PUSH2 0xBAC JUMP JUMPDEST SWAP2 POP POP SWAP3 SWAP2 POP POP JUMP JUMPDEST PUSH32 0x4E6F74204F776E65720000000000000000000000000000000000000000000000 PUSH0 DUP3 ADD MSTORE POP JUMP JUMPDEST PUSH0 PUSH2 0xCE2 PUSH1 0x9 DUP4 PUSH2 0x94F JUMP JUMPDEST SWAP2 POP PUSH2 0xCED DUP3 PUSH2 0xCAE JUMP JUMPDEST PUSH1 0x20 DUP3 ADD SWAP1 POP SWAP2 SWAP1 POP JUMP JUMPDEST PUSH0 PUSH1 0x20 DUP3 ADD SWAP1 POP DUP2 DUP2 SUB PUSH0 DUP4 ADD MSTORE PUSH2 0xD0F DUP2 PUSH2 0xCD6 JUMP JUMPDEST SWAP1 POP SWAP2 SWAP1 POP JUMP JUMPDEST PUSH32 0x45524337323120746F6B656E7320616E6420494473206C656E677468206D6973 PUSH0 DUP3 ADD MSTORE PUSH32 0x6D61746368000000000000000000000000000000000000000000000000000000 PUSH1 0x20 DUP3 ADD MSTORE POP JUMP JUMPDEST PUSH0 PUSH2 0xD70 PUSH1 0x25 DUP4 PUSH2 0x94F JUMP JUMPDEST SWAP2 POP PUSH2 0xD7B DUP3 PUSH2 0xD16 JUMP JUMPDEST PUSH1 0x40 DUP3 ADD SWAP1 POP SWAP2 SWAP1 POP JUMP JUMPDEST PUSH0 PUSH1 0x20 DUP3 ADD SWAP1 POP DUP2 DUP2 SUB PUSH0 DUP4 ADD MSTORE PUSH2 0xD9D DUP2 PUSH2 0xD64 JUMP JUMPDEST SWAP1 POP SWAP2 SWAP1 POP JUMP JUMPDEST PUSH32 0x4E487B7100000000000000000000000000000000000000000000000000000000 PUSH0 MSTORE PUSH1 0x32 PUSH1 0x4 MSTORE PUSH1 0x24 PUSH0 REVERT JUMPDEST PUSH0 DUP2 MLOAD SWAP1 POP PUSH2 0xDDF DUP2 PUSH2 0xBC0 JUMP JUMPDEST SWAP3 SWAP2 POP POP JUMP JUMPDEST PUSH0 PUSH1 0x20 DUP3 DUP5 SUB SLT ISZERO PUSH2 0xDFA JUMPI PUSH2 0xDF9 PUSH2 0x9F8 JUMP JUMPDEST JUMPDEST PUSH0 PUSH2 0xE07 DUP5 DUP3 DUP6 ADD PUSH2 0xDD1 JUMP JUMPDEST SWAP2 POP POP SWAP3 SWAP2 POP POP JUMP JUMPDEST PUSH0 PUSH1 0x40 DUP3 ADD SWAP1 POP PUSH2 0xE23 PUSH0 DUP4 ADD DUP6 PUSH2 0xC5B JUMP JUMPDEST PUSH2 0xE30 PUSH1 0x20 DUP4 ADD DUP5 PUSH2 0x9D0 JUMP JUMPDEST SWAP4 SWAP3 POP POP POP JUMP JUMPDEST PUSH2 0xE40 DUP2 PUSH2 0xC28 JUMP JUMPDEST DUP2 EQ PUSH2 0xE4A JUMPI PUSH0 DUP1 REVERT JUMPDEST POP JUMP JUMPDEST PUSH0 DUP2 MLOAD SWAP1 POP PUSH2 0xE5B DUP2 PUSH2 0xE37 JUMP JUMPDEST SWAP3 SWAP2 POP POP JUMP JUMPDEST PUSH0 PUSH1 0x20 DUP3 DUP5 SUB SLT ISZERO PUSH2 0xE76 JUMPI PUSH2 0xE75 PUSH2 0x9F8 JUMP JUMPDEST JUMPDEST PUSH0 PUSH2 0xE83 DUP5 DUP3 DUP6 ADD PUSH2 0xE4D JUMP JUMPDEST SWAP2 POP POP SWAP3 SWAP2 POP POP JUMP JUMPDEST PUSH32 0x5472616E73666572206661696C65640000000000000000000000000000000000 PUSH0 DUP3 ADD MSTORE POP JUMP JUMPDEST PUSH0 PUSH2 0xEC0 PUSH1 0xF DUP4 PUSH2 0x94F JUMP JUMPDEST SWAP2 POP PUSH2 0xECB DUP3 PUSH2 0xE8C JUMP JUMPDEST PUSH1 0x20 DUP3 ADD SWAP1 POP SWAP2 SWAP1 POP JUMP JUMPDEST PUSH0 PUSH1 0x20 DUP3 ADD SWAP1 POP DUP2 DUP2 SUB PUSH0 DUP4 ADD MSTORE PUSH2 0xEED DUP2 PUSH2 0xEB4 JUMP JUMPDEST SWAP1 POP SWAP2 SWAP1 POP JUMP JUMPDEST PUSH0 DUP2 MLOAD SWAP1 POP PUSH2 0xF02 DUP2 PUSH2 0xB96 JUMP JUMPDEST SWAP3 SWAP2 POP POP JUMP JUMPDEST PUSH0 PUSH1 0x20 DUP3 DUP5 SUB SLT ISZERO PUSH2 0xF1D JUMPI PUSH2 0xF1C PUSH2 0x9F8 JUMP JUMPDEST JUMPDEST PUSH0 PUSH2 0xF2A DUP5 DUP3 DUP6 ADD PUSH2 0xEF4 JUMP JUMPDEST SWAP2 POP POP SWAP3 SWAP2 POP POP JUMP JUMPDEST PUSH32 0x4E6F74206F776E6572206F6620746F6B656E0000000000000000000000000000 PUSH0 DUP3 ADD MSTORE POP JUMP JUMPDEST PUSH0 PUSH2 0xF67 PUSH1 0x12 DUP4 PUSH2 0x94F JUMP JUMPDEST SWAP2 POP PUSH2 0xF72 DUP3 PUSH2 0xF33 JUMP JUMPDEST PUSH1 0x20 DUP3 ADD SWAP1 POP SWAP2 SWAP1 POP JUMP JUMPDEST PUSH0 PUSH1 0x20 DUP3 ADD SWAP1 POP DUP2 DUP2 SUB PUSH0 DUP4 ADD MSTORE PUSH2 0xF94 DUP2 PUSH2 0xF5B JUMP JUMPDEST SWAP1 POP SWAP2 SWAP1 POP JUMP JUMPDEST PUSH0 PUSH1 0x60 DUP3 ADD SWAP1 POP PUSH2 0xFAE PUSH0 DUP4 ADD DUP7 PUSH2 0xC5B JUMP JUMPDEST PUSH2 0xFBB PUSH1 0x20 DUP4 ADD DUP6 PUSH2 0xC5B JUMP JUMPDEST PUSH2 0xFC8 PUSH1 0x40 DUP4 ADD DUP5 PUSH2 0x9D0 JUMP JUMPDEST SWAP5 SWAP4 POP POP POP POP JUMP INVALID LOG2 PUSH5 0x6970667358 0x22 SLT KECCAK256 GAS DUP10 ADDRESS SWAP4 0xFB SWAP15 0xCA JUMPI 0xAB 0x21 0xF6 0x25 0xC0 PUSH11 0x8B64E32C66A8AC29E655AA 0xB7 0xD4 RETURN CALL DUP15 SWAP14 CODECOPY PUSH5 0x736F6C6343 STOP ADDMOD BYTE STOP CALLER "
				},
				"gasEstimates": {
					"creation": {
						"codeDepositCost": "820400",
						"executionCost": "infinite",
						"totalCost": "infinite"
					},
					"external": {
						"getBalanceERC20(address)": "infinite",
						"getBalanceETH()": "378",
						"isOwnerOfERC721(address,uint256)": "infinite",
						"owner()": "infinite",
						"withdrawAllAssets(address[],address[],uint256[])": "infinite"
					}
				},
				"methodIdentifiers": {
					"getBalanceERC20(address)": "ff414b64",
					"getBalanceETH()": "acd1f254",
					"isOwnerOfERC721(address,uint256)": "432aeed4",
					"owner()": "8da5cb5b",
					"withdrawAllAssets(address[],address[],uint256[])": "22dd48aa"
				}
			},
			"storageLayout": {
				"storage": [
					{
						"astId": 39,
						"contract": "piggy_bank/piggy_bank.sol:Bank",
						"label": "disabled",
						"offset": 0,
						"slot": "0",
						"type": "t_bool"
					}
				],
				"types": {
					"t_bool": {
						"encoding": "inplace",
						"label": "bool",
						"numberOfBytes": "1"
					}
				}
			},
			"userdoc": {
				"kind": "user",
				"methods": {},
				"version": 1
			}
		}
	}
}