{
	"crowdfunding/crowdfunding.sol": {
		"EtherWallet": {
			"abi": [
				{
					"inputs": [],
					"stateMutability": "nonpayable",
					"type": "constructor"
				},
				{
					"anonymous": false,
					"inputs": [
						{
							"indexed": false,
							"internalType": "string",
							"name": "funName",
							"type": "string"
						},
						{
							"indexed": false,
							"internalType": "address",
							"name": "from",
							"type": "address"
						},
						{
							"indexed": false,
							"internalType": "uint256",
							"name": "value",
							"type": "uint256"
						},
						{
							"indexed": false,
							"internalType": "bytes",
							"name": "data",
							"type": "bytes"
						}
					],
					"name": "Log",
					"type": "event"
				},
				{
					"inputs": [],
					"name": "getBalance",
					"outputs": [
						{
							"internalType": "uint256",
							"name": "",
							"type": "uint256"
						}
					],
					"stateMutability": "view",
					"type": "function"
				},
				{
					"inputs": [],
					"name": "owner",
					"outputs": [
						{
							"internalType": "address payable",
							"name": "",
							"type": "address"
						}
					],
					"stateMutability": "view",
					"type": "function"
				},
				{
					"inputs": [],
					"name": "withdraw1",
					"outputs": [],
					"stateMutability": "nonpayable",
					"type": "function"
				},
				{
					"inputs": [],
					"name": "withdraw2",
					"outputs": [],
					"stateMutability": "nonpayable",
					"type": "function"
				},
				{
					"inputs": [],
					"name": "withdraw3",
					"outputs": [],
					"stateMutability": "nonpayable",
					"type": "function"
				},
				{
					"stateMutability": "payable",
					"type": "receive"
				}
			],
			"devdoc": {
				"kind": "dev",
				"methods": {},
				"version": 1
			},
			"evm": {
				"assembly": "    /* \"crowdfunding/crowdfunding.sol\":61:1579  contract EtherWallet {... */\n  mstore(0x40, 0xa0)\n    /* \"crowdfunding/crowdfunding.sol\":209:269  constructor() {... */\n  callvalue\n  dup1\n  iszero\n  tag_1\n  jumpi\n  0x00\n  dup1\n  revert\ntag_1:\n  pop\n    /* \"crowdfunding/crowdfunding.sol\":250:260  msg.sender */\n  caller\n    /* \"crowdfunding/crowdfunding.sol\":234:261  owner = payable(msg.sender) */\n  0xffffffffffffffffffffffffffffffffffffffff\n  and\n  0x80\n  dup2\n  0xffffffffffffffffffffffffffffffffffffffff\n  and\n  dup2\n  mstore\n  pop\n  pop\n    /* \"crowdfunding/crowdfunding.sol\":61:1579  contract EtherWallet {... */\n  mload(0x80)\n  codecopy(0x00, dataOffset(sub_0), dataSize(sub_0))\n  0x00\n  assignImmutable(\"0x2a80e1ef1d7842f27f2e6be0972bb708b9a135c38860dbe73c27c3486c34f4de\")\n  return(0x00, dataSize(sub_0))\nstop\n\nsub_0: assembly {\n        /* \"crowdfunding/crowdfunding.sol\":61:1579  contract EtherWallet {... */\n      mstore(0x40, 0x80)\n      jumpi(tag_1, lt(calldatasize, 0x04))\n      shr(0xe0, calldataload(0x00))\n      dup1\n      0x79efb0\n      eq\n      tag_3\n      jumpi\n      dup1\n      0x12065fe0\n      eq\n      tag_4\n      jumpi\n      dup1\n      0x4fa3eeff\n      eq\n      tag_5\n      jumpi\n      dup1\n      0x8da5cb5b\n      eq\n      tag_6\n      jumpi\n      dup1\n      0xea98847b\n      eq\n      tag_7\n      jumpi\n      jump(tag_2)\n    tag_1:\n      jumpi(tag_2, calldatasize)\n        /* \"crowdfunding/crowdfunding.sol\":320:361  Log(\"receive\", msg.sender, msg.value, \"\") */\n      0xf7f75251dee7d7fc22deac3247729ebe7c86541f35930bf10c2a4207479a3b6c\n        /* \"crowdfunding/crowdfunding.sol\":335:345  msg.sender */\n      caller\n        /* \"crowdfunding/crowdfunding.sol\":347:356  msg.value */\n      callvalue\n        /* \"crowdfunding/crowdfunding.sol\":320:361  Log(\"receive\", msg.sender, msg.value, \"\") */\n      mload(0x40)\n      tag_10\n      swap3\n      swap2\n      swap1\n      tag_11\n      jump\t// in\n    tag_10:\n      mload(0x40)\n      dup1\n      swap2\n      sub\n      swap1\n      log1\n        /* \"crowdfunding/crowdfunding.sol\":61:1579  contract EtherWallet {... */\n      stop\n    tag_2:\n      0x00\n      dup1\n      revert\n        /* \"crowdfunding/crowdfunding.sol\":377:710  function withdraw1() external {... */\n    tag_3:\n      callvalue\n      dup1\n      iszero\n      tag_12\n      jumpi\n      0x00\n      dup1\n      revert\n    tag_12:\n      pop\n      tag_13\n      tag_14\n      jump\t// in\n    tag_13:\n      stop\n        /* \"crowdfunding/crowdfunding.sol\":1475:1576  function getBalance() external view returns (uint256) {... */\n    tag_4:\n      callvalue\n      dup1\n      iszero\n      tag_15\n      jumpi\n      0x00\n      dup1\n      revert\n    tag_15:\n      pop\n      tag_16\n      tag_17\n      jump\t// in\n    tag_16:\n      mload(0x40)\n      tag_18\n      swap2\n      swap1\n      tag_19\n      jump\t// in\n    tag_18:\n      mload(0x40)\n      dup1\n      swap2\n      sub\n      swap1\n      return\n        /* \"crowdfunding/crowdfunding.sol\":1112:1467  function withdraw3() external {... */\n    tag_5:\n      callvalue\n      dup1\n      iszero\n      tag_20\n      jumpi\n      0x00\n      dup1\n      revert\n    tag_20:\n      pop\n      tag_21\n      tag_22\n      jump\t// in\n    tag_21:\n      stop\n        /* \"crowdfunding/crowdfunding.sol\":89:127  address payable public immutable owner */\n    tag_6:\n      callvalue\n      dup1\n      iszero\n      tag_23\n      jumpi\n      0x00\n      dup1\n      revert\n    tag_23:\n      pop\n      tag_24\n      tag_25\n      jump\t// in\n    tag_24:\n      mload(0x40)\n      tag_26\n      swap2\n      swap1\n      tag_27\n      jump\t// in\n    tag_26:\n      mload(0x40)\n      dup1\n      swap2\n      sub\n      swap1\n      return\n        /* \"crowdfunding/crowdfunding.sol\":718:1104  function withdraw2() external {... */\n    tag_7:\n      callvalue\n      dup1\n      iszero\n      tag_28\n      jumpi\n      0x00\n      dup1\n      revert\n    tag_28:\n      pop\n      tag_29\n      tag_30\n      jump\t// in\n    tag_29:\n      stop\n        /* \"crowdfunding/crowdfunding.sol\":377:710  function withdraw1() external {... */\n    tag_14:\n        /* \"crowdfunding/crowdfunding.sol\":440:445  owner */\n      immutable(\"0x2a80e1ef1d7842f27f2e6be0972bb708b9a135c38860dbe73c27c3486c34f4de\")\n        /* \"crowdfunding/crowdfunding.sol\":426:445  msg.sender == owner */\n      0xffffffffffffffffffffffffffffffffffffffff\n      and\n        /* \"crowdfunding/crowdfunding.sol\":426:436  msg.sender */\n      caller\n        /* \"crowdfunding/crowdfunding.sol\":426:445  msg.sender == owner */\n      0xffffffffffffffffffffffffffffffffffffffff\n      and\n      eq\n        /* \"crowdfunding/crowdfunding.sol\":418:459  require(msg.sender == owner, \"Not owner\") */\n      tag_32\n      jumpi\n      mload(0x40)\n      0x08c379a000000000000000000000000000000000000000000000000000000000\n      dup2\n      mstore\n      0x04\n      add\n      tag_33\n      swap1\n      tag_34\n      jump\t// in\n    tag_33:\n      mload(0x40)\n      dup1\n      swap2\n      sub\n      swap1\n      revert\n    tag_32:\n        /* \"crowdfunding/crowdfunding.sol\":470:484  uint256 amount */\n      0x00\n        /* \"crowdfunding/crowdfunding.sol\":487:490  100 */\n      0x64\n        /* \"crowdfunding/crowdfunding.sol\":470:490  uint256 amount = 100 */\n      swap1\n      pop\n        /* \"crowdfunding/crowdfunding.sol\":568:574  amount */\n      dup1\n        /* \"crowdfunding/crowdfunding.sol\":543:564  address(this).balance */\n      selfbalance\n        /* \"crowdfunding/crowdfunding.sol\":543:574  address(this).balance >= amount */\n      lt\n      iszero\n        /* \"crowdfunding/crowdfunding.sol\":535:599  require(address(this).balance >= amount, \"Insufficient balance\") */\n      tag_35\n      jumpi\n      mload(0x40)\n      0x08c379a000000000000000000000000000000000000000000000000000000000\n      dup2\n      mstore\n      0x04\n      add\n      tag_36\n      swap1\n      tag_37\n      jump\t// in\n    tag_36:\n      mload(0x40)\n      dup1\n      swap2\n      sub\n      swap1\n      revert\n    tag_35:\n        /* \"crowdfunding/crowdfunding.sol\":618:628  msg.sender */\n      caller\n        /* \"crowdfunding/crowdfunding.sol\":610:638  payable(msg.sender).transfer */\n      0xffffffffffffffffffffffffffffffffffffffff\n      and\n        /* \"crowdfunding/crowdfunding.sol\":610:646  payable(msg.sender).transfer(amount) */\n      0x08fc\n        /* \"crowdfunding/crowdfunding.sol\":639:645  amount */\n      dup3\n        /* \"crowdfunding/crowdfunding.sol\":610:646  payable(msg.sender).transfer(amount) */\n      swap1\n      dup2\n      iszero\n      mul\n      swap1\n      mload(0x40)\n      0x00\n      mload(0x40)\n      dup1\n      dup4\n      sub\n      dup2\n      dup6\n      dup9\n      dup9\n      call\n      swap4\n      pop\n      pop\n      pop\n      pop\n      iszero\n      dup1\n      iszero\n      tag_39\n      jumpi\n      returndatasize\n      0x00\n      dup1\n      returndatacopy\n      revert(0x00, returndatasize)\n    tag_39:\n      pop\n        /* \"crowdfunding/crowdfunding.sol\":662:702  Log(\"withdraw1\", msg.sender, amount, \"\") */\n      0xf7f75251dee7d7fc22deac3247729ebe7c86541f35930bf10c2a4207479a3b6c\n        /* \"crowdfunding/crowdfunding.sol\":679:689  msg.sender */\n      caller\n        /* \"crowdfunding/crowdfunding.sol\":691:697  amount */\n      dup3\n        /* \"crowdfunding/crowdfunding.sol\":662:702  Log(\"withdraw1\", msg.sender, amount, \"\") */\n      mload(0x40)\n      tag_40\n      swap3\n      swap2\n      swap1\n      tag_41\n      jump\t// in\n    tag_40:\n      mload(0x40)\n      dup1\n      swap2\n      sub\n      swap1\n      log1\n        /* \"crowdfunding/crowdfunding.sol\":407:710  {... */\n      pop\n        /* \"crowdfunding/crowdfunding.sol\":377:710  function withdraw1() external {... */\n      jump\t// out\n        /* \"crowdfunding/crowdfunding.sol\":1475:1576  function getBalance() external view returns (uint256) {... */\n    tag_17:\n        /* \"crowdfunding/crowdfunding.sol\":1520:1527  uint256 */\n      0x00\n        /* \"crowdfunding/crowdfunding.sol\":1547:1568  address(this).balance */\n      selfbalance\n        /* \"crowdfunding/crowdfunding.sol\":1540:1568  return address(this).balance */\n      swap1\n      pop\n        /* \"crowdfunding/crowdfunding.sol\":1475:1576  function getBalance() external view returns (uint256) {... */\n      swap1\n      jump\t// out\n        /* \"crowdfunding/crowdfunding.sol\":1112:1467  function withdraw3() external {... */\n    tag_22:\n        /* \"crowdfunding/crowdfunding.sol\":1175:1180  owner */\n      immutable(\"0x2a80e1ef1d7842f27f2e6be0972bb708b9a135c38860dbe73c27c3486c34f4de\")\n        /* \"crowdfunding/crowdfunding.sol\":1161:1180  msg.sender == owner */\n      0xffffffffffffffffffffffffffffffffffffffff\n      and\n        /* \"crowdfunding/crowdfunding.sol\":1161:1171  msg.sender */\n      caller\n        /* \"crowdfunding/crowdfunding.sol\":1161:1180  msg.sender == owner */\n      0xffffffffffffffffffffffffffffffffffffffff\n      and\n      eq\n        /* \"crowdfunding/crowdfunding.sol\":1153:1194  require(msg.sender == owner, \"Not owner\") */\n      tag_44\n      jumpi\n      mload(0x40)\n      0x08c379a000000000000000000000000000000000000000000000000000000000\n      dup2\n      mstore\n      0x04\n      add\n      tag_45\n      swap1\n      tag_34\n      jump\t// in\n    tag_45:\n      mload(0x40)\n      dup1\n      swap2\n      sub\n      swap1\n      revert\n    tag_44:\n        /* \"crowdfunding/crowdfunding.sol\":1205:1219  uint256 amount */\n      0x00\n        /* \"crowdfunding/crowdfunding.sol\":1222:1243  address(this).balance */\n      selfbalance\n        /* \"crowdfunding/crowdfunding.sol\":1205:1243  uint256 amount = address(this).balance */\n      swap1\n      pop\n        /* \"crowdfunding/crowdfunding.sol\":1271:1272  0 */\n      0x00\n        /* \"crowdfunding/crowdfunding.sol\":1262:1268  amount */\n      dup2\n        /* \"crowdfunding/crowdfunding.sol\":1262:1272  amount > 0 */\n      gt\n        /* \"crowdfunding/crowdfunding.sol\":1254:1297  require(amount > 0, \"Insufficient balance\") */\n      tag_46\n      jumpi\n      mload(0x40)\n      0x08c379a000000000000000000000000000000000000000000000000000000000\n      dup2\n      mstore\n      0x04\n      add\n      tag_47\n      swap1\n      tag_37\n      jump\t// in\n    tag_47:\n      mload(0x40)\n      dup1\n      swap2\n      sub\n      swap1\n      revert\n    tag_46:\n        /* \"crowdfunding/crowdfunding.sol\":1309:1321  bool success */\n      0x00\n        /* \"crowdfunding/crowdfunding.sol\":1327:1337  msg.sender */\n      caller\n        /* \"crowdfunding/crowdfunding.sol\":1327:1342  msg.sender.call */\n      0xffffffffffffffffffffffffffffffffffffffff\n      and\n        /* \"crowdfunding/crowdfunding.sol\":1350:1356  amount */\n      dup3\n        /* \"crowdfunding/crowdfunding.sol\":1327:1361  msg.sender.call{value: amount}(\"\") */\n      mload(0x40)\n      tag_48\n      swap1\n      tag_49\n      jump\t// in\n    tag_48:\n      0x00\n      mload(0x40)\n      dup1\n      dup4\n      sub\n      dup2\n      dup6\n      dup8\n      gas\n      call\n      swap3\n      pop\n      pop\n      pop\n      returndatasize\n      dup1\n      0x00\n      dup2\n      eq\n      tag_52\n      jumpi\n      mload(0x40)\n      swap2\n      pop\n      and(add(returndatasize, 0x3f), not(0x1f))\n      dup3\n      add\n      0x40\n      mstore\n      returndatasize\n      dup3\n      mstore\n      returndatasize\n      0x00\n      0x20\n      dup5\n      add\n      returndatacopy\n      jump(tag_51)\n    tag_52:\n      0x60\n      swap2\n      pop\n    tag_51:\n      pop\n        /* \"crowdfunding/crowdfunding.sol\":1308:1361  (bool success, ) = msg.sender.call{value: amount}(\"\") */\n      pop\n      swap1\n      pop\n        /* \"crowdfunding/crowdfunding.sol\":1380:1387  success */\n      dup1\n        /* \"crowdfunding/crowdfunding.sol\":1372:1403  require(success, \"Call Failed\") */\n      tag_53\n      jumpi\n      mload(0x40)\n      0x08c379a000000000000000000000000000000000000000000000000000000000\n      dup2\n      mstore\n      0x04\n      add\n      tag_54\n      swap1\n      tag_55\n      jump\t// in\n    tag_54:\n      mload(0x40)\n      dup1\n      swap2\n      sub\n      swap1\n      revert\n    tag_53:\n        /* \"crowdfunding/crowdfunding.sol\":1419:1459  Log(\"withdraw3\", msg.sender, amount, \"\") */\n      0xf7f75251dee7d7fc22deac3247729ebe7c86541f35930bf10c2a4207479a3b6c\n        /* \"crowdfunding/crowdfunding.sol\":1436:1446  msg.sender */\n      caller\n        /* \"crowdfunding/crowdfunding.sol\":1448:1454  amount */\n      dup4\n        /* \"crowdfunding/crowdfunding.sol\":1419:1459  Log(\"withdraw3\", msg.sender, amount, \"\") */\n      mload(0x40)\n      tag_56\n      swap3\n      swap2\n      swap1\n      tag_57\n      jump\t// in\n    tag_56:\n      mload(0x40)\n      dup1\n      swap2\n      sub\n      swap1\n      log1\n        /* \"crowdfunding/crowdfunding.sol\":1142:1467  {... */\n      pop\n      pop\n        /* \"crowdfunding/crowdfunding.sol\":1112:1467  function withdraw3() external {... */\n      jump\t// out\n        /* \"crowdfunding/crowdfunding.sol\":89:127  address payable public immutable owner */\n    tag_25:\n      immutable(\"0x2a80e1ef1d7842f27f2e6be0972bb708b9a135c38860dbe73c27c3486c34f4de\")\n      dup2\n      jump\t// out\n        /* \"crowdfunding/crowdfunding.sol\":718:1104  function withdraw2() external {... */\n    tag_30:\n        /* \"crowdfunding/crowdfunding.sol\":781:786  owner */\n      immutable(\"0x2a80e1ef1d7842f27f2e6be0972bb708b9a135c38860dbe73c27c3486c34f4de\")\n        /* \"crowdfunding/crowdfunding.sol\":767:786  msg.sender == owner */\n      0xffffffffffffffffffffffffffffffffffffffff\n      and\n        /* \"crowdfunding/crowdfunding.sol\":767:777  msg.sender */\n      caller\n        /* \"crowdfunding/crowdfunding.sol\":767:786  msg.sender == owner */\n      0xffffffffffffffffffffffffffffffffffffffff\n      and\n      eq\n        /* \"crowdfunding/crowdfunding.sol\":759:800  require(msg.sender == owner, \"Not owner\") */\n      tag_59\n      jumpi\n      mload(0x40)\n      0x08c379a000000000000000000000000000000000000000000000000000000000\n      dup2\n      mstore\n      0x04\n      add\n      tag_60\n      swap1\n      tag_34\n      jump\t// in\n    tag_60:\n      mload(0x40)\n      dup1\n      swap2\n      sub\n      swap1\n      revert\n    tag_59:\n        /* \"crowdfunding/crowdfunding.sol\":811:825  uint256 amount */\n      0x00\n        /* \"crowdfunding/crowdfunding.sol\":828:831  200 */\n      0xc8\n        /* \"crowdfunding/crowdfunding.sol\":811:831  uint256 amount = 200 */\n      swap1\n      pop\n        /* \"crowdfunding/crowdfunding.sol\":909:915  amount */\n      dup1\n        /* \"crowdfunding/crowdfunding.sol\":884:905  address(this).balance */\n      selfbalance\n        /* \"crowdfunding/crowdfunding.sol\":884:915  address(this).balance >= amount */\n      lt\n      iszero\n        /* \"crowdfunding/crowdfunding.sol\":876:940  require(address(this).balance >= amount, \"Insufficient balance\") */\n      tag_61\n      jumpi\n      mload(0x40)\n      0x08c379a000000000000000000000000000000000000000000000000000000000\n      dup2\n      mstore\n      0x04\n      add\n      tag_62\n      swap1\n      tag_37\n      jump\t// in\n    tag_62:\n      mload(0x40)\n      dup1\n      swap2\n      sub\n      swap1\n      revert\n    tag_61:\n        /* \"crowdfunding/crowdfunding.sol\":951:963  bool success */\n      0x00\n        /* \"crowdfunding/crowdfunding.sol\":974:984  msg.sender */\n      caller\n        /* \"crowdfunding/crowdfunding.sol\":966:990  payable(msg.sender).send */\n      0xffffffffffffffffffffffffffffffffffffffff\n      and\n        /* \"crowdfunding/crowdfunding.sol\":966:998  payable(msg.sender).send(amount) */\n      0x08fc\n        /* \"crowdfunding/crowdfunding.sol\":991:997  amount */\n      dup4\n        /* \"crowdfunding/crowdfunding.sol\":966:998  payable(msg.sender).send(amount) */\n      swap1\n      dup2\n      iszero\n      mul\n      swap1\n      mload(0x40)\n      0x00\n      mload(0x40)\n      dup1\n      dup4\n      sub\n      dup2\n      dup6\n      dup9\n      dup9\n      call\n      swap4\n      pop\n      pop\n      pop\n      pop\n        /* \"crowdfunding/crowdfunding.sol\":951:998  bool success = payable(msg.sender).send(amount) */\n      swap1\n      pop\n        /* \"crowdfunding/crowdfunding.sol\":1017:1024  success */\n      dup1\n        /* \"crowdfunding/crowdfunding.sol\":1009:1040  require(success, \"Send Failed\") */\n      tag_64\n      jumpi\n      mload(0x40)\n      0x08c379a000000000000000000000000000000000000000000000000000000000\n      dup2\n      mstore\n      0x04\n      add\n      tag_65\n      swap1\n      tag_66\n      jump\t// in\n    tag_65:\n      mload(0x40)\n      dup1\n      swap2\n      sub\n      swap1\n      revert\n    tag_64:\n        /* \"crowdfunding/crowdfunding.sol\":1056:1096  Log(\"withdraw2\", msg.sender, amount, \"\") */\n      0xf7f75251dee7d7fc22deac3247729ebe7c86541f35930bf10c2a4207479a3b6c\n        /* \"crowdfunding/crowdfunding.sol\":1073:1083  msg.sender */\n      caller\n        /* \"crowdfunding/crowdfunding.sol\":1085:1091  amount */\n      dup4\n        /* \"crowdfunding/crowdfunding.sol\":1056:1096  Log(\"withdraw2\", msg.sender, amount, \"\") */\n      mload(0x40)\n      tag_67\n      swap3\n      swap2\n      swap1\n      tag_68\n      jump\t// in\n    tag_67:\n      mload(0x40)\n      dup1\n      swap2\n      sub\n      swap1\n      log1\n        /* \"crowdfunding/crowdfunding.sol\":748:1104  {... */\n      pop\n      pop\n        /* \"crowdfunding/crowdfunding.sol\":718:1104  function withdraw2() external {... */\n      jump\t// out\n        /* \"#utility.yul\":7:176   */\n    tag_69:\n        /* \"#utility.yul\":91:102   */\n      0x00\n        /* \"#utility.yul\":125:131   */\n      dup3\n        /* \"#utility.yul\":120:123   */\n      dup3\n        /* \"#utility.yul\":113:132   */\n      mstore\n        /* \"#utility.yul\":165:169   */\n      0x20\n        /* \"#utility.yul\":160:163   */\n      dup3\n        /* \"#utility.yul\":156:170   */\n      add\n        /* \"#utility.yul\":141:170   */\n      swap1\n      pop\n        /* \"#utility.yul\":7:176   */\n      swap3\n      swap2\n      pop\n      pop\n      jump\t// out\n        /* \"#utility.yul\":182:339   */\n    tag_70:\n        /* \"#utility.yul\":322:331   */\n      0x7265636569766500000000000000000000000000000000000000000000000000\n        /* \"#utility.yul\":318:319   */\n      0x00\n        /* \"#utility.yul\":310:316   */\n      dup3\n        /* \"#utility.yul\":306:320   */\n      add\n        /* \"#utility.yul\":299:332   */\n      mstore\n        /* \"#utility.yul\":182:339   */\n      pop\n      jump\t// out\n        /* \"#utility.yul\":345:710   */\n    tag_71:\n        /* \"#utility.yul\":487:490   */\n      0x00\n        /* \"#utility.yul\":508:574   */\n      tag_102\n        /* \"#utility.yul\":572:573   */\n      0x07\n        /* \"#utility.yul\":567:570   */\n      dup4\n        /* \"#utility.yul\":508:574   */\n      tag_69\n      jump\t// in\n    tag_102:\n        /* \"#utility.yul\":501:574   */\n      swap2\n      pop\n        /* \"#utility.yul\":583:676   */\n      tag_103\n        /* \"#utility.yul\":672:675   */\n      dup3\n        /* \"#utility.yul\":583:676   */\n      tag_70\n      jump\t// in\n    tag_103:\n        /* \"#utility.yul\":701:703   */\n      0x20\n        /* \"#utility.yul\":696:699   */\n      dup3\n        /* \"#utility.yul\":692:704   */\n      add\n        /* \"#utility.yul\":685:704   */\n      swap1\n      pop\n        /* \"#utility.yul\":345:710   */\n      swap2\n      swap1\n      pop\n      jump\t// out\n        /* \"#utility.yul\":716:842   */\n    tag_72:\n        /* \"#utility.yul\":753:760   */\n      0x00\n        /* \"#utility.yul\":793:835   */\n      0xffffffffffffffffffffffffffffffffffffffff\n        /* \"#utility.yul\":786:791   */\n      dup3\n        /* \"#utility.yul\":782:836   */\n      and\n        /* \"#utility.yul\":771:836   */\n      swap1\n      pop\n        /* \"#utility.yul\":716:842   */\n      swap2\n      swap1\n      pop\n      jump\t// out\n        /* \"#utility.yul\":848:944   */\n    tag_73:\n        /* \"#utility.yul\":885:892   */\n      0x00\n        /* \"#utility.yul\":914:938   */\n      tag_106\n        /* \"#utility.yul\":932:937   */\n      dup3\n        /* \"#utility.yul\":914:938   */\n      tag_72\n      jump\t// in\n    tag_106:\n        /* \"#utility.yul\":903:938   */\n      swap1\n      pop\n        /* \"#utility.yul\":848:944   */\n      swap2\n      swap1\n      pop\n      jump\t// out\n        /* \"#utility.yul\":950:1068   */\n    tag_74:\n        /* \"#utility.yul\":1037:1061   */\n      tag_108\n        /* \"#utility.yul\":1055:1060   */\n      dup2\n        /* \"#utility.yul\":1037:1061   */\n      tag_73\n      jump\t// in\n    tag_108:\n        /* \"#utility.yul\":1032:1035   */\n      dup3\n        /* \"#utility.yul\":1025:1062   */\n      mstore\n        /* \"#utility.yul\":950:1068   */\n      pop\n      pop\n      jump\t// out\n        /* \"#utility.yul\":1074:1151   */\n    tag_75:\n        /* \"#utility.yul\":1111:1118   */\n      0x00\n        /* \"#utility.yul\":1140:1145   */\n      dup2\n        /* \"#utility.yul\":1129:1145   */\n      swap1\n      pop\n        /* \"#utility.yul\":1074:1151   */\n      swap2\n      swap1\n      pop\n      jump\t// out\n        /* \"#utility.yul\":1157:1275   */\n    tag_76:\n        /* \"#utility.yul\":1244:1268   */\n      tag_111\n        /* \"#utility.yul\":1262:1267   */\n      dup2\n        /* \"#utility.yul\":1244:1268   */\n      tag_75\n      jump\t// in\n    tag_111:\n        /* \"#utility.yul\":1239:1242   */\n      dup3\n        /* \"#utility.yul\":1232:1269   */\n      mstore\n        /* \"#utility.yul\":1157:1275   */\n      pop\n      pop\n      jump\t// out\n        /* \"#utility.yul\":1281:1449   */\n    tag_77:\n        /* \"#utility.yul\":1364:1375   */\n      0x00\n        /* \"#utility.yul\":1398:1404   */\n      dup3\n        /* \"#utility.yul\":1393:1396   */\n      dup3\n        /* \"#utility.yul\":1386:1405   */\n      mstore\n        /* \"#utility.yul\":1438:1442   */\n      0x20\n        /* \"#utility.yul\":1433:1436   */\n      dup3\n        /* \"#utility.yul\":1429:1443   */\n      add\n        /* \"#utility.yul\":1414:1443   */\n      swap1\n      pop\n        /* \"#utility.yul\":1281:1449   */\n      swap3\n      swap2\n      pop\n      pop\n      jump\t// out\n        /* \"#utility.yul\":1455:1569   */\n    tag_78:\n      pop\n      jump\t// out\n        /* \"#utility.yul\":1575:1937   */\n    tag_79:\n        /* \"#utility.yul\":1716:1719   */\n      0x00\n        /* \"#utility.yul\":1737:1802   */\n      tag_115\n        /* \"#utility.yul\":1800:1801   */\n      0x00\n        /* \"#utility.yul\":1795:1798   */\n      dup4\n        /* \"#utility.yul\":1737:1802   */\n      tag_77\n      jump\t// in\n    tag_115:\n        /* \"#utility.yul\":1730:1802   */\n      swap2\n      pop\n        /* \"#utility.yul\":1811:1904   */\n      tag_116\n        /* \"#utility.yul\":1900:1903   */\n      dup3\n        /* \"#utility.yul\":1811:1904   */\n      tag_78\n      jump\t// in\n    tag_116:\n        /* \"#utility.yul\":1929:1930   */\n      0x00\n        /* \"#utility.yul\":1924:1927   */\n      dup3\n        /* \"#utility.yul\":1920:1931   */\n      add\n        /* \"#utility.yul\":1913:1931   */\n      swap1\n      pop\n        /* \"#utility.yul\":1575:1937   */\n      swap2\n      swap1\n      pop\n      jump\t// out\n        /* \"#utility.yul\":1943:2888   */\n    tag_11:\n        /* \"#utility.yul\":2265:2269   */\n      0x00\n        /* \"#utility.yul\":2303:2306   */\n      0x80\n        /* \"#utility.yul\":2292:2301   */\n      dup3\n        /* \"#utility.yul\":2288:2307   */\n      add\n        /* \"#utility.yul\":2280:2307   */\n      swap1\n      pop\n        /* \"#utility.yul\":2353:2362   */\n      dup2\n        /* \"#utility.yul\":2347:2351   */\n      dup2\n        /* \"#utility.yul\":2343:2363   */\n      sub\n        /* \"#utility.yul\":2339:2340   */\n      0x00\n        /* \"#utility.yul\":2328:2337   */\n      dup4\n        /* \"#utility.yul\":2324:2341   */\n      add\n        /* \"#utility.yul\":2317:2364   */\n      mstore\n        /* \"#utility.yul\":2381:2512   */\n      tag_118\n        /* \"#utility.yul\":2507:2511   */\n      dup2\n        /* \"#utility.yul\":2381:2512   */\n      tag_71\n      jump\t// in\n    tag_118:\n        /* \"#utility.yul\":2373:2512   */\n      swap1\n      pop\n        /* \"#utility.yul\":2522:2594   */\n      tag_119\n        /* \"#utility.yul\":2590:2592   */\n      0x20\n        /* \"#utility.yul\":2579:2588   */\n      dup4\n        /* \"#utility.yul\":2575:2593   */\n      add\n        /* \"#utility.yul\":2566:2572   */\n      dup6\n        /* \"#utility.yul\":2522:2594   */\n      tag_74\n      jump\t// in\n    tag_119:\n        /* \"#utility.yul\":2604:2676   */\n      tag_120\n        /* \"#utility.yul\":2672:2674   */\n      0x40\n        /* \"#utility.yul\":2661:2670   */\n      dup4\n        /* \"#utility.yul\":2657:2675   */\n      add\n        /* \"#utility.yul\":2648:2654   */\n      dup5\n        /* \"#utility.yul\":2604:2676   */\n      tag_76\n      jump\t// in\n    tag_120:\n        /* \"#utility.yul\":2723:2732   */\n      dup2\n        /* \"#utility.yul\":2717:2721   */\n      dup2\n        /* \"#utility.yul\":2713:2733   */\n      sub\n        /* \"#utility.yul\":2708:2710   */\n      0x60\n        /* \"#utility.yul\":2697:2706   */\n      dup4\n        /* \"#utility.yul\":2693:2711   */\n      add\n        /* \"#utility.yul\":2686:2734   */\n      mstore\n        /* \"#utility.yul\":2751:2881   */\n      tag_121\n        /* \"#utility.yul\":2876:2880   */\n      dup2\n        /* \"#utility.yul\":2751:2881   */\n      tag_79\n      jump\t// in\n    tag_121:\n        /* \"#utility.yul\":2743:2881   */\n      swap1\n      pop\n        /* \"#utility.yul\":1943:2888   */\n      swap4\n      swap3\n      pop\n      pop\n      pop\n      jump\t// out\n        /* \"#utility.yul\":2894:3116   */\n    tag_19:\n        /* \"#utility.yul\":2987:2991   */\n      0x00\n        /* \"#utility.yul\":3025:3027   */\n      0x20\n        /* \"#utility.yul\":3014:3023   */\n      dup3\n        /* \"#utility.yul\":3010:3028   */\n      add\n        /* \"#utility.yul\":3002:3028   */\n      swap1\n      pop\n        /* \"#utility.yul\":3038:3109   */\n      tag_123\n        /* \"#utility.yul\":3106:3107   */\n      0x00\n        /* \"#utility.yul\":3095:3104   */\n      dup4\n        /* \"#utility.yul\":3091:3108   */\n      add\n        /* \"#utility.yul\":3082:3088   */\n      dup5\n        /* \"#utility.yul\":3038:3109   */\n      tag_76\n      jump\t// in\n    tag_123:\n        /* \"#utility.yul\":2894:3116   */\n      swap3\n      swap2\n      pop\n      pop\n      jump\t// out\n        /* \"#utility.yul\":3122:3226   */\n    tag_80:\n        /* \"#utility.yul\":3167:3174   */\n      0x00\n        /* \"#utility.yul\":3196:3220   */\n      tag_125\n        /* \"#utility.yul\":3214:3219   */\n      dup3\n        /* \"#utility.yul\":3196:3220   */\n      tag_72\n      jump\t// in\n    tag_125:\n        /* \"#utility.yul\":3185:3220   */\n      swap1\n      pop\n        /* \"#utility.yul\":3122:3226   */\n      swap2\n      swap1\n      pop\n      jump\t// out\n        /* \"#utility.yul\":3232:3374   */\n    tag_81:\n        /* \"#utility.yul\":3335:3367   */\n      tag_127\n        /* \"#utility.yul\":3361:3366   */\n      dup2\n        /* \"#utility.yul\":3335:3367   */\n      tag_80\n      jump\t// in\n    tag_127:\n        /* \"#utility.yul\":3330:3333   */\n      dup3\n        /* \"#utility.yul\":3323:3368   */\n      mstore\n        /* \"#utility.yul\":3232:3374   */\n      pop\n      pop\n      jump\t// out\n        /* \"#utility.yul\":3380:3634   */\n    tag_27:\n        /* \"#utility.yul\":3489:3493   */\n      0x00\n        /* \"#utility.yul\":3527:3529   */\n      0x20\n        /* \"#utility.yul\":3516:3525   */\n      dup3\n        /* \"#utility.yul\":3512:3530   */\n      add\n        /* \"#utility.yul\":3504:3530   */\n      swap1\n      pop\n        /* \"#utility.yul\":3540:3627   */\n      tag_129\n        /* \"#utility.yul\":3624:3625   */\n      0x00\n        /* \"#utility.yul\":3613:3622   */\n      dup4\n        /* \"#utility.yul\":3609:3626   */\n      add\n        /* \"#utility.yul\":3600:3606   */\n      dup5\n        /* \"#utility.yul\":3540:3627   */\n      tag_81\n      jump\t// in\n    tag_129:\n        /* \"#utility.yul\":3380:3634   */\n      swap3\n      swap2\n      pop\n      pop\n      jump\t// out\n        /* \"#utility.yul\":3640:3799   */\n    tag_82:\n        /* \"#utility.yul\":3780:3791   */\n      0x4e6f74206f776e65720000000000000000000000000000000000000000000000\n        /* \"#utility.yul\":3776:3777   */\n      0x00\n        /* \"#utility.yul\":3768:3774   */\n      dup3\n        /* \"#utility.yul\":3764:3778   */\n      add\n        /* \"#utility.yul\":3757:3792   */\n      mstore\n        /* \"#utility.yul\":3640:3799   */\n      pop\n      jump\t// out\n        /* \"#utility.yul\":3805:4170   */\n    tag_83:\n        /* \"#utility.yul\":3947:3950   */\n      0x00\n        /* \"#utility.yul\":3968:4034   */\n      tag_132\n        /* \"#utility.yul\":4032:4033   */\n      0x09\n        /* \"#utility.yul\":4027:4030   */\n      dup4\n        /* \"#utility.yul\":3968:4034   */\n      tag_69\n      jump\t// in\n    tag_132:\n        /* \"#utility.yul\":3961:4034   */\n      swap2\n      pop\n        /* \"#utility.yul\":4043:4136   */\n      tag_133\n        /* \"#utility.yul\":4132:4135   */\n      dup3\n        /* \"#utility.yul\":4043:4136   */\n      tag_82\n      jump\t// in\n    tag_133:\n        /* \"#utility.yul\":4161:4163   */\n      0x20\n        /* \"#utility.yul\":4156:4159   */\n      dup3\n        /* \"#utility.yul\":4152:4164   */\n      add\n        /* \"#utility.yul\":4145:4164   */\n      swap1\n      pop\n        /* \"#utility.yul\":3805:4170   */\n      swap2\n      swap1\n      pop\n      jump\t// out\n        /* \"#utility.yul\":4176:4595   */\n    tag_34:\n        /* \"#utility.yul\":4342:4346   */\n      0x00\n        /* \"#utility.yul\":4380:4382   */\n      0x20\n        /* \"#utility.yul\":4369:4378   */\n      dup3\n        /* \"#utility.yul\":4365:4383   */\n      add\n        /* \"#utility.yul\":4357:4383   */\n      swap1\n      pop\n        /* \"#utility.yul\":4429:4438   */\n      dup2\n        /* \"#utility.yul\":4423:4427   */\n      dup2\n        /* \"#utility.yul\":4419:4439   */\n      sub\n        /* \"#utility.yul\":4415:4416   */\n      0x00\n        /* \"#utility.yul\":4404:4413   */\n      dup4\n        /* \"#utility.yul\":4400:4417   */\n      add\n        /* \"#utility.yul\":4393:4440   */\n      mstore\n        /* \"#utility.yul\":4457:4588   */\n      tag_135\n        /* \"#utility.yul\":4583:4587   */\n      dup2\n        /* \"#utility.yul\":4457:4588   */\n      tag_83\n      jump\t// in\n    tag_135:\n        /* \"#utility.yul\":4449:4588   */\n      swap1\n      pop\n        /* \"#utility.yul\":4176:4595   */\n      swap2\n      swap1\n      pop\n      jump\t// out\n        /* \"#utility.yul\":4601:4771   */\n    tag_84:\n        /* \"#utility.yul\":4741:4763   */\n      0x496e73756666696369656e742062616c616e6365000000000000000000000000\n        /* \"#utility.yul\":4737:4738   */\n      0x00\n        /* \"#utility.yul\":4729:4735   */\n      dup3\n        /* \"#utility.yul\":4725:4739   */\n      add\n        /* \"#utility.yul\":4718:4764   */\n      mstore\n        /* \"#utility.yul\":4601:4771   */\n      pop\n      jump\t// out\n        /* \"#utility.yul\":4777:5143   */\n    tag_85:\n        /* \"#utility.yul\":4919:4922   */\n      0x00\n        /* \"#utility.yul\":4940:5007   */\n      tag_138\n        /* \"#utility.yul\":5004:5006   */\n      0x14\n        /* \"#utility.yul\":4999:5002   */\n      dup4\n        /* \"#utility.yul\":4940:5007   */\n      tag_69\n      jump\t// in\n    tag_138:\n        /* \"#utility.yul\":4933:5007   */\n      swap2\n      pop\n        /* \"#utility.yul\":5016:5109   */\n      tag_139\n        /* \"#utility.yul\":5105:5108   */\n      dup3\n        /* \"#utility.yul\":5016:5109   */\n      tag_84\n      jump\t// in\n    tag_139:\n        /* \"#utility.yul\":5134:5136   */\n      0x20\n        /* \"#utility.yul\":5129:5132   */\n      dup3\n        /* \"#utility.yul\":5125:5137   */\n      add\n        /* \"#utility.yul\":5118:5137   */\n      swap1\n      pop\n        /* \"#utility.yul\":4777:5143   */\n      swap2\n      swap1\n      pop\n      jump\t// out\n        /* \"#utility.yul\":5149:5568   */\n    tag_37:\n        /* \"#utility.yul\":5315:5319   */\n      0x00\n        /* \"#utility.yul\":5353:5355   */\n      0x20\n        /* \"#utility.yul\":5342:5351   */\n      dup3\n        /* \"#utility.yul\":5338:5356   */\n      add\n        /* \"#utility.yul\":5330:5356   */\n      swap1\n      pop\n        /* \"#utility.yul\":5402:5411   */\n      dup2\n        /* \"#utility.yul\":5396:5400   */\n      dup2\n        /* \"#utility.yul\":5392:5412   */\n      sub\n        /* \"#utility.yul\":5388:5389   */\n      0x00\n        /* \"#utility.yul\":5377:5386   */\n      dup4\n        /* \"#utility.yul\":5373:5390   */\n      add\n        /* \"#utility.yul\":5366:5413   */\n      mstore\n        /* \"#utility.yul\":5430:5561   */\n      tag_141\n        /* \"#utility.yul\":5556:5560   */\n      dup2\n        /* \"#utility.yul\":5430:5561   */\n      tag_85\n      jump\t// in\n    tag_141:\n        /* \"#utility.yul\":5422:5561   */\n      swap1\n      pop\n        /* \"#utility.yul\":5149:5568   */\n      swap2\n      swap1\n      pop\n      jump\t// out\n        /* \"#utility.yul\":5574:5733   */\n    tag_86:\n        /* \"#utility.yul\":5714:5725   */\n      0x7769746864726177310000000000000000000000000000000000000000000000\n        /* \"#utility.yul\":5710:5711   */\n      0x00\n        /* \"#utility.yul\":5702:5708   */\n      dup3\n        /* \"#utility.yul\":5698:5712   */\n      add\n        /* \"#utility.yul\":5691:5726   */\n      mstore\n        /* \"#utility.yul\":5574:5733   */\n      pop\n      jump\t// out\n        /* \"#utility.yul\":5739:6104   */\n    tag_87:\n        /* \"#utility.yul\":5881:5884   */\n      0x00\n        /* \"#utility.yul\":5902:5968   */\n      tag_144\n        /* \"#utility.yul\":5966:5967   */\n      0x09\n        /* \"#utility.yul\":5961:5964   */\n      dup4\n        /* \"#utility.yul\":5902:5968   */\n      tag_69\n      jump\t// in\n    tag_144:\n        /* \"#utility.yul\":5895:5968   */\n      swap2\n      pop\n        /* \"#utility.yul\":5977:6070   */\n      tag_145\n        /* \"#utility.yul\":6066:6069   */\n      dup3\n        /* \"#utility.yul\":5977:6070   */\n      tag_86\n      jump\t// in\n    tag_145:\n        /* \"#utility.yul\":6095:6097   */\n      0x20\n        /* \"#utility.yul\":6090:6093   */\n      dup3\n        /* \"#utility.yul\":6086:6098   */\n      add\n        /* \"#utility.yul\":6079:6098   */\n      swap1\n      pop\n        /* \"#utility.yul\":5739:6104   */\n      swap2\n      swap1\n      pop\n      jump\t// out\n        /* \"#utility.yul\":6110:7055   */\n    tag_41:\n        /* \"#utility.yul\":6432:6436   */\n      0x00\n        /* \"#utility.yul\":6470:6473   */\n      0x80\n        /* \"#utility.yul\":6459:6468   */\n      dup3\n        /* \"#utility.yul\":6455:6474   */\n      add\n        /* \"#utility.yul\":6447:6474   */\n      swap1\n      pop\n        /* \"#utility.yul\":6520:6529   */\n      dup2\n        /* \"#utility.yul\":6514:6518   */\n      dup2\n        /* \"#utility.yul\":6510:6530   */\n      sub\n        /* \"#utility.yul\":6506:6507   */\n      0x00\n        /* \"#utility.yul\":6495:6504   */\n      dup4\n        /* \"#utility.yul\":6491:6508   */\n      add\n        /* \"#utility.yul\":6484:6531   */\n      mstore\n        /* \"#utility.yul\":6548:6679   */\n      tag_147\n        /* \"#utility.yul\":6674:6678   */\n      dup2\n        /* \"#utility.yul\":6548:6679   */\n      tag_87\n      jump\t// in\n    tag_147:\n        /* \"#utility.yul\":6540:6679   */\n      swap1\n      pop\n        /* \"#utility.yul\":6689:6761   */\n      tag_148\n        /* \"#utility.yul\":6757:6759   */\n      0x20\n        /* \"#utility.yul\":6746:6755   */\n      dup4\n        /* \"#utility.yul\":6742:6760   */\n      add\n        /* \"#utility.yul\":6733:6739   */\n      dup6\n        /* \"#utility.yul\":6689:6761   */\n      tag_74\n      jump\t// in\n    tag_148:\n        /* \"#utility.yul\":6771:6843   */\n      tag_149\n        /* \"#utility.yul\":6839:6841   */\n      0x40\n        /* \"#utility.yul\":6828:6837   */\n      dup4\n        /* \"#utility.yul\":6824:6842   */\n      add\n        /* \"#utility.yul\":6815:6821   */\n      dup5\n        /* \"#utility.yul\":6771:6843   */\n      tag_76\n      jump\t// in\n    tag_149:\n        /* \"#utility.yul\":6890:6899   */\n      dup2\n        /* \"#utility.yul\":6884:6888   */\n      dup2\n        /* \"#utility.yul\":6880:6900   */\n      sub\n        /* \"#utility.yul\":6875:6877   */\n      0x60\n        /* \"#utility.yul\":6864:6873   */\n      dup4\n        /* \"#utility.yul\":6860:6878   */\n      add\n        /* \"#utility.yul\":6853:6901   */\n      mstore\n        /* \"#utility.yul\":6918:7048   */\n      tag_150\n        /* \"#utility.yul\":7043:7047   */\n      dup2\n        /* \"#utility.yul\":6918:7048   */\n      tag_79\n      jump\t// in\n    tag_150:\n        /* \"#utility.yul\":6910:7048   */\n      swap1\n      pop\n        /* \"#utility.yul\":6110:7055   */\n      swap4\n      swap3\n      pop\n      pop\n      pop\n      jump\t// out\n        /* \"#utility.yul\":7061:7208   */\n    tag_88:\n        /* \"#utility.yul\":7162:7173   */\n      0x00\n        /* \"#utility.yul\":7199:7202   */\n      dup2\n        /* \"#utility.yul\":7184:7202   */\n      swap1\n      pop\n        /* \"#utility.yul\":7061:7208   */\n      swap3\n      swap2\n      pop\n      pop\n      jump\t// out\n        /* \"#utility.yul\":7214:7612   */\n    tag_89:\n        /* \"#utility.yul\":7373:7376   */\n      0x00\n        /* \"#utility.yul\":7394:7477   */\n      tag_153\n        /* \"#utility.yul\":7475:7476   */\n      0x00\n        /* \"#utility.yul\":7470:7473   */\n      dup4\n        /* \"#utility.yul\":7394:7477   */\n      tag_88\n      jump\t// in\n    tag_153:\n        /* \"#utility.yul\":7387:7477   */\n      swap2\n      pop\n        /* \"#utility.yul\":7486:7579   */\n      tag_154\n        /* \"#utility.yul\":7575:7578   */\n      dup3\n        /* \"#utility.yul\":7486:7579   */\n      tag_78\n      jump\t// in\n    tag_154:\n        /* \"#utility.yul\":7604:7605   */\n      0x00\n        /* \"#utility.yul\":7599:7602   */\n      dup3\n        /* \"#utility.yul\":7595:7606   */\n      add\n        /* \"#utility.yul\":7588:7606   */\n      swap1\n      pop\n        /* \"#utility.yul\":7214:7612   */\n      swap2\n      swap1\n      pop\n      jump\t// out\n        /* \"#utility.yul\":7618:7997   */\n    tag_49:\n        /* \"#utility.yul\":7802:7805   */\n      0x00\n        /* \"#utility.yul\":7824:7971   */\n      tag_156\n        /* \"#utility.yul\":7967:7970   */\n      dup3\n        /* \"#utility.yul\":7824:7971   */\n      tag_89\n      jump\t// in\n    tag_156:\n        /* \"#utility.yul\":7817:7971   */\n      swap2\n      pop\n        /* \"#utility.yul\":7988:7991   */\n      dup2\n        /* \"#utility.yul\":7981:7991   */\n      swap1\n      pop\n        /* \"#utility.yul\":7618:7997   */\n      swap2\n      swap1\n      pop\n      jump\t// out\n        /* \"#utility.yul\":8003:8164   */\n    tag_90:\n        /* \"#utility.yul\":8143:8156   */\n      0x43616c6c204661696c6564000000000000000000000000000000000000000000\n        /* \"#utility.yul\":8139:8140   */\n      0x00\n        /* \"#utility.yul\":8131:8137   */\n      dup3\n        /* \"#utility.yul\":8127:8141   */\n      add\n        /* \"#utility.yul\":8120:8157   */\n      mstore\n        /* \"#utility.yul\":8003:8164   */\n      pop\n      jump\t// out\n        /* \"#utility.yul\":8170:8536   */\n    tag_91:\n        /* \"#utility.yul\":8312:8315   */\n      0x00\n        /* \"#utility.yul\":8333:8400   */\n      tag_159\n        /* \"#utility.yul\":8397:8399   */\n      0x0b\n        /* \"#utility.yul\":8392:8395   */\n      dup4\n        /* \"#utility.yul\":8333:8400   */\n      tag_69\n      jump\t// in\n    tag_159:\n        /* \"#utility.yul\":8326:8400   */\n      swap2\n      pop\n        /* \"#utility.yul\":8409:8502   */\n      tag_160\n        /* \"#utility.yul\":8498:8501   */\n      dup3\n        /* \"#utility.yul\":8409:8502   */\n      tag_90\n      jump\t// in\n    tag_160:\n        /* \"#utility.yul\":8527:8529   */\n      0x20\n        /* \"#utility.yul\":8522:8525   */\n      dup3\n        /* \"#utility.yul\":8518:8530   */\n      add\n        /* \"#utility.yul\":8511:8530   */\n      swap1\n      pop\n        /* \"#utility.yul\":8170:8536   */\n      swap2\n      swap1\n      pop\n      jump\t// out\n        /* \"#utility.yul\":8542:8961   */\n    tag_55:\n        /* \"#utility.yul\":8708:8712   */\n      0x00\n        /* \"#utility.yul\":8746:8748   */\n      0x20\n        /* \"#utility.yul\":8735:8744   */\n      dup3\n        /* \"#utility.yul\":8731:8749   */\n      add\n        /* \"#utility.yul\":8723:8749   */\n      swap1\n      pop\n        /* \"#utility.yul\":8795:8804   */\n      dup2\n        /* \"#utility.yul\":8789:8793   */\n      dup2\n        /* \"#utility.yul\":8785:8805   */\n      sub\n        /* \"#utility.yul\":8781:8782   */\n      0x00\n        /* \"#utility.yul\":8770:8779   */\n      dup4\n        /* \"#utility.yul\":8766:8783   */\n      add\n        /* \"#utility.yul\":8759:8806   */\n      mstore\n        /* \"#utility.yul\":8823:8954   */\n      tag_162\n        /* \"#utility.yul\":8949:8953   */\n      dup2\n        /* \"#utility.yul\":8823:8954   */\n      tag_91\n      jump\t// in\n    tag_162:\n        /* \"#utility.yul\":8815:8954   */\n      swap1\n      pop\n        /* \"#utility.yul\":8542:8961   */\n      swap2\n      swap1\n      pop\n      jump\t// out\n        /* \"#utility.yul\":8967:9126   */\n    tag_92:\n        /* \"#utility.yul\":9107:9118   */\n      0x7769746864726177330000000000000000000000000000000000000000000000\n        /* \"#utility.yul\":9103:9104   */\n      0x00\n        /* \"#utility.yul\":9095:9101   */\n      dup3\n        /* \"#utility.yul\":9091:9105   */\n      add\n        /* \"#utility.yul\":9084:9119   */\n      mstore\n        /* \"#utility.yul\":8967:9126   */\n      pop\n      jump\t// out\n        /* \"#utility.yul\":9132:9497   */\n    tag_93:\n        /* \"#utility.yul\":9274:9277   */\n      0x00\n        /* \"#utility.yul\":9295:9361   */\n      tag_165\n        /* \"#utility.yul\":9359:9360   */\n      0x09\n        /* \"#utility.yul\":9354:9357   */\n      dup4\n        /* \"#utility.yul\":9295:9361   */\n      tag_69\n      jump\t// in\n    tag_165:\n        /* \"#utility.yul\":9288:9361   */\n      swap2\n      pop\n        /* \"#utility.yul\":9370:9463   */\n      tag_166\n        /* \"#utility.yul\":9459:9462   */\n      dup3\n        /* \"#utility.yul\":9370:9463   */\n      tag_92\n      jump\t// in\n    tag_166:\n        /* \"#utility.yul\":9488:9490   */\n      0x20\n        /* \"#utility.yul\":9483:9486   */\n      dup3\n        /* \"#utility.yul\":9479:9491   */\n      add\n        /* \"#utility.yul\":9472:9491   */\n      swap1\n      pop\n        /* \"#utility.yul\":9132:9497   */\n      swap2\n      swap1\n      pop\n      jump\t// out\n        /* \"#utility.yul\":9503:10448   */\n    tag_57:\n        /* \"#utility.yul\":9825:9829   */\n      0x00\n        /* \"#utility.yul\":9863:9866   */\n      0x80\n        /* \"#utility.yul\":9852:9861   */\n      dup3\n        /* \"#utility.yul\":9848:9867   */\n      add\n        /* \"#utility.yul\":9840:9867   */\n      swap1\n      pop\n        /* \"#utility.yul\":9913:9922   */\n      dup2\n        /* \"#utility.yul\":9907:9911   */\n      dup2\n        /* \"#utility.yul\":9903:9923   */\n      sub\n        /* \"#utility.yul\":9899:9900   */\n      0x00\n        /* \"#utility.yul\":9888:9897   */\n      dup4\n        /* \"#utility.yul\":9884:9901   */\n      add\n        /* \"#utility.yul\":9877:9924   */\n      mstore\n        /* \"#utility.yul\":9941:10072   */\n      tag_168\n        /* \"#utility.yul\":10067:10071   */\n      dup2\n        /* \"#utility.yul\":9941:10072   */\n      tag_93\n      jump\t// in\n    tag_168:\n        /* \"#utility.yul\":9933:10072   */\n      swap1\n      pop\n        /* \"#utility.yul\":10082:10154   */\n      tag_169\n        /* \"#utility.yul\":10150:10152   */\n      0x20\n        /* \"#utility.yul\":10139:10148   */\n      dup4\n        /* \"#utility.yul\":10135:10153   */\n      add\n        /* \"#utility.yul\":10126:10132   */\n      dup6\n        /* \"#utility.yul\":10082:10154   */\n      tag_74\n      jump\t// in\n    tag_169:\n        /* \"#utility.yul\":10164:10236   */\n      tag_170\n        /* \"#utility.yul\":10232:10234   */\n      0x40\n        /* \"#utility.yul\":10221:10230   */\n      dup4\n        /* \"#utility.yul\":10217:10235   */\n      add\n        /* \"#utility.yul\":10208:10214   */\n      dup5\n        /* \"#utility.yul\":10164:10236   */\n      tag_76\n      jump\t// in\n    tag_170:\n        /* \"#utility.yul\":10283:10292   */\n      dup2\n        /* \"#utility.yul\":10277:10281   */\n      dup2\n        /* \"#utility.yul\":10273:10293   */\n      sub\n        /* \"#utility.yul\":10268:10270   */\n      0x60\n        /* \"#utility.yul\":10257:10266   */\n      dup4\n        /* \"#utility.yul\":10253:10271   */\n      add\n        /* \"#utility.yul\":10246:10294   */\n      mstore\n        /* \"#utility.yul\":10311:10441   */\n      tag_171\n        /* \"#utility.yul\":10436:10440   */\n      dup2\n        /* \"#utility.yul\":10311:10441   */\n      tag_79\n      jump\t// in\n    tag_171:\n        /* \"#utility.yul\":10303:10441   */\n      swap1\n      pop\n        /* \"#utility.yul\":9503:10448   */\n      swap4\n      swap3\n      pop\n      pop\n      pop\n      jump\t// out\n        /* \"#utility.yul\":10454:10615   */\n    tag_94:\n        /* \"#utility.yul\":10594:10607   */\n      0x53656e64204661696c6564000000000000000000000000000000000000000000\n        /* \"#utility.yul\":10590:10591   */\n      0x00\n        /* \"#utility.yul\":10582:10588   */\n      dup3\n        /* \"#utility.yul\":10578:10592   */\n      add\n        /* \"#utility.yul\":10571:10608   */\n      mstore\n        /* \"#utility.yul\":10454:10615   */\n      pop\n      jump\t// out\n        /* \"#utility.yul\":10621:10987   */\n    tag_95:\n        /* \"#utility.yul\":10763:10766   */\n      0x00\n        /* \"#utility.yul\":10784:10851   */\n      tag_174\n        /* \"#utility.yul\":10848:10850   */\n      0x0b\n        /* \"#utility.yul\":10843:10846   */\n      dup4\n        /* \"#utility.yul\":10784:10851   */\n      tag_69\n      jump\t// in\n    tag_174:\n        /* \"#utility.yul\":10777:10851   */\n      swap2\n      pop\n        /* \"#utility.yul\":10860:10953   */\n      tag_175\n        /* \"#utility.yul\":10949:10952   */\n      dup3\n        /* \"#utility.yul\":10860:10953   */\n      tag_94\n      jump\t// in\n    tag_175:\n        /* \"#utility.yul\":10978:10980   */\n      0x20\n        /* \"#utility.yul\":10973:10976   */\n      dup3\n        /* \"#utility.yul\":10969:10981   */\n      add\n        /* \"#utility.yul\":10962:10981   */\n      swap1\n      pop\n        /* \"#utility.yul\":10621:10987   */\n      swap2\n      swap1\n      pop\n      jump\t// out\n        /* \"#utility.yul\":10993:11412   */\n    tag_66:\n        /* \"#utility.yul\":11159:11163   */\n      0x00\n        /* \"#utility.yul\":11197:11199   */\n      0x20\n        /* \"#utility.yul\":11186:11195   */\n      dup3\n        /* \"#utility.yul\":11182:11200   */\n      add\n        /* \"#utility.yul\":11174:11200   */\n      swap1\n      pop\n        /* \"#utility.yul\":11246:11255   */\n      dup2\n        /* \"#utility.yul\":11240:11244   */\n      dup2\n        /* \"#utility.yul\":11236:11256   */\n      sub\n        /* \"#utility.yul\":11232:11233   */\n      0x00\n        /* \"#utility.yul\":11221:11230   */\n      dup4\n        /* \"#utility.yul\":11217:11234   */\n      add\n        /* \"#utility.yul\":11210:11257   */\n      mstore\n        /* \"#utility.yul\":11274:11405   */\n      tag_177\n        /* \"#utility.yul\":11400:11404   */\n      dup2\n        /* \"#utility.yul\":11274:11405   */\n      tag_95\n      jump\t// in\n    tag_177:\n        /* \"#utility.yul\":11266:11405   */\n      swap1\n      pop\n        /* \"#utility.yul\":10993:11412   */\n      swap2\n      swap1\n      pop\n      jump\t// out\n        /* \"#utility.yul\":11418:11577   */\n    tag_96:\n        /* \"#utility.yul\":11558:11569   */\n      0x7769746864726177320000000000000000000000000000000000000000000000\n        /* \"#utility.yul\":11554:11555   */\n      0x00\n        /* \"#utility.yul\":11546:11552   */\n      dup3\n        /* \"#utility.yul\":11542:11556   */\n      add\n        /* \"#utility.yul\":11535:11570   */\n      mstore\n        /* \"#utility.yul\":11418:11577   */\n      pop\n      jump\t// out\n        /* \"#utility.yul\":11583:11948   */\n    tag_97:\n        /* \"#utility.yul\":11725:11728   */\n      0x00\n        /* \"#utility.yul\":11746:11812   */\n      tag_180\n        /* \"#utility.yul\":11810:11811   */\n      0x09\n        /* \"#utility.yul\":11805:11808   */\n      dup4\n        /* \"#utility.yul\":11746:11812   */\n      tag_69\n      jump\t// in\n    tag_180:\n        /* \"#utility.yul\":11739:11812   */\n      swap2\n      pop\n        /* \"#utility.yul\":11821:11914   */\n      tag_181\n        /* \"#utility.yul\":11910:11913   */\n      dup3\n        /* \"#utility.yul\":11821:11914   */\n      tag_96\n      jump\t// in\n    tag_181:\n        /* \"#utility.yul\":11939:11941   */\n      0x20\n        /* \"#utility.yul\":11934:11937   */\n      dup3\n        /* \"#utility.yul\":11930:11942   */\n      add\n        /* \"#utility.yul\":11923:11942   */\n      swap1\n      pop\n        /* \"#utility.yul\":11583:11948   */\n      swap2\n      swap1\n      pop\n      jump\t// out\n        /* \"#utility.yul\":11954:12899   */\n    tag_68:\n        /* \"#utility.yul\":12276:12280   */\n      0x00\n        /* \"#utility.yul\":12314:12317   */\n      0x80\n        /* \"#utility.yul\":12303:12312   */\n      dup3\n        /* \"#utility.yul\":12299:12318   */\n      add\n        /* \"#utility.yul\":12291:12318   */\n      swap1\n      pop\n        /* \"#utility.yul\":12364:12373   */\n      dup2\n        /* \"#utility.yul\":12358:12362   */\n      dup2\n        /* \"#utility.yul\":12354:12374   */\n      sub\n        /* \"#utility.yul\":12350:12351   */\n      0x00\n        /* \"#utility.yul\":12339:12348   */\n      dup4\n        /* \"#utility.yul\":12335:12352   */\n      add\n        /* \"#utility.yul\":12328:12375   */\n      mstore\n        /* \"#utility.yul\":12392:12523   */\n      tag_183\n        /* \"#utility.yul\":12518:12522   */\n      dup2\n        /* \"#utility.yul\":12392:12523   */\n      tag_97\n      jump\t// in\n    tag_183:\n        /* \"#utility.yul\":12384:12523   */\n      swap1\n      pop\n        /* \"#utility.yul\":12533:12605   */\n      tag_184\n        /* \"#utility.yul\":12601:12603   */\n      0x20\n        /* \"#utility.yul\":12590:12599   */\n      dup4\n        /* \"#utility.yul\":12586:12604   */\n      add\n        /* \"#utility.yul\":12577:12583   */\n      dup6\n        /* \"#utility.yul\":12533:12605   */\n      tag_74\n      jump\t// in\n    tag_184:\n        /* \"#utility.yul\":12615:12687   */\n      tag_185\n        /* \"#utility.yul\":12683:12685   */\n      0x40\n        /* \"#utility.yul\":12672:12681   */\n      dup4\n        /* \"#utility.yul\":12668:12686   */\n      add\n        /* \"#utility.yul\":12659:12665   */\n      dup5\n        /* \"#utility.yul\":12615:12687   */\n      tag_76\n      jump\t// in\n    tag_185:\n        /* \"#utility.yul\":12734:12743   */\n      dup2\n        /* \"#utility.yul\":12728:12732   */\n      dup2\n        /* \"#utility.yul\":12724:12744   */\n      sub\n        /* \"#utility.yul\":12719:12721   */\n      0x60\n        /* \"#utility.yul\":12708:12717   */\n      dup4\n        /* \"#utility.yul\":12704:12722   */\n      add\n        /* \"#utility.yul\":12697:12745   */\n      mstore\n        /* \"#utility.yul\":12762:12892   */\n      tag_186\n        /* \"#utility.yul\":12887:12891   */\n      dup2\n        /* \"#utility.yul\":12762:12892   */\n      tag_79\n      jump\t// in\n    tag_186:\n        /* \"#utility.yul\":12754:12892   */\n      swap1\n      pop\n        /* \"#utility.yul\":11954:12899   */\n      swap4\n      swap3\n      pop\n      pop\n      pop\n      jump\t// out\n\n    auxdata: 0xa264697066735822122041a2f932616a9d941f083c6be297b7f048141c3c44b4d37ec9faa70d1d17bad764736f6c634300081a0033\n}\n",
				"bytecode": {
					"linkReferences": {},
					"object": "60a0604052348015600e575f80fd5b503373ffffffffffffffffffffffffffffffffffffffff1660808173ffffffffffffffffffffffffffffffffffffffff1681525050608051610b466100705f395f8181610128015281816102850152818161043e01526104620152610b465ff3fe60806040526004361061004c575f3560e01c806279efb01461009057806312065fe0146100a65780634fa3eeff146100d05780638da5cb5b146100e6578063ea98847b146101105761008c565b3661008c577ff7f75251dee7d7fc22deac3247729ebe7c86541f35930bf10c2a4207479a3b6c33346040516100829291906106ce565b60405180910390a1005b5f80fd5b34801561009b575f80fd5b506100a4610126565b005b3480156100b1575f80fd5b506100ba61027c565b6040516100c7919061071b565b60405180910390f35b3480156100db575f80fd5b506100e4610283565b005b3480156100f1575f80fd5b506100fa61043c565b6040516101079190610754565b60405180910390f35b34801561011b575f80fd5b50610124610460565b005b7f000000000000000000000000000000000000000000000000000000000000000073ffffffffffffffffffffffffffffffffffffffff163373ffffffffffffffffffffffffffffffffffffffff16146101b4576040517f08c379a00000000000000000000000000000000000000000000000000000000081526004016101ab906107b7565b60405180910390fd5b5f60649050804710156101fc576040517f08c379a00000000000000000000000000000000000000000000000000000000081526004016101f39061081f565b60405180910390fd5b3373ffffffffffffffffffffffffffffffffffffffff166108fc8290811502906040515f60405180830381858888f1935050505015801561023f573d5f803e3d5ffd5b507ff7f75251dee7d7fc22deac3247729ebe7c86541f35930bf10c2a4207479a3b6c3382604051610271929190610887565b60405180910390a150565b5f47905090565b7f000000000000000000000000000000000000000000000000000000000000000073ffffffffffffffffffffffffffffffffffffffff163373ffffffffffffffffffffffffffffffffffffffff1614610311576040517f08c379a0000000000000000000000000000000000000000000000000000000008152600401610308906107b7565b60405180910390fd5b5f4790505f8111610357576040517f08c379a000000000000000000000000000000000000000000000000000000000815260040161034e9061081f565b60405180910390fd5b5f3373ffffffffffffffffffffffffffffffffffffffff168260405161037c906108fe565b5f6040518083038185875af1925050503d805f81146103b6576040519150601f19603f3d011682016040523d82523d5f602084013e6103bb565b606091505b50509050806103ff576040517f08c379a00000000000000000000000000000000000000000000000000000000081526004016103f69061095c565b60405180910390fd5b7ff7f75251dee7d7fc22deac3247729ebe7c86541f35930bf10c2a4207479a3b6c33836040516104309291906109c4565b60405180910390a15050565b7f000000000000000000000000000000000000000000000000000000000000000081565b7f000000000000000000000000000000000000000000000000000000000000000073ffffffffffffffffffffffffffffffffffffffff163373ffffffffffffffffffffffffffffffffffffffff16146104ee576040517f08c379a00000000000000000000000000000000000000000000000000000000081526004016104e5906107b7565b60405180910390fd5b5f60c8905080471015610536576040517f08c379a000000000000000000000000000000000000000000000000000000000815260040161052d9061081f565b60405180910390fd5b5f3373ffffffffffffffffffffffffffffffffffffffff166108fc8390811502906040515f60405180830381858888f193505050509050806105ad576040517f08c379a00000000000000000000000000000000000000000000000000000000081526004016105a490610a5b565b60405180910390fd5b7ff7f75251dee7d7fc22deac3247729ebe7c86541f35930bf10c2a4207479a3b6c33836040516105de929190610ac3565b60405180910390a15050565b5f82825260208201905092915050565b7f72656365697665000000000000000000000000000000000000000000000000005f82015250565b5f61062e6007836105ea565b9150610639826105fa565b602082019050919050565b5f73ffffffffffffffffffffffffffffffffffffffff82169050919050565b5f61066d82610644565b9050919050565b61067d81610663565b82525050565b5f819050919050565b61069581610683565b82525050565b5f82825260208201905092915050565b50565b5f6106b95f8361069b565b91506106c4826106ab565b5f82019050919050565b5f6080820190508181035f8301526106e581610622565b90506106f46020830185610674565b610701604083018461068c565b8181036060830152610712816106ae565b90509392505050565b5f60208201905061072e5f83018461068c565b92915050565b5f61073e82610644565b9050919050565b61074e81610734565b82525050565b5f6020820190506107675f830184610745565b92915050565b7f4e6f74206f776e657200000000000000000000000000000000000000000000005f82015250565b5f6107a16009836105ea565b91506107ac8261076d565b602082019050919050565b5f6020820190508181035f8301526107ce81610795565b9050919050565b7f496e73756666696369656e742062616c616e63650000000000000000000000005f82015250565b5f6108096014836105ea565b9150610814826107d5565b602082019050919050565b5f6020820190508181035f830152610836816107fd565b9050919050565b7f77697468647261773100000000000000000000000000000000000000000000005f82015250565b5f6108716009836105ea565b915061087c8261083d565b602082019050919050565b5f6080820190508181035f83015261089e81610865565b90506108ad6020830185610674565b6108ba604083018461068c565b81810360608301526108cb816106ae565b90509392505050565b5f81905092915050565b5f6108e95f836108d4565b91506108f4826106ab565b5f82019050919050565b5f610908826108de565b9150819050919050565b7f43616c6c204661696c65640000000000000000000000000000000000000000005f82015250565b5f610946600b836105ea565b915061095182610912565b602082019050919050565b5f6020820190508181035f8301526109738161093a565b9050919050565b7f77697468647261773300000000000000000000000000000000000000000000005f82015250565b5f6109ae6009836105ea565b91506109b98261097a565b602082019050919050565b5f6080820190508181035f8301526109db816109a2565b90506109ea6020830185610674565b6109f7604083018461068c565b8181036060830152610a08816106ae565b90509392505050565b7f53656e64204661696c65640000000000000000000000000000000000000000005f82015250565b5f610a45600b836105ea565b9150610a5082610a11565b602082019050919050565b5f6020820190508181035f830152610a7281610a39565b9050919050565b7f77697468647261773200000000000000000000000000000000000000000000005f82015250565b5f610aad6009836105ea565b9150610ab882610a79565b602082019050919050565b5f6080820190508181035f830152610ada81610aa1565b9050610ae96020830185610674565b610af6604083018461068c565b8181036060830152610b07816106ae565b9050939250505056fea264697066735822122041a2f932616a9d941f083c6be297b7f048141c3c44b4d37ec9faa70d1d17bad764736f6c634300081a0033",
					"opcodes": "PUSH1 0xA0 PUSH1 0x40 MSTORE CALLVALUE DUP1 ISZERO PUSH1 0xE JUMPI PUSH0 DUP1 REVERT JUMPDEST POP CALLER PUSH20 0xFFFFFFFFFFFFFFFFFFFFFFFFFFFFFFFFFFFFFFFF AND PUSH1 0x80 DUP2 PUSH20 0xFFFFFFFFFFFFFFFFFFFFFFFFFFFFFFFFFFFFFFFF AND DUP2 MSTORE POP POP PUSH1 0x80 MLOAD PUSH2 0xB46 PUSH2 0x70 PUSH0 CODECOPY PUSH0 DUP2 DUP2 PUSH2 0x128 ADD MSTORE DUP2 DUP2 PUSH2 0x285 ADD MSTORE DUP2 DUP2 PUSH2 0x43E ADD MSTORE PUSH2 0x462 ADD MSTORE PUSH2 0xB46 PUSH0 RETURN INVALID PUSH1 0x80 PUSH1 0x40 MSTORE PUSH1 0x4 CALLDATASIZE LT PUSH2 0x4C JUMPI PUSH0 CALLDATALOAD PUSH1 0xE0 SHR DUP1 PUSH3 0x79EFB0 EQ PUSH2 0x90 JUMPI DUP1 PUSH4 0x12065FE0 EQ PUSH2 0xA6 JUMPI DUP1 PUSH4 0x4FA3EEFF EQ PUSH2 0xD0 JUMPI DUP1 PUSH4 0x8DA5CB5B EQ PUSH2 0xE6 JUMPI DUP1 PUSH4 0xEA98847B EQ PUSH2 0x110 JUMPI PUSH2 0x8C JUMP JUMPDEST CALLDATASIZE PUSH2 0x8C JUMPI PUSH32 0xF7F75251DEE7D7FC22DEAC3247729EBE7C86541F35930BF10C2A4207479A3B6C CALLER CALLVALUE PUSH1 0x40 MLOAD PUSH2 0x82 SWAP3 SWAP2 SWAP1 PUSH2 0x6CE JUMP JUMPDEST PUSH1 0x40 MLOAD DUP1 SWAP2 SUB SWAP1 LOG1 STOP JUMPDEST PUSH0 DUP1 REVERT JUMPDEST CALLVALUE DUP1 ISZERO PUSH2 0x9B JUMPI PUSH0 DUP1 REVERT JUMPDEST POP PUSH2 0xA4 PUSH2 0x126 JUMP JUMPDEST STOP JUMPDEST CALLVALUE DUP1 ISZERO PUSH2 0xB1 JUMPI PUSH0 DUP1 REVERT JUMPDEST POP PUSH2 0xBA PUSH2 0x27C JUMP JUMPDEST PUSH1 0x40 MLOAD PUSH2 0xC7 SWAP2 SWAP1 PUSH2 0x71B JUMP JUMPDEST PUSH1 0x40 MLOAD DUP1 SWAP2 SUB SWAP1 RETURN JUMPDEST CALLVALUE DUP1 ISZERO PUSH2 0xDB JUMPI PUSH0 DUP1 REVERT JUMPDEST POP PUSH2 0xE4 PUSH2 0x283 JUMP JUMPDEST STOP JUMPDEST CALLVALUE DUP1 ISZERO PUSH2 0xF1 JUMPI PUSH0 DUP1 REVERT JUMPDEST POP PUSH2 0xFA PUSH2 0x43C JUMP JUMPDEST PUSH1 0x40 MLOAD PUSH2 0x107 SWAP2 SWAP1 PUSH2 0x754 JUMP JUMPDEST PUSH1 0x40 MLOAD DUP1 SWAP2 SUB SWAP1 RETURN JUMPDEST CALLVALUE DUP1 ISZERO PUSH2 0x11B JUMPI PUSH0 DUP1 REVERT JUMPDEST POP PUSH2 0x124 PUSH2 0x460 JUMP JUMPDEST STOP JUMPDEST PUSH32 0x0 PUSH20 0xFFFFFFFFFFFFFFFFFFFFFFFFFFFFFFFFFFFFFFFF AND CALLER PUSH20 0xFFFFFFFFFFFFFFFFFFFFFFFFFFFFFFFFFFFFFFFF AND EQ PUSH2 0x1B4 JUMPI PUSH1 0x40 MLOAD PUSH32 0x8C379A000000000000000000000000000000000000000000000000000000000 DUP2 MSTORE PUSH1 0x4 ADD PUSH2 0x1AB SWAP1 PUSH2 0x7B7 JUMP JUMPDEST PUSH1 0x40 MLOAD DUP1 SWAP2 SUB SWAP1 REVERT JUMPDEST PUSH0 PUSH1 0x64 SWAP1 POP DUP1 SELFBALANCE LT ISZERO PUSH2 0x1FC JUMPI PUSH1 0x40 MLOAD PUSH32 0x8C379A000000000000000000000000000000000000000000000000000000000 DUP2 MSTORE PUSH1 0x4 ADD PUSH2 0x1F3 SWAP1 PUSH2 0x81F JUMP JUMPDEST PUSH1 0x40 MLOAD DUP1 SWAP2 SUB SWAP1 REVERT JUMPDEST CALLER PUSH20 0xFFFFFFFFFFFFFFFFFFFFFFFFFFFFFFFFFFFFFFFF AND PUSH2 0x8FC DUP3 SWAP1 DUP2 ISZERO MUL SWAP1 PUSH1 0x40 MLOAD PUSH0 PUSH1 0x40 MLOAD DUP1 DUP4 SUB DUP2 DUP6 DUP9 DUP9 CALL SWAP4 POP POP POP POP ISZERO DUP1 ISZERO PUSH2 0x23F JUMPI RETURNDATASIZE PUSH0 DUP1 RETURNDATACOPY RETURNDATASIZE PUSH0 REVERT JUMPDEST POP PUSH32 0xF7F75251DEE7D7FC22DEAC3247729EBE7C86541F35930BF10C2A4207479A3B6C CALLER DUP3 PUSH1 0x40 MLOAD PUSH2 0x271 SWAP3 SWAP2 SWAP1 PUSH2 0x887 JUMP JUMPDEST PUSH1 0x40 MLOAD DUP1 SWAP2 SUB SWAP1 LOG1 POP JUMP JUMPDEST PUSH0 SELFBALANCE SWAP1 POP SWAP1 JUMP JUMPDEST PUSH32 0x0 PUSH20 0xFFFFFFFFFFFFFFFFFFFFFFFFFFFFFFFFFFFFFFFF AND CALLER PUSH20 0xFFFFFFFFFFFFFFFFFFFFFFFFFFFFFFFFFFFFFFFF AND EQ PUSH2 0x311 JUMPI PUSH1 0x40 MLOAD PUSH32 0x8C379A000000000000000000000000000000000000000000000000000000000 DUP2 MSTORE PUSH1 0x4 ADD PUSH2 0x308 SWAP1 PUSH2 0x7B7 JUMP JUMPDEST PUSH1 0x40 MLOAD DUP1 SWAP2 SUB SWAP1 REVERT JUMPDEST PUSH0 SELFBALANCE SWAP1 POP PUSH0 DUP2 GT PUSH2 0x357 JUMPI PUSH1 0x40 MLOAD PUSH32 0x8C379A000000000000000000000000000000000000000000000000000000000 DUP2 MSTORE PUSH1 0x4 ADD PUSH2 0x34E SWAP1 PUSH2 0x81F JUMP JUMPDEST PUSH1 0x40 MLOAD DUP1 SWAP2 SUB SWAP1 REVERT JUMPDEST PUSH0 CALLER PUSH20 0xFFFFFFFFFFFFFFFFFFFFFFFFFFFFFFFFFFFFFFFF AND DUP3 PUSH1 0x40 MLOAD PUSH2 0x37C SWAP1 PUSH2 0x8FE JUMP JUMPDEST PUSH0 PUSH1 0x40 MLOAD DUP1 DUP4 SUB DUP2 DUP6 DUP8 GAS CALL SWAP3 POP POP POP RETURNDATASIZE DUP1 PUSH0 DUP2 EQ PUSH2 0x3B6 JUMPI PUSH1 0x40 MLOAD SWAP2 POP PUSH1 0x1F NOT PUSH1 0x3F RETURNDATASIZE ADD AND DUP3 ADD PUSH1 0x40 MSTORE RETURNDATASIZE DUP3 MSTORE RETURNDATASIZE PUSH0 PUSH1 0x20 DUP5 ADD RETURNDATACOPY PUSH2 0x3BB JUMP JUMPDEST PUSH1 0x60 SWAP2 POP JUMPDEST POP POP SWAP1 POP DUP1 PUSH2 0x3FF JUMPI PUSH1 0x40 MLOAD PUSH32 0x8C379A000000000000000000000000000000000000000000000000000000000 DUP2 MSTORE PUSH1 0x4 ADD PUSH2 0x3F6 SWAP1 PUSH2 0x95C JUMP JUMPDEST PUSH1 0x40 MLOAD DUP1 SWAP2 SUB SWAP1 REVERT JUMPDEST PUSH32 0xF7F75251DEE7D7FC22DEAC3247729EBE7C86541F35930BF10C2A4207479A3B6C CALLER DUP4 PUSH1 0x40 MLOAD PUSH2 0x430 SWAP3 SWAP2 SWAP1 PUSH2 0x9C4 JUMP JUMPDEST PUSH1 0x40 MLOAD DUP1 SWAP2 SUB SWAP1 LOG1 POP POP JUMP JUMPDEST PUSH32 0x0 DUP2 JUMP JUMPDEST PUSH32 0x0 PUSH20 0xFFFFFFFFFFFFFFFFFFFFFFFFFFFFFFFFFFFFFFFF AND CALLER PUSH20 0xFFFFFFFFFFFFFFFFFFFFFFFFFFFFFFFFFFFFFFFF AND EQ PUSH2 0x4EE JUMPI PUSH1 0x40 MLOAD PUSH32 0x8C379A000000000000000000000000000000000000000000000000000000000 DUP2 MSTORE PUSH1 0x4 ADD PUSH2 0x4E5 SWAP1 PUSH2 0x7B7 JUMP JUMPDEST PUSH1 0x40 MLOAD DUP1 SWAP2 SUB SWAP1 REVERT JUMPDEST PUSH0 PUSH1 0xC8 SWAP1 POP DUP1 SELFBALANCE LT ISZERO PUSH2 0x536 JUMPI PUSH1 0x40 MLOAD PUSH32 0x8C379A000000000000000000000000000000000000000000000000000000000 DUP2 MSTORE PUSH1 0x4 ADD PUSH2 0x52D SWAP1 PUSH2 0x81F JUMP JUMPDEST PUSH1 0x40 MLOAD DUP1 SWAP2 SUB SWAP1 REVERT JUMPDEST PUSH0 CALLER PUSH20 0xFFFFFFFFFFFFFFFFFFFFFFFFFFFFFFFFFFFFFFFF AND PUSH2 0x8FC DUP4 SWAP1 DUP2 ISZERO MUL SWAP1 PUSH1 0x40 MLOAD PUSH0 PUSH1 0x40 MLOAD DUP1 DUP4 SUB DUP2 DUP6 DUP9 DUP9 CALL SWAP4 POP POP POP POP SWAP1 POP DUP1 PUSH2 0x5AD JUMPI PUSH1 0x40 MLOAD PUSH32 0x8C379A000000000000000000000000000000000000000000000000000000000 DUP2 MSTORE PUSH1 0x4 ADD PUSH2 0x5A4 SWAP1 PUSH2 0xA5B JUMP JUMPDEST PUSH1 0x40 MLOAD DUP1 SWAP2 SUB SWAP1 REVERT JUMPDEST PUSH32 0xF7F75251DEE7D7FC22DEAC3247729EBE7C86541F35930BF10C2A4207479A3B6C CALLER DUP4 PUSH1 0x40 MLOAD PUSH2 0x5DE SWAP3 SWAP2 SWAP1 PUSH2 0xAC3 JUMP JUMPDEST PUSH1 0x40 MLOAD DUP1 SWAP2 SUB SWAP1 LOG1 POP POP JUMP JUMPDEST PUSH0 DUP3 DUP3 MSTORE PUSH1 0x20 DUP3 ADD SWAP1 POP SWAP3 SWAP2 POP POP JUMP JUMPDEST PUSH32 0x7265636569766500000000000000000000000000000000000000000000000000 PUSH0 DUP3 ADD MSTORE POP JUMP JUMPDEST PUSH0 PUSH2 0x62E PUSH1 0x7 DUP4 PUSH2 0x5EA JUMP JUMPDEST SWAP2 POP PUSH2 0x639 DUP3 PUSH2 0x5FA JUMP JUMPDEST PUSH1 0x20 DUP3 ADD SWAP1 POP SWAP2 SWAP1 POP JUMP JUMPDEST PUSH0 PUSH20 0xFFFFFFFFFFFFFFFFFFFFFFFFFFFFFFFFFFFFFFFF DUP3 AND SWAP1 POP SWAP2 SWAP1 POP JUMP JUMPDEST PUSH0 PUSH2 0x66D DUP3 PUSH2 0x644 JUMP JUMPDEST SWAP1 POP SWAP2 SWAP1 POP JUMP JUMPDEST PUSH2 0x67D DUP2 PUSH2 0x663 JUMP JUMPDEST DUP3 MSTORE POP POP JUMP JUMPDEST PUSH0 DUP2 SWAP1 POP SWAP2 SWAP1 POP JUMP JUMPDEST PUSH2 0x695 DUP2 PUSH2 0x683 JUMP JUMPDEST DUP3 MSTORE POP POP JUMP JUMPDEST PUSH0 DUP3 DUP3 MSTORE PUSH1 0x20 DUP3 ADD SWAP1 POP SWAP3 SWAP2 POP POP JUMP JUMPDEST POP JUMP JUMPDEST PUSH0 PUSH2 0x6B9 PUSH0 DUP4 PUSH2 0x69B JUMP JUMPDEST SWAP2 POP PUSH2 0x6C4 DUP3 PUSH2 0x6AB JUMP JUMPDEST PUSH0 DUP3 ADD SWAP1 POP SWAP2 SWAP1 POP JUMP JUMPDEST PUSH0 PUSH1 0x80 DUP3 ADD SWAP1 POP DUP2 DUP2 SUB PUSH0 DUP4 ADD MSTORE PUSH2 0x6E5 DUP2 PUSH2 0x622 JUMP JUMPDEST SWAP1 POP PUSH2 0x6F4 PUSH1 0x20 DUP4 ADD DUP6 PUSH2 0x674 JUMP JUMPDEST PUSH2 0x701 PUSH1 0x40 DUP4 ADD DUP5 PUSH2 0x68C JUMP JUMPDEST DUP2 DUP2 SUB PUSH1 0x60 DUP4 ADD MSTORE PUSH2 0x712 DUP2 PUSH2 0x6AE JUMP JUMPDEST SWAP1 POP SWAP4 SWAP3 POP POP POP JUMP JUMPDEST PUSH0 PUSH1 0x20 DUP3 ADD SWAP1 POP PUSH2 0x72E PUSH0 DUP4 ADD DUP5 PUSH2 0x68C JUMP JUMPDEST SWAP3 SWAP2 POP POP JUMP JUMPDEST PUSH0 PUSH2 0x73E DUP3 PUSH2 0x644 JUMP JUMPDEST SWAP1 POP SWAP2 SWAP1 POP JUMP JUMPDEST PUSH2 0x74E DUP2 PUSH2 0x734 JUMP JUMPDEST DUP3 MSTORE POP POP JUMP JUMPDEST PUSH0 PUSH1 0x20 DUP3 ADD SWAP1 POP PUSH2 0x767 PUSH0 DUP4 ADD DUP5 PUSH2 0x745 JUMP JUMPDEST SWAP3 SWAP2 POP POP JUMP JUMPDEST PUSH32 0x4E6F74206F776E65720000000000000000000000000000000000000000000000 PUSH0 DUP3 ADD MSTORE POP JUMP JUMPDEST PUSH0 PUSH2 0x7A1 PUSH1 0x9 DUP4 PUSH2 0x5EA JUMP JUMPDEST SWAP2 POP PUSH2 0x7AC DUP3 PUSH2 0x76D JUMP JUMPDEST PUSH1 0x20 DUP3 ADD SWAP1 POP SWAP2 SWAP1 POP JUMP JUMPDEST PUSH0 PUSH1 0x20 DUP3 ADD SWAP1 POP DUP2 DUP2 SUB PUSH0 DUP4 ADD MSTORE PUSH2 0x7CE DUP2 PUSH2 0x795 JUMP JUMPDEST SWAP1 POP SWAP2 SWAP1 POP JUMP JUMPDEST PUSH32 0x496E73756666696369656E742062616C616E6365000000000000000000000000 PUSH0 DUP3 ADD MSTORE POP JUMP JUMPDEST PUSH0 PUSH2 0x809 PUSH1 0x14 DUP4 PUSH2 0x5EA JUMP JUMPDEST SWAP2 POP PUSH2 0x814 DUP3 PUSH2 0x7D5 JUMP JUMPDEST PUSH1 0x20 DUP3 ADD SWAP1 POP SWAP2 SWAP1 POP JUMP JUMPDEST PUSH0 PUSH1 0x20 DUP3 ADD SWAP1 POP DUP2 DUP2 SUB PUSH0 DUP4 ADD MSTORE PUSH2 0x836 DUP2 PUSH2 0x7FD JUMP JUMPDEST SWAP1 POP SWAP2 SWAP1 POP JUMP JUMPDEST PUSH32 0x7769746864726177310000000000000000000000000000000000000000000000 PUSH0 DUP3 ADD MSTORE POP JUMP JUMPDEST PUSH0 PUSH2 0x871 PUSH1 0x9 DUP4 PUSH2 0x5EA JUMP JUMPDEST SWAP2 POP PUSH2 0x87C DUP3 PUSH2 0x83D JUMP JUMPDEST PUSH1 0x20 DUP3 ADD SWAP1 POP SWAP2 SWAP1 POP JUMP JUMPDEST PUSH0 PUSH1 0x80 DUP3 ADD SWAP1 POP DUP2 DUP2 SUB PUSH0 DUP4 ADD MSTORE PUSH2 0x89E DUP2 PUSH2 0x865 JUMP JUMPDEST SWAP1 POP PUSH2 0x8AD PUSH1 0x20 DUP4 ADD DUP6 PUSH2 0x674 JUMP JUMPDEST PUSH2 0x8BA PUSH1 0x40 DUP4 ADD DUP5 PUSH2 0x68C JUMP JUMPDEST DUP2 DUP2 SUB PUSH1 0x60 DUP4 ADD MSTORE PUSH2 0x8CB DUP2 PUSH2 0x6AE JUMP JUMPDEST SWAP1 POP SWAP4 SWAP3 POP POP POP JUMP JUMPDEST PUSH0 DUP2 SWAP1 POP SWAP3 SWAP2 POP POP JUMP JUMPDEST PUSH0 PUSH2 0x8E9 PUSH0 DUP4 PUSH2 0x8D4 JUMP JUMPDEST SWAP2 POP PUSH2 0x8F4 DUP3 PUSH2 0x6AB JUMP JUMPDEST PUSH0 DUP3 ADD SWAP1 POP SWAP2 SWAP1 POP JUMP JUMPDEST PUSH0 PUSH2 0x908 DUP3 PUSH2 0x8DE JUMP JUMPDEST SWAP2 POP DUP2 SWAP1 POP SWAP2 SWAP1 POP JUMP JUMPDEST PUSH32 0x43616C6C204661696C6564000000000000000000000000000000000000000000 PUSH0 DUP3 ADD MSTORE POP JUMP JUMPDEST PUSH0 PUSH2 0x946 PUSH1 0xB DUP4 PUSH2 0x5EA JUMP JUMPDEST SWAP2 POP PUSH2 0x951 DUP3 PUSH2 0x912 JUMP JUMPDEST PUSH1 0x20 DUP3 ADD SWAP1 POP SWAP2 SWAP1 POP JUMP JUMPDEST PUSH0 PUSH1 0x20 DUP3 ADD SWAP1 POP DUP2 DUP2 SUB PUSH0 DUP4 ADD MSTORE PUSH2 0x973 DUP2 PUSH2 0x93A JUMP JUMPDEST SWAP1 POP SWAP2 SWAP1 POP JUMP JUMPDEST PUSH32 0x7769746864726177330000000000000000000000000000000000000000000000 PUSH0 DUP3 ADD MSTORE POP JUMP JUMPDEST PUSH0 PUSH2 0x9AE PUSH1 0x9 DUP4 PUSH2 0x5EA JUMP JUMPDEST SWAP2 POP PUSH2 0x9B9 DUP3 PUSH2 0x97A JUMP JUMPDEST PUSH1 0x20 DUP3 ADD SWAP1 POP SWAP2 SWAP1 POP JUMP JUMPDEST PUSH0 PUSH1 0x80 DUP3 ADD SWAP1 POP DUP2 DUP2 SUB PUSH0 DUP4 ADD MSTORE PUSH2 0x9DB DUP2 PUSH2 0x9A2 JUMP JUMPDEST SWAP1 POP PUSH2 0x9EA PUSH1 0x20 DUP4 ADD DUP6 PUSH2 0x674 JUMP JUMPDEST PUSH2 0x9F7 PUSH1 0x40 DUP4 ADD DUP5 PUSH2 0x68C JUMP JUMPDEST DUP2 DUP2 SUB PUSH1 0x60 DUP4 ADD MSTORE PUSH2 0xA08 DUP2 PUSH2 0x6AE JUMP JUMPDEST SWAP1 POP SWAP4 SWAP3 POP POP POP JUMP JUMPDEST PUSH32 0x53656E64204661696C6564000000000000000000000000000000000000000000 PUSH0 DUP3 ADD MSTORE POP JUMP JUMPDEST PUSH0 PUSH2 0xA45 PUSH1 0xB DUP4 PUSH2 0x5EA JUMP JUMPDEST SWAP2 POP PUSH2 0xA50 DUP3 PUSH2 0xA11 JUMP JUMPDEST PUSH1 0x20 DUP3 ADD SWAP1 POP SWAP2 SWAP1 POP JUMP JUMPDEST PUSH0 PUSH1 0x20 DUP3 ADD SWAP1 POP DUP2 DUP2 SUB PUSH0 DUP4 ADD MSTORE PUSH2 0xA72 DUP2 PUSH2 0xA39 JUMP JUMPDEST SWAP1 POP SWAP2 SWAP1 POP JUMP JUMPDEST PUSH32 0x7769746864726177320000000000000000000000000000000000000000000000 PUSH0 DUP3 ADD MSTORE POP JUMP JUMPDEST PUSH0 PUSH2 0xAAD PUSH1 0x9 DUP4 PUSH2 0x5EA JUMP JUMPDEST SWAP2 POP PUSH2 0xAB8 DUP3 PUSH2 0xA79 JUMP JUMPDEST PUSH1 0x20 DUP3 ADD SWAP1 POP SWAP2 SWAP1 POP JUMP JUMPDEST PUSH0 PUSH1 0x80 DUP3 ADD SWAP1 POP DUP2 DUP2 SUB PUSH0 DUP4 ADD MSTORE PUSH2 0xADA DUP2 PUSH2 0xAA1 JUMP JUMPDEST SWAP1 POP PUSH2 0xAE9 PUSH1 0x20 DUP4 ADD DUP6 PUSH2 0x674 JUMP JUMPDEST PUSH2 0xAF6 PUSH1 0x40 DUP4 ADD DUP5 PUSH2 0x68C JUMP JUMPDEST DUP2 DUP2 SUB PUSH1 0x60 DUP4 ADD MSTORE PUSH2 0xB07 DUP2 PUSH2 0x6AE JUMP JUMPDEST SWAP1 POP SWAP4 SWAP3 POP POP POP JUMP INVALID LOG2 PUSH5 0x6970667358 0x22 SLT KECCAK256 COINBASE LOG2 0xF9 ORIGIN PUSH2 0x6A9D SWAP5 0x1F ADDMOD EXTCODECOPY PUSH12 0xE297B7F048141C3C44B4D37E 0xC9 STATICCALL 0xA7 0xD SAR OR 0xBA 0xD7 PUSH5 0x736F6C6343 STOP ADDMOD BYTE STOP CALLER "
				},
				"gasEstimates": {
					"creation": {
						"codeDepositCost": "577200",
						"executionCost": "infinite",
						"totalCost": "infinite"
					},
					"external": {
						"getBalance()": "334",
						"owner()": "infinite",
						"withdraw1()": "infinite",
						"withdraw2()": "infinite",
						"withdraw3()": "infinite"
					}
				},
				"methodIdentifiers": {
					"getBalance()": "12065fe0",
					"owner()": "8da5cb5b",
					"withdraw1()": "0079efb0",
					"withdraw2()": "ea98847b",
					"withdraw3()": "4fa3eeff"
				}
			},
			"storageLayout": {
				"storage": [],
				"types": null
			},
			"userdoc": {
				"kind": "user",
				"methods": {},
				"version": 1
			}
		}
	}
}