{
	"data": {
		"bytecode": {
			"linkReferences": {},
			"object": "6080604052348015600e575f80fd5b506111038061001c5f395ff3fe608060405234801561000f575f80fd5b5060043610610086575f3560e01c80639507d39a116100595780639507d39a1461010f578063b6a46b3b14610140578063c91b78cb1461015c578063d511b4be1461017857610086565b80631fbb5bc51461008a5780634112a18e146100a6578063560f3192146100c257806380c9419e146100de575b5f80fd5b6100a4600480360381019061009f919061095c565b610194565b005b6100c060048036038101906100bb91906109eb565b610200565b005b6100dc60048036038101906100d79190610a29565b610276565b005b6100f860048036038101906100f39190610a29565b6103f5565b604051610106929190610ac3565b60405180910390f35b61012960048036038101906101249190610a29565b6104b5565b604051610137929190610ac3565b60405180910390f35b61015a60048036038101906101559190610af1565b610582565b005b6101766004803603810190610171919061095c565b610641565b005b610192600480360381019061018d9190610a29565b6106b2565b005b805f83815481106101a8576101a7610b38565b5b905f5260205f2090600202015f0190816101c29190610d5f565b507f4501ef52991d5f1c04cd1c8f9e4acda863929c0664942e0b2f3c7e54e05c5a5482826040516101f4929190610e3d565b60405180910390a15050565b805f838154811061021457610213610b38565b5b905f5260205f2090600202016001015f6101000a81548160ff0219169083151502179055507fe259742bdf9a2dd95fa5260b6ecf71564b32126ae5e8adf307fd4a741a425996828260405161026a929190610e6b565b60405180910390a15050565b5f8054905081106102bc576040517f08c379a00000000000000000000000000000000000000000000000000000000081526004016102b390610edc565b60405180910390fd5b5f8190505b60015f805490506102d29190610f27565b811015610371575f6001826102e79190610f5a565b815481106102f8576102f7610b38565b5b905f5260205f2090600202015f828154811061031757610316610b38565b5b905f5260205f2090600202015f8201815f0190816103359190610fa2565b50600182015f9054906101000a900460ff16816001015f6101000a81548160ff02191690831515021790555090505080806001019150506102c1565b505f80548061038357610382611087565b5b600190038181905f5260205f2090600202015f8082015f6103a49190610784565b600182015f6101000a81549060ff0219169055505090557fd078b251d950cc55c44340be1db732337ef4939a76e1367ee271ad2cb19c46af816040516103ea91906110b4565b60405180910390a150565b5f8181548110610403575f80fd5b905f5260205f2090600202015f91509050805f01805461042290610b92565b80601f016020809104026020016040519081016040528092919081815260200182805461044e90610b92565b80156104995780601f1061047057610100808354040283529160200191610499565b820191905f5260205f20905b81548152906001019060200180831161047c57829003601f168201915b505050505090806001015f9054906101000a900460ff16905082565b60605f805f84815481106104cc576104cb610b38565b5b905f5260205f2090600202019050805f01816001015f9054906101000a900460ff168180546104fa90610b92565b80601f016020809104026020016040519081016040528092919081815260200182805461052690610b92565b80156105715780601f1061054857610100808354040283529160200191610571565b820191905f5260205f20905b81548152906001019060200180831161055457829003601f168201915b505050505091509250925050915091565b5f60405180604001604052808381526020015f1515815250908060018154018082558091505060019003905f5260205f2090600202015f909190919091505f820151815f0190816105d39190610d5f565b506020820151816001015f6101000a81548160ff02191690831515021790555050507fa5ed9e6226c584326505694539c95cb0e3238ae09bcda5a65c00bbfdab1c666260015f805490506106279190610f27565b82604051610636929190610e3d565b60405180910390a150565b5f80838154811061065557610654610b38565b5b905f5260205f209060020201905081815f0190816106739190610d5f565b507f4501ef52991d5f1c04cd1c8f9e4acda863929c0664942e0b2f3c7e54e05c5a5483836040516106a5929190610e3d565b60405180910390a1505050565b5f81815481106106c5576106c4610b38565b5b905f5260205f2090600202016001015f9054906101000a900460ff16155f82815481106106f5576106f4610b38565b5b905f5260205f2090600202016001015f6101000a81548160ff0219169083151502179055507fe259742bdf9a2dd95fa5260b6ecf71564b32126ae5e8adf307fd4a741a425996815f838154811061074f5761074e610b38565b5b905f5260205f2090600202016001015f9054906101000a900460ff16604051610779929190610e6b565b60405180910390a150565b50805461079090610b92565b5f825580601f106107a157506107be565b601f0160209004905f5260205f20908101906107bd91906107c1565b5b50565b5b808211156107d8575f815f9055506001016107c2565b5090565b5f604051905090565b5f80fd5b5f80fd5b5f819050919050565b6107ff816107ed565b8114610809575f80fd5b50565b5f8135905061081a816107f6565b92915050565b5f80fd5b5f80fd5b5f601f19601f8301169050919050565b7f4e487b71000000000000000000000000000000000000000000000000000000005f52604160045260245ffd5b61086e82610828565b810181811067ffffffffffffffff8211171561088d5761088c610838565b5b80604052505050565b5f61089f6107dc565b90506108ab8282610865565b919050565b5f67ffffffffffffffff8211156108ca576108c9610838565b5b6108d382610828565b9050602081019050919050565b828183375f83830152505050565b5f6109006108fb846108b0565b610896565b90508281526020810184848401111561091c5761091b610824565b5b6109278482856108e0565b509392505050565b5f82601f83011261094357610942610820565b5b81356109538482602086016108ee565b91505092915050565b5f8060408385031215610972576109716107e5565b5b5f61097f8582860161080c565b925050602083013567ffffffffffffffff8111156109a05761099f6107e9565b5b6109ac8582860161092f565b9150509250929050565b5f8115159050919050565b6109ca816109b6565b81146109d4575f80fd5b50565b5f813590506109e5816109c1565b92915050565b5f8060408385031215610a0157610a006107e5565b5b5f610a0e8582860161080c565b9250506020610a1f858286016109d7565b9150509250929050565b5f60208284031215610a3e57610a3d6107e5565b5b5f610a4b8482850161080c565b91505092915050565b5f81519050919050565b5f82825260208201905092915050565b8281835e5f83830152505050565b5f610a8682610a54565b610a908185610a5e565b9350610aa0818560208601610a6e565b610aa981610828565b840191505092915050565b610abd816109b6565b82525050565b5f6040820190508181035f830152610adb8185610a7c565b9050610aea6020830184610ab4565b9392505050565b5f60208284031215610b0657610b056107e5565b5b5f82013567ffffffffffffffff811115610b2357610b226107e9565b5b610b2f8482850161092f565b91505092915050565b7f4e487b71000000000000000000000000000000000000000000000000000000005f52603260045260245ffd5b7f4e487b71000000000000000000000000000000000000000000000000000000005f52602260045260245ffd5b5f6002820490506001821680610ba957607f821691505b602082108103610bbc57610bbb610b65565b5b50919050565b5f819050815f5260205f209050919050565b5f6020601f8301049050919050565b5f82821b905092915050565b5f60088302610c1e7fffffffffffffffffffffffffffffffffffffffffffffffffffffffffffffffff82610be3565b610c288683610be3565b95508019841693508086168417925050509392505050565b5f819050919050565b5f610c63610c5e610c59846107ed565b610c40565b6107ed565b9050919050565b5f819050919050565b610c7c83610c49565b610c90610c8882610c6a565b848454610bef565b825550505050565b5f90565b610ca4610c98565b610caf818484610c73565b505050565b5b81811015610cd257610cc75f82610c9c565b600181019050610cb5565b5050565b601f821115610d1757610ce881610bc2565b610cf184610bd4565b81016020851015610d00578190505b610d14610d0c85610bd4565b830182610cb4565b50505b505050565b5f82821c905092915050565b5f610d375f1984600802610d1c565b1980831691505092915050565b5f610d4f8383610d28565b9150826002028217905092915050565b610d6882610a54565b67ffffffffffffffff811115610d8157610d80610838565b5b610d8b8254610b92565b610d96828285610cd6565b5f60209050601f831160018114610dc7575f8415610db5578287015190505b610dbf8582610d44565b865550610e26565b601f198416610dd586610bc2565b5f5b82811015610dfc57848901518255600182019150602085019450602081019050610dd7565b86831015610e195784890151610e15601f891682610d28565b8355505b6001600288020188555050505b505050505050565b610e37816107ed565b82525050565b5f604082019050610e505f830185610e2e565b8181036020830152610e628184610a7c565b90509392505050565b5f604082019050610e7e5f830185610e2e565b610e8b6020830184610ab4565b9392505050565b7f496e646578206f7574206f6620626f756e6473000000000000000000000000005f82015250565b5f610ec6601383610a5e565b9150610ed182610e92565b602082019050919050565b5f6020820190508181035f830152610ef381610eba565b9050919050565b7f4e487b71000000000000000000000000000000000000000000000000000000005f52601160045260245ffd5b5f610f31826107ed565b9150610f3c836107ed565b9250828203905081811115610f5457610f53610efa565b5b92915050565b5f610f64826107ed565b9150610f6f836107ed565b9250828201905080821115610f8757610f86610efa565b5b92915050565b5f81549050610f9b81610b92565b9050919050565b818103610fb0575050611085565b610fb982610f8d565b67ffffffffffffffff811115610fd257610fd1610838565b5b610fdc8254610b92565b610fe7828285610cd6565b5f601f831160018114611014575f8415611002578287015490505b61100c8582610d44565b86555061107e565b601f19841661102287610bc2565b965061102d86610bc2565b5f5b828110156110545784890154825560018201915060018501945060208101905061102f565b86831015611071578489015461106d601f891682610d28565b8355505b6001600288020188555050505b5050505050505b565b7f4e487b71000000000000000000000000000000000000000000000000000000005f52603160045260245ffd5b5f6020820190506110c75f830184610e2e565b9291505056fea2646970667358221220bfb2ecf1512195f0f597dd17c25618e2cb08ea21054f2fe73f1369806c39adcb64736f6c634300081a0033",
			"opcodes": "PUSH1 0x80 PUSH1 0x40 MSTORE CALLVALUE DUP1 ISZERO PUSH1 0xE JUMPI PUSH0 DUP1 REVERT JUMPDEST POP PUSH2 0x1103 DUP1 PUSH2 0x1C PUSH0 CODECOPY PUSH0 RETURN INVALID PUSH1 0x80 PUSH1 0x40 MSTORE CALLVALUE DUP1 ISZERO PUSH2 0xF JUMPI PUSH0 DUP1 REVERT JUMPDEST POP PUSH1 0x4 CALLDATASIZE LT PUSH2 0x86 JUMPI PUSH0 CALLDATALOAD PUSH1 0xE0 SHR DUP1 PUSH4 0x9507D39A GT PUSH2 0x59 JUMPI DUP1 PUSH4 0x9507D39A EQ PUSH2 0x10F JUMPI DUP1 PUSH4 0xB6A46B3B EQ PUSH2 0x140 JUMPI DUP1 PUSH4 0xC91B78CB EQ PUSH2 0x15C JUMPI DUP1 PUSH4 0xD511B4BE EQ PUSH2 0x178 JUMPI PUSH2 0x86 JUMP JUMPDEST DUP1 PUSH4 0x1FBB5BC5 EQ PUSH2 0x8A JUMPI DUP1 PUSH4 0x4112A18E EQ PUSH2 0xA6 JUMPI DUP1 PUSH4 0x560F3192 EQ PUSH2 0xC2 JUMPI DUP1 PUSH4 0x80C9419E EQ PUSH2 0xDE JUMPI JUMPDEST PUSH0 DUP1 REVERT JUMPDEST PUSH2 0xA4 PUSH1 0x4 DUP1 CALLDATASIZE SUB DUP2 ADD SWAP1 PUSH2 0x9F SWAP2 SWAP1 PUSH2 0x95C JUMP JUMPDEST PUSH2 0x194 JUMP JUMPDEST STOP JUMPDEST PUSH2 0xC0 PUSH1 0x4 DUP1 CALLDATASIZE SUB DUP2 ADD SWAP1 PUSH2 0xBB SWAP2 SWAP1 PUSH2 0x9EB JUMP JUMPDEST PUSH2 0x200 JUMP JUMPDEST STOP JUMPDEST PUSH2 0xDC PUSH1 0x4 DUP1 CALLDATASIZE SUB DUP2 ADD SWAP1 PUSH2 0xD7 SWAP2 SWAP1 PUSH2 0xA29 JUMP JUMPDEST PUSH2 0x276 JUMP JUMPDEST STOP JUMPDEST PUSH2 0xF8 PUSH1 0x4 DUP1 CALLDATASIZE SUB DUP2 ADD SWAP1 PUSH2 0xF3 SWAP2 SWAP1 PUSH2 0xA29 JUMP JUMPDEST PUSH2 0x3F5 JUMP JUMPDEST PUSH1 0x40 MLOAD PUSH2 0x106 SWAP3 SWAP2 SWAP1 PUSH2 0xAC3 JUMP JUMPDEST PUSH1 0x40 MLOAD DUP1 SWAP2 SUB SWAP1 RETURN JUMPDEST PUSH2 0x129 PUSH1 0x4 DUP1 CALLDATASIZE SUB DUP2 ADD SWAP1 PUSH2 0x124 SWAP2 SWAP1 PUSH2 0xA29 JUMP JUMPDEST PUSH2 0x4B5 JUMP JUMPDEST PUSH1 0x40 MLOAD PUSH2 0x137 SWAP3 SWAP2 SWAP1 PUSH2 0xAC3 JUMP JUMPDEST PUSH1 0x40 MLOAD DUP1 SWAP2 SUB SWAP1 RETURN JUMPDEST PUSH2 0x15A PUSH1 0x4 DUP1 CALLDATASIZE SUB DUP2 ADD SWAP1 PUSH2 0x155 SWAP2 SWAP1 PUSH2 0xAF1 JUMP JUMPDEST PUSH2 0x582 JUMP JUMPDEST STOP JUMPDEST PUSH2 0x176 PUSH1 0x4 DUP1 CALLDATASIZE SUB DUP2 ADD SWAP1 PUSH2 0x171 SWAP2 SWAP1 PUSH2 0x95C JUMP JUMPDEST PUSH2 0x641 JUMP JUMPDEST STOP JUMPDEST PUSH2 0x192 PUSH1 0x4 DUP1 CALLDATASIZE SUB DUP2 ADD SWAP1 PUSH2 0x18D SWAP2 SWAP1 PUSH2 0xA29 JUMP JUMPDEST PUSH2 0x6B2 JUMP JUMPDEST STOP JUMPDEST DUP1 PUSH0 DUP4 DUP2 SLOAD DUP2 LT PUSH2 0x1A8 JUMPI PUSH2 0x1A7 PUSH2 0xB38 JUMP JUMPDEST JUMPDEST SWAP1 PUSH0 MSTORE PUSH1 0x20 PUSH0 KECCAK256 SWAP1 PUSH1 0x2 MUL ADD PUSH0 ADD SWAP1 DUP2 PUSH2 0x1C2 SWAP2 SWAP1 PUSH2 0xD5F JUMP JUMPDEST POP PUSH32 0x4501EF52991D5F1C04CD1C8F9E4ACDA863929C0664942E0B2F3C7E54E05C5A54 DUP3 DUP3 PUSH1 0x40 MLOAD PUSH2 0x1F4 SWAP3 SWAP2 SWAP1 PUSH2 0xE3D JUMP JUMPDEST PUSH1 0x40 MLOAD DUP1 SWAP2 SUB SWAP1 LOG1 POP POP JUMP JUMPDEST DUP1 PUSH0 DUP4 DUP2 SLOAD DUP2 LT PUSH2 0x214 JUMPI PUSH2 0x213 PUSH2 0xB38 JUMP JUMPDEST JUMPDEST SWAP1 PUSH0 MSTORE PUSH1 0x20 PUSH0 KECCAK256 SWAP1 PUSH1 0x2 MUL ADD PUSH1 0x1 ADD PUSH0 PUSH2 0x100 EXP DUP2 SLOAD DUP2 PUSH1 0xFF MUL NOT AND SWAP1 DUP4 ISZERO ISZERO MUL OR SWAP1 SSTORE POP PUSH32 0xE259742BDF9A2DD95FA5260B6ECF71564B32126AE5E8ADF307FD4A741A425996 DUP3 DUP3 PUSH1 0x40 MLOAD PUSH2 0x26A SWAP3 SWAP2 SWAP1 PUSH2 0xE6B JUMP JUMPDEST PUSH1 0x40 MLOAD DUP1 SWAP2 SUB SWAP1 LOG1 POP POP JUMP JUMPDEST PUSH0 DUP1 SLOAD SWAP1 POP DUP2 LT PUSH2 0x2BC JUMPI PUSH1 0x40 MLOAD PUSH32 0x8C379A000000000000000000000000000000000000000000000000000000000 DUP2 MSTORE PUSH1 0x4 ADD PUSH2 0x2B3 SWAP1 PUSH2 0xEDC JUMP JUMPDEST PUSH1 0x40 MLOAD DUP1 SWAP2 SUB SWAP1 REVERT JUMPDEST PUSH0 DUP2 SWAP1 POP JUMPDEST PUSH1 0x1 PUSH0 DUP1 SLOAD SWAP1 POP PUSH2 0x2D2 SWAP2 SWAP1 PUSH2 0xF27 JUMP JUMPDEST DUP2 LT ISZERO PUSH2 0x371 JUMPI PUSH0 PUSH1 0x1 DUP3 PUSH2 0x2E7 SWAP2 SWAP1 PUSH2 0xF5A JUMP JUMPDEST DUP2 SLOAD DUP2 LT PUSH2 0x2F8 JUMPI PUSH2 0x2F7 PUSH2 0xB38 JUMP JUMPDEST JUMPDEST SWAP1 PUSH0 MSTORE PUSH1 0x20 PUSH0 KECCAK256 SWAP1 PUSH1 0x2 MUL ADD PUSH0 DUP3 DUP2 SLOAD DUP2 LT PUSH2 0x317 JUMPI PUSH2 0x316 PUSH2 0xB38 JUMP JUMPDEST JUMPDEST SWAP1 PUSH0 MSTORE PUSH1 0x20 PUSH0 KECCAK256 SWAP1 PUSH1 0x2 MUL ADD PUSH0 DUP3 ADD DUP2 PUSH0 ADD SWAP1 DUP2 PUSH2 0x335 SWAP2 SWAP1 PUSH2 0xFA2 JUMP JUMPDEST POP PUSH1 0x1 DUP3 ADD PUSH0 SWAP1 SLOAD SWAP1 PUSH2 0x100 EXP SWAP1 DIV PUSH1 0xFF AND DUP2 PUSH1 0x1 ADD PUSH0 PUSH2 0x100 EXP DUP2 SLOAD DUP2 PUSH1 0xFF MUL NOT AND SWAP1 DUP4 ISZERO ISZERO MUL OR SWAP1 SSTORE POP SWAP1 POP POP DUP1 DUP1 PUSH1 0x1 ADD SWAP2 POP POP PUSH2 0x2C1 JUMP JUMPDEST POP PUSH0 DUP1 SLOAD DUP1 PUSH2 0x383 JUMPI PUSH2 0x382 PUSH2 0x1087 JUMP JUMPDEST JUMPDEST PUSH1 0x1 SWAP1 SUB DUP2 DUP2 SWAP1 PUSH0 MSTORE PUSH1 0x20 PUSH0 KECCAK256 SWAP1 PUSH1 0x2 MUL ADD PUSH0 DUP1 DUP3 ADD PUSH0 PUSH2 0x3A4 SWAP2 SWAP1 PUSH2 0x784 JUMP JUMPDEST PUSH1 0x1 DUP3 ADD PUSH0 PUSH2 0x100 EXP DUP2 SLOAD SWAP1 PUSH1 0xFF MUL NOT AND SWAP1 SSTORE POP POP SWAP1 SSTORE PUSH32 0xD078B251D950CC55C44340BE1DB732337EF4939A76E1367EE271AD2CB19C46AF DUP2 PUSH1 0x40 MLOAD PUSH2 0x3EA SWAP2 SWAP1 PUSH2 0x10B4 JUMP JUMPDEST PUSH1 0x40 MLOAD DUP1 SWAP2 SUB SWAP1 LOG1 POP JUMP JUMPDEST PUSH0 DUP2 DUP2 SLOAD DUP2 LT PUSH2 0x403 JUMPI PUSH0 DUP1 REVERT JUMPDEST SWAP1 PUSH0 MSTORE PUSH1 0x20 PUSH0 KECCAK256 SWAP1 PUSH1 0x2 MUL ADD PUSH0 SWAP2 POP SWAP1 POP DUP1 PUSH0 ADD DUP1 SLOAD PUSH2 0x422 SWAP1 PUSH2 0xB92 JUMP JUMPDEST DUP1 PUSH1 0x1F ADD PUSH1 0x20 DUP1 SWAP2 DIV MUL PUSH1 0x20 ADD PUSH1 0x40 MLOAD SWAP1 DUP2 ADD PUSH1 0x40 MSTORE DUP1 SWAP3 SWAP2 SWAP1 DUP2 DUP2 MSTORE PUSH1 0x20 ADD DUP3 DUP1 SLOAD PUSH2 0x44E SWAP1 PUSH2 0xB92 JUMP JUMPDEST DUP1 ISZERO PUSH2 0x499 JUMPI DUP1 PUSH1 0x1F LT PUSH2 0x470 JUMPI PUSH2 0x100 DUP1 DUP4 SLOAD DIV MUL DUP4 MSTORE SWAP2 PUSH1 0x20 ADD SWAP2 PUSH2 0x499 JUMP JUMPDEST DUP3 ADD SWAP2 SWAP1 PUSH0 MSTORE PUSH1 0x20 PUSH0 KECCAK256 SWAP1 JUMPDEST DUP2 SLOAD DUP2 MSTORE SWAP1 PUSH1 0x1 ADD SWAP1 PUSH1 0x20 ADD DUP1 DUP4 GT PUSH2 0x47C JUMPI DUP3 SWAP1 SUB PUSH1 0x1F AND DUP3 ADD SWAP2 JUMPDEST POP POP POP POP POP SWAP1 DUP1 PUSH1 0x1 ADD PUSH0 SWAP1 SLOAD SWAP1 PUSH2 0x100 EXP SWAP1 DIV PUSH1 0xFF AND SWAP1 POP DUP3 JUMP JUMPDEST PUSH1 0x60 PUSH0 DUP1 PUSH0 DUP5 DUP2 SLOAD DUP2 LT PUSH2 0x4CC JUMPI PUSH2 0x4CB PUSH2 0xB38 JUMP JUMPDEST JUMPDEST SWAP1 PUSH0 MSTORE PUSH1 0x20 PUSH0 KECCAK256 SWAP1 PUSH1 0x2 MUL ADD SWAP1 POP DUP1 PUSH0 ADD DUP2 PUSH1 0x1 ADD PUSH0 SWAP1 SLOAD SWAP1 PUSH2 0x100 EXP SWAP1 DIV PUSH1 0xFF AND DUP2 DUP1 SLOAD PUSH2 0x4FA SWAP1 PUSH2 0xB92 JUMP JUMPDEST DUP1 PUSH1 0x1F ADD PUSH1 0x20 DUP1 SWAP2 DIV MUL PUSH1 0x20 ADD PUSH1 0x40 MLOAD SWAP1 DUP2 ADD PUSH1 0x40 MSTORE DUP1 SWAP3 SWAP2 SWAP1 DUP2 DUP2 MSTORE PUSH1 0x20 ADD DUP3 DUP1 SLOAD PUSH2 0x526 SWAP1 PUSH2 0xB92 JUMP JUMPDEST DUP1 ISZERO PUSH2 0x571 JUMPI DUP1 PUSH1 0x1F LT PUSH2 0x548 JUMPI PUSH2 0x100 DUP1 DUP4 SLOAD DIV MUL DUP4 MSTORE SWAP2 PUSH1 0x20 ADD SWAP2 PUSH2 0x571 JUMP JUMPDEST DUP3 ADD SWAP2 SWAP1 PUSH0 MSTORE PUSH1 0x20 PUSH0 KECCAK256 SWAP1 JUMPDEST DUP2 SLOAD DUP2 MSTORE SWAP1 PUSH1 0x1 ADD SWAP1 PUSH1 0x20 ADD DUP1 DUP4 GT PUSH2 0x554 JUMPI DUP3 SWAP1 SUB PUSH1 0x1F AND DUP3 ADD SWAP2 JUMPDEST POP POP POP POP POP SWAP2 POP SWAP3 POP SWAP3 POP POP SWAP2 POP SWAP2 JUMP JUMPDEST PUSH0 PUSH1 0x40 MLOAD DUP1 PUSH1 0x40 ADD PUSH1 0x40 MSTORE DUP1 DUP4 DUP2 MSTORE PUSH1 0x20 ADD PUSH0 ISZERO ISZERO DUP2 MSTORE POP SWAP1 DUP1 PUSH1 0x1 DUP2 SLOAD ADD DUP1 DUP3 SSTORE DUP1 SWAP2 POP POP PUSH1 0x1 SWAP1 SUB SWAP1 PUSH0 MSTORE PUSH1 0x20 PUSH0 KECCAK256 SWAP1 PUSH1 0x2 MUL ADD PUSH0 SWAP1 SWAP2 SWAP1 SWAP2 SWAP1 SWAP2 POP PUSH0 DUP3 ADD MLOAD DUP2 PUSH0 ADD SWAP1 DUP2 PUSH2 0x5D3 SWAP2 SWAP1 PUSH2 0xD5F JUMP JUMPDEST POP PUSH1 0x20 DUP3 ADD MLOAD DUP2 PUSH1 0x1 ADD PUSH0 PUSH2 0x100 EXP DUP2 SLOAD DUP2 PUSH1 0xFF MUL NOT AND SWAP1 DUP4 ISZERO ISZERO MUL OR SWAP1 SSTORE POP POP POP PUSH32 0xA5ED9E6226C584326505694539C95CB0E3238AE09BCDA5A65C00BBFDAB1C6662 PUSH1 0x1 PUSH0 DUP1 SLOAD SWAP1 POP PUSH2 0x627 SWAP2 SWAP1 PUSH2 0xF27 JUMP JUMPDEST DUP3 PUSH1 0x40 MLOAD PUSH2 0x636 SWAP3 SWAP2 SWAP1 PUSH2 0xE3D JUMP JUMPDEST PUSH1 0x40 MLOAD DUP1 SWAP2 SUB SWAP1 LOG1 POP JUMP JUMPDEST PUSH0 DUP1 DUP4 DUP2 SLOAD DUP2 LT PUSH2 0x655 JUMPI PUSH2 0x654 PUSH2 0xB38 JUMP JUMPDEST JUMPDEST SWAP1 PUSH0 MSTORE PUSH1 0x20 PUSH0 KECCAK256 SWAP1 PUSH1 0x2 MUL ADD SWAP1 POP DUP2 DUP2 PUSH0 ADD SWAP1 DUP2 PUSH2 0x673 SWAP2 SWAP1 PUSH2 0xD5F JUMP JUMPDEST POP PUSH32 0x4501EF52991D5F1C04CD1C8F9E4ACDA863929C0664942E0B2F3C7E54E05C5A54 DUP4 DUP4 PUSH1 0x40 MLOAD PUSH2 0x6A5 SWAP3 SWAP2 SWAP1 PUSH2 0xE3D JUMP JUMPDEST PUSH1 0x40 MLOAD DUP1 SWAP2 SUB SWAP1 LOG1 POP POP POP JUMP JUMPDEST PUSH0 DUP2 DUP2 SLOAD DUP2 LT PUSH2 0x6C5 JUMPI PUSH2 0x6C4 PUSH2 0xB38 JUMP JUMPDEST JUMPDEST SWAP1 PUSH0 MSTORE PUSH1 0x20 PUSH0 KECCAK256 SWAP1 PUSH1 0x2 MUL ADD PUSH1 0x1 ADD PUSH0 SWAP1 SLOAD SWAP1 PUSH2 0x100 EXP SWAP1 DIV PUSH1 0xFF AND ISZERO PUSH0 DUP3 DUP2 SLOAD DUP2 LT PUSH2 0x6F5 JUMPI PUSH2 0x6F4 PUSH2 0xB38 JUMP JUMPDEST JUMPDEST SWAP1 PUSH0 MSTORE PUSH1 0x20 PUSH0 KECCAK256 SWAP1 PUSH1 0x2 MUL ADD PUSH1 0x1 ADD PUSH0 PUSH2 0x100 EXP DUP2 SLOAD DUP2 PUSH1 0xFF MUL NOT AND SWAP1 DUP4 ISZERO ISZERO MUL OR SWAP1 SSTORE POP PUSH32 0xE259742BDF9A2DD95FA5260B6ECF71564B32126AE5E8ADF307FD4A741A425996 DUP2 PUSH0 DUP4 DUP2 SLOAD DUP2 LT PUSH2 0x74F JUMPI PUSH2 0x74E PUSH2 0xB38 JUMP JUMPDEST JUMPDEST SWAP1 PUSH0 MSTORE PUSH1 0x20 PUSH0 KECCAK256 SWAP1 PUSH1 0x2 MUL ADD PUSH1 0x1 ADD PUSH0 SWAP1 SLOAD SWAP1 PUSH2 0x100 EXP SWAP1 DIV PUSH1 0xFF AND PUSH1 0x40 MLOAD PUSH2 0x779 SWAP3 SWAP2 SWAP1 PUSH2 0xE6B JUMP JUMPDEST PUSH1 0x40 MLOAD DUP1 SWAP2 SUB SWAP1 LOG1 POP JUMP JUMPDEST POP DUP1 SLOAD PUSH2 0x790 SWAP1 PUSH2 0xB92 JUMP JUMPDEST PUSH0 DUP3 SSTORE DUP1 PUSH1 0x1F LT PUSH2 0x7A1 JUMPI POP PUSH2 0x7BE JUMP JUMPDEST PUSH1 0x1F ADD PUSH1 0x20 SWAP1 DIV SWAP1 PUSH0 MSTORE PUSH1 0x20 PUSH0 KECCAK256 SWAP1 DUP2 ADD SWAP1 PUSH2 0x7BD SWAP2 SWAP1 PUSH2 0x7C1 JUMP JUMPDEST JUMPDEST POP JUMP JUMPDEST JUMPDEST DUP1 DUP3 GT ISZERO PUSH2 0x7D8 JUMPI PUSH0 DUP2 PUSH0 SWAP1 SSTORE POP PUSH1 0x1 ADD PUSH2 0x7C2 JUMP JUMPDEST POP SWAP1 JUMP JUMPDEST PUSH0 PUSH1 0x40 MLOAD SWAP1 POP SWAP1 JUMP JUMPDEST PUSH0 DUP1 REVERT JUMPDEST PUSH0 DUP1 REVERT JUMPDEST PUSH0 DUP2 SWAP1 POP SWAP2 SWAP1 POP JUMP JUMPDEST PUSH2 0x7FF DUP2 PUSH2 0x7ED JUMP JUMPDEST DUP2 EQ PUSH2 0x809 JUMPI PUSH0 DUP1 REVERT JUMPDEST POP JUMP JUMPDEST PUSH0 DUP2 CALLDATALOAD SWAP1 POP PUSH2 0x81A DUP2 PUSH2 0x7F6 JUMP JUMPDEST SWAP3 SWAP2 POP POP JUMP JUMPDEST PUSH0 DUP1 REVERT JUMPDEST PUSH0 DUP1 REVERT JUMPDEST PUSH0 PUSH1 0x1F NOT PUSH1 0x1F DUP4 ADD AND SWAP1 POP SWAP2 SWAP1 POP JUMP JUMPDEST PUSH32 0x4E487B7100000000000000000000000000000000000000000000000000000000 PUSH0 MSTORE PUSH1 0x41 PUSH1 0x4 MSTORE PUSH1 0x24 PUSH0 REVERT JUMPDEST PUSH2 0x86E DUP3 PUSH2 0x828 JUMP JUMPDEST DUP2 ADD DUP2 DUP2 LT PUSH8 0xFFFFFFFFFFFFFFFF DUP3 GT OR ISZERO PUSH2 0x88D JUMPI PUSH2 0x88C PUSH2 0x838 JUMP JUMPDEST JUMPDEST DUP1 PUSH1 0x40 MSTORE POP POP POP JUMP JUMPDEST PUSH0 PUSH2 0x89F PUSH2 0x7DC JUMP JUMPDEST SWAP1 POP PUSH2 0x8AB DUP3 DUP3 PUSH2 0x865 JUMP JUMPDEST SWAP2 SWAP1 POP JUMP JUMPDEST PUSH0 PUSH8 0xFFFFFFFFFFFFFFFF DUP3 GT ISZERO PUSH2 0x8CA JUMPI PUSH2 0x8C9 PUSH2 0x838 JUMP JUMPDEST JUMPDEST PUSH2 0x8D3 DUP3 PUSH2 0x828 JUMP JUMPDEST SWAP1 POP PUSH1 0x20 DUP2 ADD SWAP1 POP SWAP2 SWAP1 POP JUMP JUMPDEST DUP3 DUP2 DUP4 CALLDATACOPY PUSH0 DUP4 DUP4 ADD MSTORE POP POP POP JUMP JUMPDEST PUSH0 PUSH2 0x900 PUSH2 0x8FB DUP5 PUSH2 0x8B0 JUMP JUMPDEST PUSH2 0x896 JUMP JUMPDEST SWAP1 POP DUP3 DUP2 MSTORE PUSH1 0x20 DUP2 ADD DUP5 DUP5 DUP5 ADD GT ISZERO PUSH2 0x91C JUMPI PUSH2 0x91B PUSH2 0x824 JUMP JUMPDEST JUMPDEST PUSH2 0x927 DUP5 DUP3 DUP6 PUSH2 0x8E0 JUMP JUMPDEST POP SWAP4 SWAP3 POP POP POP JUMP JUMPDEST PUSH0 DUP3 PUSH1 0x1F DUP4 ADD SLT PUSH2 0x943 JUMPI PUSH2 0x942 PUSH2 0x820 JUMP JUMPDEST JUMPDEST DUP2 CALLDATALOAD PUSH2 0x953 DUP5 DUP3 PUSH1 0x20 DUP7 ADD PUSH2 0x8EE JUMP JUMPDEST SWAP2 POP POP SWAP3 SWAP2 POP POP JUMP JUMPDEST PUSH0 DUP1 PUSH1 0x40 DUP4 DUP6 SUB SLT ISZERO PUSH2 0x972 JUMPI PUSH2 0x971 PUSH2 0x7E5 JUMP JUMPDEST JUMPDEST PUSH0 PUSH2 0x97F DUP6 DUP3 DUP7 ADD PUSH2 0x80C JUMP JUMPDEST SWAP3 POP POP PUSH1 0x20 DUP4 ADD CALLDATALOAD PUSH8 0xFFFFFFFFFFFFFFFF DUP2 GT ISZERO PUSH2 0x9A0 JUMPI PUSH2 0x99F PUSH2 0x7E9 JUMP JUMPDEST JUMPDEST PUSH2 0x9AC DUP6 DUP3 DUP7 ADD PUSH2 0x92F JUMP JUMPDEST SWAP2 POP POP SWAP3 POP SWAP3 SWAP1 POP JUMP JUMPDEST PUSH0 DUP2 ISZERO ISZERO SWAP1 POP SWAP2 SWAP1 POP JUMP JUMPDEST PUSH2 0x9CA DUP2 PUSH2 0x9B6 JUMP JUMPDEST DUP2 EQ PUSH2 0x9D4 JUMPI PUSH0 DUP1 REVERT JUMPDEST POP JUMP JUMPDEST PUSH0 DUP2 CALLDATALOAD SWAP1 POP PUSH2 0x9E5 DUP2 PUSH2 0x9C1 JUMP JUMPDEST SWAP3 SWAP2 POP POP JUMP JUMPDEST PUSH0 DUP1 PUSH1 0x40 DUP4 DUP6 SUB SLT ISZERO PUSH2 0xA01 JUMPI PUSH2 0xA00 PUSH2 0x7E5 JUMP JUMPDEST JUMPDEST PUSH0 PUSH2 0xA0E DUP6 DUP3 DUP7 ADD PUSH2 0x80C JUMP JUMPDEST SWAP3 POP POP PUSH1 0x20 PUSH2 0xA1F DUP6 DUP3 DUP7 ADD PUSH2 0x9D7 JUMP JUMPDEST SWAP2 POP POP SWAP3 POP SWAP3 SWAP1 POP JUMP JUMPDEST PUSH0 PUSH1 0x20 DUP3 DUP5 SUB SLT ISZERO PUSH2 0xA3E JUMPI PUSH2 0xA3D PUSH2 0x7E5 JUMP JUMPDEST JUMPDEST PUSH0 PUSH2 0xA4B DUP5 DUP3 DUP6 ADD PUSH2 0x80C JUMP JUMPDEST SWAP2 POP POP SWAP3 SWAP2 POP POP JUMP JUMPDEST PUSH0 DUP2 MLOAD SWAP1 POP SWAP2 SWAP1 POP JUMP JUMPDEST PUSH0 DUP3 DUP3 MSTORE PUSH1 0x20 DUP3 ADD SWAP1 POP SWAP3 SWAP2 POP POP JUMP JUMPDEST DUP3 DUP2 DUP4 MCOPY PUSH0 DUP4 DUP4 ADD MSTORE POP POP POP JUMP JUMPDEST PUSH0 PUSH2 0xA86 DUP3 PUSH2 0xA54 JUMP JUMPDEST PUSH2 0xA90 DUP2 DUP6 PUSH2 0xA5E JUMP JUMPDEST SWAP4 POP PUSH2 0xAA0 DUP2 DUP6 PUSH1 0x20 DUP7 ADD PUSH2 0xA6E JUMP JUMPDEST PUSH2 0xAA9 DUP2 PUSH2 0x828 JUMP JUMPDEST DUP5 ADD SWAP2 POP POP SWAP3 SWAP2 POP POP JUMP JUMPDEST PUSH2 0xABD DUP2 PUSH2 0x9B6 JUMP JUMPDEST DUP3 MSTORE POP POP JUMP JUMPDEST PUSH0 PUSH1 0x40 DUP3 ADD SWAP1 POP DUP2 DUP2 SUB PUSH0 DUP4 ADD MSTORE PUSH2 0xADB DUP2 DUP6 PUSH2 0xA7C JUMP JUMPDEST SWAP1 POP PUSH2 0xAEA PUSH1 0x20 DUP4 ADD DUP5 PUSH2 0xAB4 JUMP JUMPDEST SWAP4 SWAP3 POP POP POP JUMP JUMPDEST PUSH0 PUSH1 0x20 DUP3 DUP5 SUB SLT ISZERO PUSH2 0xB06 JUMPI PUSH2 0xB05 PUSH2 0x7E5 JUMP JUMPDEST JUMPDEST PUSH0 DUP3 ADD CALLDATALOAD PUSH8 0xFFFFFFFFFFFFFFFF DUP2 GT ISZERO PUSH2 0xB23 JUMPI PUSH2 0xB22 PUSH2 0x7E9 JUMP JUMPDEST JUMPDEST PUSH2 0xB2F DUP5 DUP3 DUP6 ADD PUSH2 0x92F JUMP JUMPDEST SWAP2 POP POP SWAP3 SWAP2 POP POP JUMP JUMPDEST PUSH32 0x4E487B7100000000000000000000000000000000000000000000000000000000 PUSH0 MSTORE PUSH1 0x32 PUSH1 0x4 MSTORE PUSH1 0x24 PUSH0 REVERT JUMPDEST PUSH32 0x4E487B7100000000000000000000000000000000000000000000000000000000 PUSH0 MSTORE PUSH1 0x22 PUSH1 0x4 MSTORE PUSH1 0x24 PUSH0 REVERT JUMPDEST PUSH0 PUSH1 0x2 DUP3 DIV SWAP1 POP PUSH1 0x1 DUP3 AND DUP1 PUSH2 0xBA9 JUMPI PUSH1 0x7F DUP3 AND SWAP2 POP JUMPDEST PUSH1 0x20 DUP3 LT DUP2 SUB PUSH2 0xBBC JUMPI PUSH2 0xBBB PUSH2 0xB65 JUMP JUMPDEST JUMPDEST POP SWAP2 SWAP1 POP JUMP JUMPDEST PUSH0 DUP2 SWAP1 POP DUP2 PUSH0 MSTORE PUSH1 0x20 PUSH0 KECCAK256 SWAP1 POP SWAP2 SWAP1 POP JUMP JUMPDEST PUSH0 PUSH1 0x20 PUSH1 0x1F DUP4 ADD DIV SWAP1 POP SWAP2 SWAP1 POP JUMP JUMPDEST PUSH0 DUP3 DUP3 SHL SWAP1 POP SWAP3 SWAP2 POP POP JUMP JUMPDEST PUSH0 PUSH1 0x8 DUP4 MUL PUSH2 0xC1E PUSH32 0xFFFFFFFFFFFFFFFFFFFFFFFFFFFFFFFFFFFFFFFFFFFFFFFFFFFFFFFFFFFFFFFF DUP3 PUSH2 0xBE3 JUMP JUMPDEST PUSH2 0xC28 DUP7 DUP4 PUSH2 0xBE3 JUMP JUMPDEST SWAP6 POP DUP1 NOT DUP5 AND SWAP4 POP DUP1 DUP7 AND DUP5 OR SWAP3 POP POP POP SWAP4 SWAP3 POP POP POP JUMP JUMPDEST PUSH0 DUP2 SWAP1 POP SWAP2 SWAP1 POP JUMP JUMPDEST PUSH0 PUSH2 0xC63 PUSH2 0xC5E PUSH2 0xC59 DUP5 PUSH2 0x7ED JUMP JUMPDEST PUSH2 0xC40 JUMP JUMPDEST PUSH2 0x7ED JUMP JUMPDEST SWAP1 POP SWAP2 SWAP1 POP JUMP JUMPDEST PUSH0 DUP2 SWAP1 POP SWAP2 SWAP1 POP JUMP JUMPDEST PUSH2 0xC7C DUP4 PUSH2 0xC49 JUMP JUMPDEST PUSH2 0xC90 PUSH2 0xC88 DUP3 PUSH2 0xC6A JUMP JUMPDEST DUP5 DUP5 SLOAD PUSH2 0xBEF JUMP JUMPDEST DUP3 SSTORE POP POP POP POP JUMP JUMPDEST PUSH0 SWAP1 JUMP JUMPDEST PUSH2 0xCA4 PUSH2 0xC98 JUMP JUMPDEST PUSH2 0xCAF DUP2 DUP5 DUP5 PUSH2 0xC73 JUMP JUMPDEST POP POP POP JUMP JUMPDEST JUMPDEST DUP2 DUP2 LT ISZERO PUSH2 0xCD2 JUMPI PUSH2 0xCC7 PUSH0 DUP3 PUSH2 0xC9C JUMP JUMPDEST PUSH1 0x1 DUP2 ADD SWAP1 POP PUSH2 0xCB5 JUMP JUMPDEST POP POP JUMP JUMPDEST PUSH1 0x1F DUP3 GT ISZERO PUSH2 0xD17 JUMPI PUSH2 0xCE8 DUP2 PUSH2 0xBC2 JUMP JUMPDEST PUSH2 0xCF1 DUP5 PUSH2 0xBD4 JUMP JUMPDEST DUP2 ADD PUSH1 0x20 DUP6 LT ISZERO PUSH2 0xD00 JUMPI DUP2 SWAP1 POP JUMPDEST PUSH2 0xD14 PUSH2 0xD0C DUP6 PUSH2 0xBD4 JUMP JUMPDEST DUP4 ADD DUP3 PUSH2 0xCB4 JUMP JUMPDEST POP POP JUMPDEST POP POP POP JUMP JUMPDEST PUSH0 DUP3 DUP3 SHR SWAP1 POP SWAP3 SWAP2 POP POP JUMP JUMPDEST PUSH0 PUSH2 0xD37 PUSH0 NOT DUP5 PUSH1 0x8 MUL PUSH2 0xD1C JUMP JUMPDEST NOT DUP1 DUP4 AND SWAP2 POP POP SWAP3 SWAP2 POP POP JUMP JUMPDEST PUSH0 PUSH2 0xD4F DUP4 DUP4 PUSH2 0xD28 JUMP JUMPDEST SWAP2 POP DUP3 PUSH1 0x2 MUL DUP3 OR SWAP1 POP SWAP3 SWAP2 POP POP JUMP JUMPDEST PUSH2 0xD68 DUP3 PUSH2 0xA54 JUMP JUMPDEST PUSH8 0xFFFFFFFFFFFFFFFF DUP2 GT ISZERO PUSH2 0xD81 JUMPI PUSH2 0xD80 PUSH2 0x838 JUMP JUMPDEST JUMPDEST PUSH2 0xD8B DUP3 SLOAD PUSH2 0xB92 JUMP JUMPDEST PUSH2 0xD96 DUP3 DUP3 DUP6 PUSH2 0xCD6 JUMP JUMPDEST PUSH0 PUSH1 0x20 SWAP1 POP PUSH1 0x1F DUP4 GT PUSH1 0x1 DUP2 EQ PUSH2 0xDC7 JUMPI PUSH0 DUP5 ISZERO PUSH2 0xDB5 JUMPI DUP3 DUP8 ADD MLOAD SWAP1 POP JUMPDEST PUSH2 0xDBF DUP6 DUP3 PUSH2 0xD44 JUMP JUMPDEST DUP7 SSTORE POP PUSH2 0xE26 JUMP JUMPDEST PUSH1 0x1F NOT DUP5 AND PUSH2 0xDD5 DUP7 PUSH2 0xBC2 JUMP JUMPDEST PUSH0 JUMPDEST DUP3 DUP2 LT ISZERO PUSH2 0xDFC JUMPI DUP5 DUP10 ADD MLOAD DUP3 SSTORE PUSH1 0x1 DUP3 ADD SWAP2 POP PUSH1 0x20 DUP6 ADD SWAP5 POP PUSH1 0x20 DUP2 ADD SWAP1 POP PUSH2 0xDD7 JUMP JUMPDEST DUP7 DUP4 LT ISZERO PUSH2 0xE19 JUMPI DUP5 DUP10 ADD MLOAD PUSH2 0xE15 PUSH1 0x1F DUP10 AND DUP3 PUSH2 0xD28 JUMP JUMPDEST DUP4 SSTORE POP JUMPDEST PUSH1 0x1 PUSH1 0x2 DUP9 MUL ADD DUP9 SSTORE POP POP POP JUMPDEST POP POP POP POP POP POP JUMP JUMPDEST PUSH2 0xE37 DUP2 PUSH2 0x7ED JUMP JUMPDEST DUP3 MSTORE POP POP JUMP JUMPDEST PUSH0 PUSH1 0x40 DUP3 ADD SWAP1 POP PUSH2 0xE50 PUSH0 DUP4 ADD DUP6 PUSH2 0xE2E JUMP JUMPDEST DUP2 DUP2 SUB PUSH1 0x20 DUP4 ADD MSTORE PUSH2 0xE62 DUP2 DUP5 PUSH2 0xA7C JUMP JUMPDEST SWAP1 POP SWAP4 SWAP3 POP POP POP JUMP JUMPDEST PUSH0 PUSH1 0x40 DUP3 ADD SWAP1 POP PUSH2 0xE7E PUSH0 DUP4 ADD DUP6 PUSH2 0xE2E JUMP JUMPDEST PUSH2 0xE8B PUSH1 0x20 DUP4 ADD DUP5 PUSH2 0xAB4 JUMP JUMPDEST SWAP4 SWAP3 POP POP POP JUMP JUMPDEST PUSH32 0x496E646578206F7574206F6620626F756E647300000000000000000000000000 PUSH0 DUP3 ADD MSTORE POP JUMP JUMPDEST PUSH0 PUSH2 0xEC6 PUSH1 0x13 DUP4 PUSH2 0xA5E JUMP JUMPDEST SWAP2 POP PUSH2 0xED1 DUP3 PUSH2 0xE92 JUMP JUMPDEST PUSH1 0x20 DUP3 ADD SWAP1 POP SWAP2 SWAP1 POP JUMP JUMPDEST PUSH0 PUSH1 0x20 DUP3 ADD SWAP1 POP DUP2 DUP2 SUB PUSH0 DUP4 ADD MSTORE PUSH2 0xEF3 DUP2 PUSH2 0xEBA JUMP JUMPDEST SWAP1 POP SWAP2 SWAP1 POP JUMP JUMPDEST PUSH32 0x4E487B7100000000000000000000000000000000000000000000000000000000 PUSH0 MSTORE PUSH1 0x11 PUSH1 0x4 MSTORE PUSH1 0x24 PUSH0 REVERT JUMPDEST PUSH0 PUSH2 0xF31 DUP3 PUSH2 0x7ED JUMP JUMPDEST SWAP2 POP PUSH2 0xF3C DUP4 PUSH2 0x7ED JUMP JUMPDEST SWAP3 POP DUP3 DUP3 SUB SWAP1 POP DUP2 DUP2 GT ISZERO PUSH2 0xF54 JUMPI PUSH2 0xF53 PUSH2 0xEFA JUMP JUMPDEST JUMPDEST SWAP3 SWAP2 POP POP JUMP JUMPDEST PUSH0 PUSH2 0xF64 DUP3 PUSH2 0x7ED JUMP JUMPDEST SWAP2 POP PUSH2 0xF6F DUP4 PUSH2 0x7ED JUMP JUMPDEST SWAP3 POP DUP3 DUP3 ADD SWAP1 POP DUP1 DUP3 GT ISZERO PUSH2 0xF87 JUMPI PUSH2 0xF86 PUSH2 0xEFA JUMP JUMPDEST JUMPDEST SWAP3 SWAP2 POP POP JUMP JUMPDEST PUSH0 DUP2 SLOAD SWAP1 POP PUSH2 0xF9B DUP2 PUSH2 0xB92 JUMP JUMPDEST SWAP1 POP SWAP2 SWAP1 POP JUMP JUMPDEST DUP2 DUP2 SUB PUSH2 0xFB0 JUMPI POP POP PUSH2 0x1085 JUMP JUMPDEST PUSH2 0xFB9 DUP3 PUSH2 0xF8D JUMP JUMPDEST PUSH8 0xFFFFFFFFFFFFFFFF DUP2 GT ISZERO PUSH2 0xFD2 JUMPI PUSH2 0xFD1 PUSH2 0x838 JUMP JUMPDEST JUMPDEST PUSH2 0xFDC DUP3 SLOAD PUSH2 0xB92 JUMP JUMPDEST PUSH2 0xFE7 DUP3 DUP3 DUP6 PUSH2 0xCD6 JUMP JUMPDEST PUSH0 PUSH1 0x1F DUP4 GT PUSH1 0x1 DUP2 EQ PUSH2 0x1014 JUMPI PUSH0 DUP5 ISZERO PUSH2 0x1002 JUMPI DUP3 DUP8 ADD SLOAD SWAP1 POP JUMPDEST PUSH2 0x100C DUP6 DUP3 PUSH2 0xD44 JUMP JUMPDEST DUP7 SSTORE POP PUSH2 0x107E JUMP JUMPDEST PUSH1 0x1F NOT DUP5 AND PUSH2 0x1022 DUP8 PUSH2 0xBC2 JUMP JUMPDEST SWAP7 POP PUSH2 0x102D DUP7 PUSH2 0xBC2 JUMP JUMPDEST PUSH0 JUMPDEST DUP3 DUP2 LT ISZERO PUSH2 0x1054 JUMPI DUP5 DUP10 ADD SLOAD DUP3 SSTORE PUSH1 0x1 DUP3 ADD SWAP2 POP PUSH1 0x1 DUP6 ADD SWAP5 POP PUSH1 0x20 DUP2 ADD SWAP1 POP PUSH2 0x102F JUMP JUMPDEST DUP7 DUP4 LT ISZERO PUSH2 0x1071 JUMPI DUP5 DUP10 ADD SLOAD PUSH2 0x106D PUSH1 0x1F DUP10 AND DUP3 PUSH2 0xD28 JUMP JUMPDEST DUP4 SSTORE POP JUMPDEST PUSH1 0x1 PUSH1 0x2 DUP9 MUL ADD DUP9 SSTORE POP POP POP JUMPDEST POP POP POP POP POP POP JUMPDEST JUMP JUMPDEST PUSH32 0x4E487B7100000000000000000000000000000000000000000000000000000000 PUSH0 MSTORE PUSH1 0x31 PUSH1 0x4 MSTORE PUSH1 0x24 PUSH0 REVERT JUMPDEST PUSH0 PUSH1 0x20 DUP3 ADD SWAP1 POP PUSH2 0x10C7 PUSH0 DUP4 ADD DUP5 PUSH2 0xE2E JUMP JUMPDEST SWAP3 SWAP2 POP POP JUMP INVALID LOG2 PUSH5 0x6970667358 0x22 SLT KECCAK256 0xBF 0xB2 0xEC CALL MLOAD 0x21 SWAP6 CREATE CREATE2 SWAP8 0xDD OR 0xC2 JUMP XOR 0xE2 0xCB ADDMOD 0xEA 0x21 SDIV 0x4F 0x2F 0xE7 EXTCODEHASH SGT PUSH10 0x806C39ADCB64736F6C63 NUMBER STOP ADDMOD BYTE STOP CALLER "
		},
		"gasEstimates": {
			"creation": {
				"codeDepositCost": "871000",
				"executionCost": "907",
				"totalCost": "871907"
			},
			"external": {
				"create(string)": "infinite",
				"deleteTask(uint256)": "infinite",
				"get(uint256)": "infinite",
				"list(uint256)": "infinite",
				"modiName1(uint256,string)": "infinite",
				"modiName2(uint256,string)": "infinite",
				"modiStatus1(uint256,bool)": "infinite",
				"modiStatus2(uint256)": "infinite"
			}
		},
		"methodIdentifiers": {
			"create(string)": "b6a46b3b",
			"deleteTask(uint256)": "560f3192",
			"get(uint256)": "9507d39a",
			"list(uint256)": "80c9419e",
			"modiName1(uint256,string)": "1fbb5bc5",
			"modiName2(uint256,string)": "c91b78cb",
			"modiStatus1(uint256,bool)": "4112a18e",
			"modiStatus2(uint256)": "d511b4be"
		}
	},
	"abi": [
		{
			"anonymous": false,
			"inputs": [
				{
					"indexed": false,
					"internalType": "uint256",
					"name": "index",
					"type": "uint256"
				},
				{
					"indexed": false,
					"internalType": "string",
					"name": "name",
					"type": "string"
				}
			],
			"name": "TaskCreated",
			"type": "event"
		},
		{
			"anonymous": false,
			"inputs": [
				{
					"indexed": false,
					"internalType": "uint256",
					"name": "index",
					"type": "uint256"
				}
			],
			"name": "TaskDeleted",
			"type": "event"
		},
		{
			"anonymous": false,
			"inputs": [
				{
					"indexed": false,
					"internalType": "uint256",
					"name": "index",
					"type": "uint256"
				},
				{
					"indexed": false,
					"internalType": "string",
					"name": "newName",
					"type": "string"
				}
			],
			"name": "TaskNameUpdated",
			"type": "event"
		},
		{
			"anonymous": false,
			"inputs": [
				{
					"indexed": false,
					"internalType": "uint256",
					"name": "index",
					"type": "uint256"
				},
				{
					"indexed": false,
					"internalType": "bool",
					"name": "isCompleted",
					"type": "bool"
				}
			],
			"name": "TaskStatusUpdated",
			"type": "event"
		},
		{
			"inputs": [
				{
					"internalType": "string",
					"name": "name_",
					"type": "string"
				}
			],
			"name": "create",
			"outputs": [],
			"stateMutability": "nonpayable",
			"type": "function"
		},
		{
			"inputs": [
				{
					"internalType": "uint256",
					"name": "index_",
					"type": "uint256"
				}
			],
			"name": "deleteTask",
			"outputs": [],
			"stateMutability": "nonpayable",
			"type": "function"
		},
		{
			"inputs": [
				{
					"internalType": "uint256",
					"name": "index_",
					"type": "uint256"
				}
			],
			"name": "get",
			"outputs": [
				{
					"internalType": "string",
					"name": "name_",
					"type": "string"
				},
				{
					"internalType": "bool",
					"name": "status_",
					"type": "bool"
				}
			],
			"stateMutability": "view",
			"type": "function"
		},
		{
			"inputs": [
				{
					"internalType": "uint256",
					"name": "",
					"type": "uint256"
				}
			],
			"name": "list",
			"outputs": [
				{
					"internalType": "string",
					"name": "name",
					"type": "string"
				},
				{
					"internalType": "bool",
					"name": "isCompleted",
					"type": "bool"
				}
			],
			"stateMutability": "view",
			"type": "function"
		},
		{
			"inputs": [
				{
					"internalType": "uint256",
					"name": "index_",
					"type": "uint256"
				},
				{
					"internalType": "string",
					"name": "name_",
					"type": "string"
				}
			],
			"name": "modiName1",
			"outputs": [],
			"stateMutability": "nonpayable",
			"type": "function"
		},
		{
			"inputs": [
				{
					"internalType": "uint256",
					"name": "index_",
					"type": "uint256"
				},
				{
					"internalType": "string",
					"name": "name_",
					"type": "string"
				}
			],
			"name": "modiName2",
			"outputs": [],
			"stateMutability": "nonpayable",
			"type": "function"
		},
		{
			"inputs": [
				{
					"internalType": "uint256",
					"name": "index_",
					"type": "uint256"
				},
				{
					"internalType": "bool",
					"name": "status_",
					"type": "bool"
				}
			],
			"name": "modiStatus1",
			"outputs": [],
			"stateMutability": "nonpayable",
			"type": "function"
		},
		{
			"inputs": [
				{
					"internalType": "uint256",
					"name": "index_",
					"type": "uint256"
				}
			],
			"name": "modiStatus2",
			"outputs": [],
			"stateMutability": "nonpayable",
			"type": "function"
		}
	]
}